:0618080000008C310C2CE5
:101810007E148C317E10090020008C310F2C653035
:101820008400003085000B30903104208C31A730CB
:101830008400003085003330903104208C317E10DC
:1018400020009E31252E20004203031D282C292C28
:101850003F2C40081F39003A031D2F2C302C3F2C01
:101860002100B817033020004106031D382C392C05
:101870003D2C2100D301D30A3F2C2100D3012000AD
:101880004208031D442C452C702D40081F39023A94
:10189000031D4B2C4C2C702D44080F39003A0319B2
:1018A000522C532C702D44080F39D60002305602AA
:1018B00003185B2C5C2C702D20306E06031D612CF0
:1018C000622C702D2100B8172000C41B682C692CD5
:1018D0007D2C44080F390907BF3E86008701403F31
:1018E000DB00413FDC0044080F39C53E860087011C
:1018F0000108D6005608DA00902C44080F39090771
:10190000653E86008701403FDB00413FDC00440824
:101910000F39C73E860087010108D6005608DA0055
:101920005A18932C942C9F2CFB30D600FF30D700F4
:101930005B085605DB005C085705DC00A52C04306D
:101940005B04DB0000305C04DC00C41BA82CA92C69
:10195000B42C44080F390907BF3E860087015B0895
:10196000C03F5C08C13FBE2C44080F390907653EE3
:10197000860087015B08C03F5C08C13F0330410619
:10198000031DC32CC42CE82C5B0886005C08870070
:10199000811FCB2CCC2CDD2CC41BCF2CD02CD72CD6
:1019A00044080F39C53E860087018114DD2C4408A8
:1019B0000F39C73E8600870181145B0886005C08EA
:1019C000870001155B0886005C0887008117702D71
:1019D00004305B06DB0000305C06DC005B08860040
:1019E0005C088700811FF52CF62C132D7F30D60064
:1019F0005B0886005C088700560881055B08860046
:101A00005C08870001170530D0000030D1005C0869
:101A1000D3005B08D2000230D4000030D5009E31E4
:101A20005F268C31182D5B0886005C088700011743
:101A3000043020005B06DB0000305C06DC00DA18B6
:101A4000222D232D2B2D5B0886005C088700811F2B
:101A50002A2D2B2D542DC41B2E2D2F2D362D440811
:101A60000F39C53E8600870181103C2D44080F398F
:101A7000C73E8600870181103B30D6005B08860098
:101A80005C088700560881050530D0000030D10081
:101A90005C08D3005B08D2000230D4000030D500CF
:101AA0009E315F268C315C2D3B30D6005B08860072
:101AB0005C08870056088105200044080F39983ECD
:101AC000D600D7010E30D73D5608D8005708D900A8
:101AD000FE30D60058088600590887005608810550
:101AE0000800FD009631F2268D31210028080F39BB
:101AF000023A031D7C2D7D2D7F2DC916802DC91224
:101B00000310A91D03147D0A860087010110031C20
:101B10008A2D011403102100291D03147D0886005D
:101B200087010110031C952D011403102100291CAD
:101B300003147D08860087018110031CA02D8114E9
:101B400003102100A91C03147D08860087010111E0
:101B5000031CAB2D0115031021002A1F03147D085F
:101B6000860087018111031CB62D81150310210009
:101B7000AA1E03147D08860087010112031CC12DD3
:101B80000116031021002A1E03147D088600870118
:101B90008112031CCC2D81167D0A860087018110DD
:101BA0007D0A8600870101117D0A86008701811266
:101BB0007D0A8600870101127D0A86008701811156
:101BC0002100291AE42DE52D062EA91BE82DE92D6B
:101BD000F22D7D08023E860087010108F0390138A8
:101BE00081004F2E291BF52DF62DFF2D7D08023E7D
:101BF000860087010108F039073881004F2E7D08E3
:101C0000023E86008701F03081054F2EA91A092E69
:101C10000A2E2D2EA91B0D2E0E2E172E7D08023EEC
:101C2000860087010108F039033881004F2E291BF7
:101C30001A2E1B2E242E7D08023E860087010108E5
:101C4000F039053881004F2E7D08023E860087015D
:101C50000108F039043881004F2EA91B302E312E97
:101C60003A2E7D08023E860087010108F0390238CD
:101C700081004F2E291B3D2E3E2E472E7D08023E11
:101C8000860087010108F039063881004F2E7D0853
:101C9000023E860087010108F03908388100C91E1C
:101CA000522E532E832E0310AA1D03147D08860086
:101CB00087010113031C5D2E011703102100AA1FC9
:101CC00003147D08860087018113031C682E811789
:101CD0008030FC007D08033E860087017C0881007F
:101CE0008030FC007D08043E860087017C0881006E
:101CF0007D08053E8600870181017D08063E86003D
:101D000087018101AB2E7D088600870101137D08C4
:101D10008600870181132B08FC007D08033E8600A6
:101D200087017C0881002C08FC007D08043E8600A9
:101D300087017C0881002E08FC007D08053E860096
:101D400087017C0881002D08FC007D08063E860086
:101D500087017C088100080020006E08031DB12E59
:101D6000B22EC42E3D008E019201163091009F309C
:101D700097007B309200BD2E8E158E1DC02EC12E79
:101D8000BC2E2000EE01EE0A6E03031DC82EC92EE4
:101D9000D72E3D008E1ACD2ECE2ED72E9001920139
:101DA0001214121602302000E2006208EE003D001C
:101DB000101DDB2EDC2EE92E121DDF2EE02EE92E6B
:101DC000FB302000E20062083D0090059D311525A2
:101DD0008E313D008E1CED2EEE2EF12E20001211C4
:101DE000DF2F101CF42EF52E062F121CF82EF92EC4
:101DF000062F9431FF248E3104302000E200620867
:101E0000EE00FE30E20062083D009005101E092F32
:101E10000A2F112F121E0D2F0E2F112F8F31E02799
:101E20008E313D00101F152F162F432F121F192F13
:101E30001A2F2A2F73302000D0000030D10000303C
:101E4000D2000030D3000130D4000030D5009E31E4
:101E50005F268E31BF302000E20062083D00900511
:101E60009C31DC248E3121004F080319382F392F83
:101E70003B2F0130CF024F08031D3F2F402F432F30
:101E80009031CC208E313D00901E472F482F4F2F90
:101E9000921E4B2F4C2F4F2F9D315C258E313D00D4
:101EA000901C532F542F6A2F921C572F582F6A2F94
:101EB000FF302000D0007F30D1000030D200003051
:101EC000D3000130D4000030D5009E315F268E3122
:101ED0003D009301043020006E020318702F712F13
:101EE000732F1211DF2F3D00921D772F782FDD2FDA
:101EF0002000E4013D00901D7E2F7F2FDD2F0F0875
:101F00002000E2006208EF006F0CE200E20C620CBD
:101F10000F39E30063082100D100F7302000E20010
:101F200062083D00900520006F19972F982FA92F68
:101F300021005108C53E86008701010801392000B3
:101F4000E2000130E20601086206FE396206810005
:101F5000B92F21005108C73E8600870101080139C9
:101F60002000E2000130E20601086206FE39620646
:101F7000810021005108031DBE2FBF2FC32F9E31AA
:101F8000DD268E31D22F72302000D0000030D100FB
:101F90006F30D2000030D3000030D400D5009E3125
:101FA0005F268E3101302000E2006208E407043031
:101FB0006402031CDC2FDD2F7A2F20001211080091
:101FC0003D001215EF302000D60056083D00900568
:101FD0008E142100D201D20ACA0175302000D0002F
:101FE0000030D1000030D2000030D3000030D400E7
:0A1FF000D5009E315F268F310800F6
:10200800640080010131890B052800342100D501C5
:102018002000EB012100CC01CB01D0012000EC0114
:102028007F30DF0065088600660887005F08810545
:1020380004306506E50000306606E6007F30DF0004
:1020480065088600660887005F0881050430650614
:10205800E50000306606E6007F30DF00690886008C
:102068006A0887005F0881052100B801B901BA0133
:10207800B101B201B3019131BD219031033020008B
:10208800D0000030D1000030D2000030D300003042
:10209800D400D5009E315F2690319331BD23903115
:1020A80008000830F0007008F200003021003A0201
:1020B8000830031939020318622863287828390878
:1020C800F0007008F2005508031D6B286C286F2873
:1020D800D501D50A78285503031D73287428782854
:1020E8000230F0007008D5007208F000F1017008A5
:1020F800B9027108BA3B20006508013EF0000030C3
:10210800663DF1007008860071088700720881003A
:102118004830F00070082100D40038189428952819
:10212800C628AB2836088400370885000008F00068
:10213800540886008701700881000130B607003016
:10214800B73D0130F0007008D4070130F202720880
:10215800031DAF28B0289628CB28360884003708F6
:1021680085000008F0005408860087017008810087
:102178000130B6070030B73D0130F0007008D407D1
:102188000130F2027208031DCA28CB28B1280800C2
:1021980021004E08031DD128D22842290130F00021
:1021A8007008CE004D08031DDA28DB2842290130CB
:1021B800F0007008CD00023020006C06031DE528F1
:1021C800E628F828650886006608870041318101FD
:1021D8006508860066088700483081006508860023
:1021E80066088700811742296C03031DFC28FD2817
:1021F80042292100D0010830F00020006D0A860035
:102208008701700881004030F0000030F1006D084F
:10221800023E860087017008C03F7108C13F043044
:10222800F0006D0886008701700881006D0886003F
:10223800870181172100D001D00A20006908013EDA
:10224800F00000306A3DF1007008860071088700D0
:10225800083081004030F0000030F1006908860045
:102268006A08870042317008C03F7108C13F690899
:1022780086006A0887008030810042290800200013
:1022880065088600660887000030011B0130F500EC
:1022980004306506E50000306606E60008306E0684
:1022A800031D572958296C2942087F393D0096009B
:1022B800160803196029612967291030F30073088B
:1022C8002000EE006C290430F30073082000EE00B3
:1022D8006C03031D70297129B4294830F3000030BC
:1022E800F400650886006608870042317308C03F1D
:1022F8007408C13F903155209131023021005506B4
:10230800031D872988299529200065088600660805
:1023180087000430810065088600660887008117F9
:10232800BC297508031D99299A29A7292000650841
:1023380086006608870048308100650886006608C0
:1023480087008117BC292000650886006608870079
:102358000830810065088600660887008117BC2957
:102368002100B11FB829B929BA29B1132000EC01FD
:1023780008002000400E890C0339003A0319C529CA
:10238800C6290B2A362A2100B81708302000DD009C
:102398005D08EE00362A933138239131362A92317E
:1023A80037229131362AD9302100B6000030B700E3
:1023B8003814B901B90AB817362A9F3194279131D0
:1023C800362A8C3123249131362A4408D83E2100FC
:1023D800B6000030B700DC292100B81720004208F9
:1023E800DD004408D83E860087015D088100362A52
:1023F8000230D0000030D1000030D2000030D300CD
:102408000030D400D5009E315F269131362A41082C
:10241800DD00DE015E08003A0319132A362A5D083A
:10242800003A0319E129013A0319E529023A031987
:10243800E529063A0319C729033A0319CF29013AAE
:102448000319FC290F3A0319D729013A0319D3298B
:10245800033A0319E929013A0319F029073A03193C
:10246800362A362A08002100B8170E302000D80076
:102478009930D700D901570886005808870081018C
:102488000130D7070030D83D0130D6005608D907AB
:1024980059080319502A512A3F2A0030F000F10048
:1024A8002030F2000030F300203094315B24923168
:1024B8003D000E172000DA015A08C73E8600870142
:1024C80081015A08C53E8600870181010130D60086
:1024D8005608DA0702305A02031C732A742A602A43
:1024E8000030F000F1000130F2000030F300D83085
:1024F80094315B2492313D000E1328302000E50012
:102508000030E6002030D6005608ED006D08E900DE
:10251800FF39031D0030EA004208D60056082100A2
:10252800D9005908031D992A9A2AA02A1030200098
:10253800D6005608EE00B52A01302000D000003041
:10254800D100D930D2000030D3000130D40000309F
:10255800D5009E315F26923120302000D6005608E3
:10256800EE000800F70070080319BB2ABC2AC52A28
:102578007735653E86008701403FF800413FF90006
:10258800CD2A7735BF3E86008701403FF800413F9E
:10259800F90078087904031DD22AD32AD62AF00133
:1025A800F101372B7108F3000030F4007808860039
:1025B8007908870042317308C03F7408C13F780822
:1025C800013EF3000030793DF4007308860074087A
:1025D8008700720881004030F30078088600790887
:1025E80087007308810578088600790887008115B7
:1025F8007808860079088700811770080319052B69
:10260800062B1D2B7735653E86008701403FF3007A
:10261800413FF40004307306F50000307406F600FC
:102628007735653E860087017508C03F7608C13F4B
:10263800332B7735BF3E86008701403FF300413F8B
:10264800F40004307306F50000307406F6007735A0
:10265800BF3E860087017508C03F7608C13F7908EC
:10266800F1007808F0000800803020004006031DC3
:102678003E2B3F2BBC2BC030F00070082100B80067
:10268800A82BBA302100B6009830B7001230B90034
:102698000030BA00BC2B4208031D532B542B832B4C
:1026A8004208F000F101F035F10DD63070078400D2
:1026B8009830713D8500003F2100B600013FB7000A
:1026C8003708F1003608F0000230700784007108FE
:1026D8000318710A85000008F2007208B90037086B
:1026E800F1003608F0000330700784007108031801
:1026F800710A85000008F2007208BA00BC2B21009C
:10270800B801BC2B0330420203188B2B8C2B832B74
:102718004208F000F101F035F10DCC30700784006B
:102728009830713D8500003F2100B600013FB70099
:1027380036088400370885000008F000F1017008A9
:10274800B9007108BA00BC2B20004308F000F10161
:102758007108003A0319B12B832B7008013A031949
:10276800452B033A03194F2B013A0319862B832B68
:1027780008003D000E122100B81BC32BC42B0B2CE4
:10278800B11FC72BC82BDA2B0230F50075082000C3
:10279800EC0021004B08031DD22BD32BD62B9F31E5
:1027A800332793312100CD01CE015A2C200069082E
:1027B800013EF50000306A3DF6007508860076088F
:1027C8008700083081004030F5000030F6006908C5
:1027D80086006A08870042317508C03F7608C13F05
:1027E800690886006A0887000C308100690886003D
:1027F8006A08870081176508860066088700043024
:102808008100650886006608870081175A2C200019
:10281800C01F0F2C102C282CEC01EC0A21004C08AE
:10282800031D172C182C1B2C9F31332793312100A3
:10283800CD01CE0120006B08031D232C242C5A2C1B
:102848009031CC2093315A2C0230F5007508EC00F9
:102858006908013EF50000306A3DF60075088600FB
:1028680076088700083081004030F5000030F60017
:10287800690886006A08870042317508C03F7608F3
:10288800C13F690886006A0887000430810069082A
:1028980086006A08870081172100CD01CE0120003B
:1028A8006B08031D582C592C5A2C242C0800F800AE
:1028B8007808F4007408F90072087304031D652C85
:1028C800662C672CFE2C7008F400790886008701B6
:1028D800740881007008F40072087907F50075081B
:1028E800FF3E8600870174088100003073020330C0
:1028F800031972020318812C822C832CFE2C700879
:10290800F400790A86008701740881007008F400D1
:102918007908023E86008701740881007008F40077
:1029280072087907F5007508FE3E8600870174086D
:1029380081007008F40072087907F5007508FD3EFB
:10294800860087017408810000307302073003197C
:1029580072020318B02CB12CB22CFE2C7008F400B3
:102968007908033E86008701740881007008F40026
:1029780072087907F5007508FC3E8600870174081F
:102988008100003073020930031972020318CD2C3C
:10299800CE2CCF2CFE2C7909F4007A09F500F40A24
:1029A8000319F50A03307405F60000307505F700C1
:1029B8007608F4007408F9077608F2027708F33B02
:1029C800FC30F205FF30F305F82C7008F4007908A4
:1029D80086008701740881000130F2020030F33B61
:1029E8000130F4007408F90772087304031DFD2C04
:1029F800FE2CE92C0800210012113D0093019001E2
:102A080098010E30F2009930F100F3017108860048
:102A18007208870081010130F1070030F23D013072
:102A2800F0007008F307730803191B2D1C2D0A2DDD
:102A380016303D0091009F3097007B309200F401E2
:102A48007408F0000130F035FF3E031D272D703566
:102A5800203E860087010030C03F0030C13FC23FA2
:102A6800C33F0130F0007008F40708307402031CFB
:102A78003E2D3F2D242D3D000E1796010E120E13EC
:102A8800F730F000700890052100B801B101B201DB
:102A9800B3013D009019512D522D442D0130F00005
:102AA80070082100CE000130F0007008CD00CC0184
:102AB800CB01D201F4017435653E860087010030F0
:102AC800C03FC13F7435BF3E860087010030C03F1C
:102AD800C13F7408C73E8600870181017408C53E5E
:102AE8008600870181010130F0007008F407023088
:102AF8007402031C802D812D5F2D28302000E500F5
:102B08000030E60016303D00980000302000A30099
:102B18004030A2000830A1000430F0007008A00086
:102B2800A0172100D9010030BE000030BD000030E0
:102B3800BC000030BB00CA012000EE0108002000E4
:102B480040081F39013A0319AA2DAB2DAC2D472E89
:102B580044080319B02DB12DB22D472E0630410679
:102B6800031DB72DB82DED2DDA2D21005903031DB6
:102B7800BE2DBF2DED2D9030B6009830B70009302E
:102B8800B9000030BA00C030F0007008B800ED2D70
:102B980000302100B6009830B7004A30B900003044
:102BA800BA00C030F0007008B800ED2D4308F000FE
:102BB800F1017108003A0319E22DED2D7008213A50
:102BC8000319B92D033A0319CC2D013A0319ED2D38
:102BD800ED2D2000400E890C0339013A0319F52D1B
:102BE800F62D2B2E472ED7302100B6000030B70027
:102BF8000130B9000030BA00C130F0007008B800E8
:102C0800472E8030F00070082100B80020004308EB
:102C1800F00070082100D700472ED6302100B600FA
:102C28000030B7000130B9000030BA008130F00040
:102C38007008B800472E8030F00070082100B800F6
:102C480020004208F00070082100D600472E4108F5
:102C5800F000F1017108003A0319332E472E70086D
:102C6800013A0319472E033A0319F72D013A0319BC
:102C7800112E0A3A0319472E033A0319052E013A71
:102C880003191F2E472E080020006D0886008701B3
:102C9800413FF5007508F200F30173082100330283
:102CA800031D582E7208320203185B2E5C2E602E0C
:102CB8003208F2007208F5007508F200F301720894
:102CC800B2027308B33BF4017C2E7408483E8600B8
:102CD80087010108F2002F08860087017208810029
:102CE8000130F2007208AF070130F2007208F407F1
:102CF80075087402031C812E822E692E3208330453
:102D08000319872E882EC12E20006908013EF20083
:102D180000306A3DF30072088600730887000830A7
:102D280081004830F2000030F300690886006A0824
:102D3800870042317208C03F7308C13F6D088600A2
:102D48008701011BA82EA92EB52E690886006A08DE
:102D5800870048308100690886006A088700811763
:102D6800F12E690886006A08870008308100690822
:102D780086006A0887008117F12E20006908013E45
:102D8800F20000306A3DF30072088600730887007D
:102D9800083081004030F2000030F30069088600F6
:102DA8006A08870042317208C03F7308C13F69084A
:102DB80086006A08870004308100690886006A086E
:102DC800870081172100B11320006B08031DED2E29
:102DD800EE2EF12E9031CC209631080022008E156F
:102DE8000E162100C9150830890BF82E20000D0E8B
:102DF800890C890C0139F3000D0D0D0D0139F40012
:102E08000130F435890B052F0D0E890C0139F500B9
:102E18000230F535890B0D2F0D0E0139F600023001
:102E2800F635FF3E031D142F7635750474047304BC
:102E3800F7000330F735FF3E031D1E2F7735F800E6
:102E48007808FB0022008E110830890B292F2000FA
:102E58000D0E890C890C0139F3000D0D0D0D01398A
:102E6800F4000130F435890B362F0D0E890C013929
:102E7800F5000230F535890B3E2F0D0E0139F600AD
:102E88000230F635FF3E031D452F76357504740470
:102E980073040F397B04F7007708FB007B08F30005
:102EA80073082100A7000130F9000030FA00220061
:102EB8000E122100C911490CF300F30C730C0139EF
:102EC8009C31C0249631013A03196B2F6C2F722F55
:102ED8007908A73E860087018101F62F0830890B03
:102EE800732F20000D0E890C890C0139F3000D0D8C
:102EF8000D0D0139F4000130F435890B802F0D0ECA
:102F0800890C0139F5000230F535890B882F0D0E33
:102F18000139F6000230F635FF3E031D8F2F763556
:102F2800750474047304F7000330F735FF3E031D7E
:102F3800992F7735F8007808FB0022000E1621003B
:102F4800C915490CF300F30C730C01399C31C024EA
:102F58009631013A0319B12FB22FB32F6C2F0830D5
:102F6800890BB42F20000D0E890C890C0139F30050
:102F78000D0D0D0D0139F4000130F435890BC12F09
:102F88000D0E890C0139F5000230F535890BC92F72
:102F98000D0E0139F6000230F635FF3E031DD02F25
:102FA80076357504740473040F397B04F7007708C9
:102FB800FB007B08F3007908A73E860087017308A9
:102FC80081000130F9070030FA3D7A08803AF300B1
:102FD80080307302031DF22F08307902031CF52F8D
:102FE800F62F5B2F1030890BF72F22008E150E1647
:102FF8001030890BFD2F08000534013409340534DD
:10300800A134013415340034253401343534003406
:10301800453401347534013495340E34053409349B
:103028001934013429340E3481340234953402348D
:1030380081340134053401342534073446343B34B3
:103048000134753404349534013465341434093446
:103058003934813442346534003495340134813450
:1030680001342634FF3400344634FF340034093444
:103078003034093431340934323409343534753450
:1030880008349534043481340234C034343403347D
:103098004D340034693400346334003472340034FD
:1030A8006F340034633400346834003469340034D5
:1030B800703400342034003454340034653400341F
:1030C80063340034683400346E3400346F340034B0
:1030D8006C3400346F34003467340034793400348D
:1030E80020340034493400346E34003463340034FE
:1030F8002E340034093402342234003401340134CB
:103108000034C03432340934043400340034013417
:1031180003340034003400340934213411340134C8
:103128000034013422344A340034073405348134FD
:1031380003344034003401341A3403345334003433
:1031480053340034333400344434003420340034ED
:1031580047340034613400346D340034653400344D
:10316800703400346134003464340034123401346F
:10317800003402340034003400340834D8340434C1
:103188008634E63401340034013402340034013426
:10319800D23498344A349834A034983404340334FC
:0831A800093404347E3498342C
:10395600FC302100C9054911C91208002100C30124
:10396600C4011A30FD007D08F70001309D3137256E
:103976009C319C31AB249C310800F100F201D22C21
:103986000130F0007008F20765307202031CCC2C7F
:10399600CD2CCF2CFF30DB2C0430890BD02C200013
:1039A6000C0E01397106031DD92CDA2CC32C0130FB
:1039B600080001302100BB070030BC3D0030BD3D92
:1039C6000030BE3D5208031DE92CEA2CF72C0130CD
:1039D600F0007008CA074A08031DF22CF32CF72CD6
:1039E600FF30F0007008CA000800F200012DFC301C
:1039F60021009900903027009B00142D7208F000DA
:103A0600F1017108003A0319092D142D7008003AC6
:103A16000319FA2C013A0319142D033A0319142D2C
:103A2600142D08002100D20174302000D00000308F
:103A3600D1000030D2000030D3000030D400D500D1
:103A46009E315F269D313D008E101211302DFB30C8
:103A56002000D60056083D0090051019332D342D50
:103A66002A2D2100CA010800FC00771D3B2D3C2DA4
:103A7600412DF0017C089E319B269D31F71C442D7B
:103A8600452D4B2DF001F00A7C089E319B269D3179
:103A96007C08983EF800F9010E30F93D7808FA00E6
:103AA6007908FB007A0886007B0887007708810082
:103AB60008003D00181C602D612D822D20006D0828
:103AC6008600870180300106031D6A2D6B2D802D2F
:103AD600650886006608870084300106031D742D7C
:103AE600752D802D0C30F0006D088600870170085A
:103AF60081006D088600870181173D001810DF30B0
:103B0600F000700890050800F8007108F6007008CB
:103B1600F5007808F4007408F900A82D75088600E9
:103B2600760887000108F4007408F7000130F507ED
:103B36000030F63D7708F40079088600870174089E
:103B460081000130F4007408F9070130F2020030F8
:103B5600F33B720A031DB32D730A031DB32DB42D57
:103B6600912D0800203020006E020318BB2DBC2DBD
:103B7600BD2DEA2D3D008E1CC12DC22DC32DEA2D73
:103B86002100430844040319C92DCA2DD22D430828
:103B9600860044088700811BD12DD22DEA2DA03046
:103BA6008D3171259D31F001F00AA0302000D00042
:103BB6005008F1000730D1005108F200013092316F
:103BC600B6229D3171082100C4007008C3000800A8
:103BD600023020006C06031DF12DF22DF62D9631D4
:103BE60048269D31242EEC0121005008031DFC2D92
:103BF600FD2D232E20006908013EF60000306A3DA7
:103C0600F700760886007708870008308100403084
:103C1600F6000030F700690886006A08870042311E
:103C26007608C03F7708C13F690886006A088700A2
:103C36000C308100690886006A0887008117242EE7
:103C4600D001080000309C31F8249E319431FF24C5
:103C56009E31103021008C00F0308D0003308E0034
:103C66009513303024008C0070308D0023008C01B9
:103C76008D018E01073021009504951115129512BC
:103C860015178B170530200095008E31AC269E3116
:103C9600203020006E020318512E522E532E482E2D
:103CA6003D008E1C572E582E592E482E9D31B52577
:103CB6009E31482E8C310C2C722E01309C31F8240A
:103CC6009E319A2E02309C31F8249E319A2E9C31D8
:103CD600B1249E319A2E9531A3259E319A2E20002D
:103CE6005108003A03197B2E7F3A0319952E9A2E16
:103CF6005008013A03196A2E033A03199A2E013A1B
:103D060003196E2E063A03199A2E773A03199A2E3C
:103D1600013A03199A2E073A0319652E013A031937
:103D2600602E9A2E5008FF3A03199A2E9A2E0800F2
:103D3600F5002030F1007108F6007008F10001303E
:103D4600F135890BA32E7508F2000130F235FF3EDE
:103D5600031DA92E72357107F3000130F335FF3EBE
:103D6600031DB12E7335F4007408F6077608860035
:103D7600870181137008031DC12EC22ECB2E753507
:103D8600BF3E860087017608C03F0030C13FD32E74
:103D96007535653E860087017608C03F0030C13F15
:103DA60076088600870101137608043E860087019F
:103DB600011708002D302000E00060082100CF0028
:103DC60020006F08FD39031DE92EEA2E262F6F36D7
:103DD6003F39E0000130E035FF3E031DEE2E603531
:103DE600203EE1006108ED006D08E900FF39031D82
:103DF6000030EA0004306906E90000306A06EA008D
:103E06006D0886008701010C890C0F390D3A031DD8
:103E16000D2F0E2F222F6D08023E86008701403F90
:103E2600F000413FF1000830F2000030F30040306E
:103E36009D3187259E3190310A209E31322F9D314A
:103E4600EB259E31322FFD306F05E0000430600611
:103E5600031D2E2F2F2F322F913143219E31080023
:103E66002100CC01CB01023020006C06031D3C2F43
:103E76003D2F622F6908013EF30000306A3DF400D1
:103E86007308860074088700083081004830F30004
:103E96000030F400690886006A088700423173081A
:103EA600C03F7408C13F690886006A088700483029
:103EB6008100690886006A0887008117932F210010
:103EC6003A0820004702031D6C2F21003908200004
:103ED600460203186F2F702F772F47082100BA006C
:103EE600200046082100B900903155209F31483006
:103EF600F3000030F400200065088600660887009D
:103F060042317308C03F7408C13F650886006608E1
:103F1600870048308100650886006608870081179B
:103F260008002000C801C901DD2F2100B81753037E
:103F3600031D9E2F9F2FF12F2000C814F12F210063
:103F4600B817F12F2100B817200044080F39003A9E
:103F56000319AE2FAF2FF12FC41BB22FB32FBE2FD5
:103F660044080F390907BF3E86008701403FF2002B
:103F7600413FF300C82F44080F390907653E860004
:103F86008701403FF200413FF30072088600730844
:103F96008700811FCF2FD02FF12F7208860073085C
:103FA6008700011DD72FD82FF12F0130F0007008A0
:103FB600C800F12F40081F39F000F1017108003ADE
:103FC6000319E62FF12F7008003A0319982F013ACA
:103FD6000319A22F033A0319A52FF12F2100B81FA9
:103FE600F52FF62FFF2F4830B6000030B7003814F3
:0A3FF6000230F0007008B900080066
:020000040001F9
:04000E00A40FCF1F4D
:00000001FF
