:0618080000008C310C2CE5
:101810007E148C317E10090020008C310F2C653035
:101820008400003085000B30903101208C31A830CD
:101830008400003085003330903101208C317E10DF
:1018400020009B31102B2000D2005208073E86005A
:1018500087018101520A860087013F3081058E3160
:10186000D9268C31210029080F39023A031D392C61
:101870003A2C3D2C2000EB163F2C2000EB12EB1EE7
:10188000422C432CA62C03102100AA1D0314200077
:10189000520A860087018110031C4F2C811403100B
:1018A00021002A1D0314200052088600870101111F
:1018B000031C5B2C0115031021002A1C03142000BB
:1018C0005208860087018110031C672C81142000B8
:1018D0005208860087010110031021002B1F0314FA
:1018E00020005208860087018111031C782C811585
:1018F0002000520886008701811252088600870165
:10190000011203102100AA1C03142000520A8600B1
:1019100087010110031C8D2C011403102100AB1E44
:1019200003142000520A860087018112031C992C9F
:101930008116031021002B1E03142000520A86007A
:1019400087010112031CA52C0116072D031021008D
:10195000AA1D03142000520A860087018110031C6F
:10196000B22C8114031021002A1D031420005208F8
:10197000860087010111031CBE2C011503102100F4
:101980002A1C031420005208860087018110031CC2
:10199000CA2C811403102100AB1E0314200052082E
:1019A000860087010110031CD62C011403102100AE
:1019B0002B1F031420005208860087018111031C8D
:1019C000E22C811503102100AA1C031420005208E8
:1019D000860087018112031CEE2C81160310210062
:1019E0002B1E031420005208860087010112031CDD
:1019F000FA2C01162000520A860087010110520AB3
:101A0000860087018112520A860087010112200098
:101A1000520A860087010111520A8600870181114E
:101A20008030FC005208033E860087017C0881005C
:101A30008030FC005208043E860087017C0881004B
:101A40008030FC005208053E860087017C0881003A
:101A50008030FC005208063E860087017C08810029
:101A6000EB1E332D342D4D2D03102100AB1F03141D
:101A700020005208860087018113031C402D811726
:101A800003102100AB1D03142000520886008701BB
:101A90000113031C4C2D0117852DF03021002E025F
:101AA000031C532D542D5A2D200052088600870107
:101AB00081175F2D20005208860087018113F030C6
:101AC00021002F02031C652D662D6C2D200052086D
:101AD000860087010117712D2000520886008701BA
:101AE000011321002C08FC0020005208033E860050
:101AF00087017C08810021002D08FC00200052088D
:101B0000043E860087017C08810020006B1C892D23
:101B10008A2DD92D5208023E860087010108F0392E
:101B20000838810021002A1B962D972D9E2D20001C
:101B30005208053E860087018101B52DAA1BA12D03
:101B4000A22DAC2DFF30FC0020005208053E86007F
:101B500087017C088100B52D8030FC0020005208F0
:101B6000053E860087017C08810021002A1AB92DD4
:101B7000BA2DC12D20005208063E86008701810142
:101B8000512EAA1AC42DC52DCF2DFF30FC002000E8
:101B90005208063E860087017C088100512E803065
:101BA000FC0020005208063E860087017C08810068
:101BB000512E21002A1ADD2DDE2D022EAA1BE12D29
:101BC000E22DEC2D20005208023E8600870101081C
:101BD000F03901388100512E2A1BEF2DF02DFA2DFE
:101BE00020005208023E860087010108F0390738BC
:101BF0008100512E20005208023E86008701F030FD
:101C00008105512EAA1A052E062E2C2EAA1B092E4E
:101C10000A2E142E20005208023E86008701010879
:101C2000F03903388100512E2A1B172E182E222E30
:101C300020005208023E860087010108F03905386D
:101C40008100512E20005208023E860087010108C3
:101C5000F03904388100512EAA1B2F2E302E3A2E37
:101C600020005208023E860087010108F039023840
:101C70008100512E2A1B3D2E3E2E482E2000520858
:101C8000023E860087010108F03906388100512E96
:101C900020005208023E860087010108F03908380A
:101CA00081006B1F542E552E942E520886008701FA
:101CB000003001190130D000520886008701010C64
:101CC0000139FC00520886008701FC0DFC0D01085B
:101CD0007C06FB397C06810052088600870150088B
:101CE00001398110031D81145208860087010030DC
:101CF00081190130D000520886008701010801399E
:101D0000FC00520886008701FC0DFC0DFC0D01084B
:101D10007C06F7397C06810052088600870150084E
:101D200001390110031D0114EB1F972E982ED82E98
:101D30005208860087010030011B0130D100520893
:101D400086008701010E0139FC00520886008701D8
:101D5000FC0EFC0DFC0D01087C06BF397C068100E1
:101D6000520886008701510801390112031D01162E
:101D70005208860087010030811B0130D1005208D3
:101D800086008701010E890C0139FC00520886008B
:101D90008701FC0CFC0C01087C067F397C06810065
:101DA000520886008701510801398112031D8116EE
:101DB000080022008E150E162000EB150830890B46
:101DC000DF2E20000D0E890C890C0139F3000D0D5A
:101DD0000D0D0139F4000130F435890BEC2E0D0E98
:101DE000890C0139F5000230F535890BF42E0D0E02
:101DF0000139F6000230F635FF3E031DFB2E763525
:101E0000750474047304F7000330F735FF3E031DB7
:101E1000052F7735F8007808FB0022008E11083076
:101E2000890B102F20000D0E890C890C0139F3004D
:101E30000D0D0D0D0139F4000130F435890B1D2F06
:101E40000D0E890C0139F5000230F535890B252F6F
:101E50000D0E0139F6000230F635FF3E031D2C2F22
:101E600076357504740473040F397B04F700770822
:101E7000FB007B08F30073082100A8000130F90083
:101E80000030FA0022000E122000EB116B0CF30060
:101E9000F30C730C01399931C5218E31013A0319C4
:101EA000522F532F592F7908A83E860087018101B0
:101EB000DD2F0830890B5A2F20000D0E890C890C5C
:101EC0000139F3000D0D0D0D0139F4000130F43529
:101ED000890B672F0D0E890C0139F5000230F5359D
:101EE000890B6F2F0D0E0139F6000230F635FF3EDB
:101EF000031D762F7635750474047304F7000330E0
:101F0000F735FF3E031D802F7735F8007808FB007A
:101F100022000E162000EB156B0CF300F30C730C73
:101F200001399931C5218E31013A0319982F992F22
:101F30009A2F532F0830890B9B2F20000D0E890CF0
:101F4000890C0139F3000D0D0D0D0139F40001303C
:101F5000F435890BA82F0D0E890C0139F5000230DC
:101F6000F535890BB02F0D0E0139F6000230F6352C
:101F7000FF3E031DB72F76357504740473040F39C3
:101F80007B04F7007708FB007B08F3007908A83E84
:101F900086008701730881000130F9070030FA3D9F
:101FA0007A08803AF30080307302031DD92F08307D
:101FB0007902031CDC2FDD2F422F1030890BDE2F1E
:101FC00022008E150E161030890BE42F0800210018
:101FD000C401C5011A30FD007D08F70001309A31B7
:101FE00059228F318F31F6278F31080020006B1076
:0A1FF0006B11EB126B13EB130800EA
:10200200640080010131890B02280034F500203080
:10201200F1007108F6007008F1000130F135890B0A
:102022000F287508F2000130F235FF3E031D152816
:1020320072357107F3000130F335FF3E031D1D2891
:102042007335F4007408F607760886008701811359
:102052007008031D2D282E2837287535C03E8600AE
:1020620087017608C03F0030C13F3F287535653E85
:10207200860087017608C03F0030C13F760886009F
:10208200870101137608043E8600870101170800C4
:102092002000400E890C0339003A031951285228B6
:1020A2009728C2282100B91708302000DD005D08FA
:1020B200EE00C2289131C4219031C2289031C32050
:1020C2009031C228DA302100B7000030B80039144C
:1020D200BA01BA0AB917C2289E312D269031C228F8
:1020E2009631B2269031C2284408D93E2100B70069
:1020F2000030B80068282100B91720004208DD002E
:102102004408D93E860087015D088100C22802305A
:10211200D0000030D1000030D2000030D3000030B7
:10212200D400D5009B314A239031C2284108DD00FA
:10213200DE015E08003A03199F28C2285D08003AB2
:1021420003196D28013A03197128023A03197128FB
:10215200063A03195328033A03195B28013A031973
:1021620088280F3A03196328013A03195F28033AB2
:1021720003197528013A03197C28073A0319C22862
:10218200C22808002100B9170E302000D80099306B
:10219200D700D9015708860058088700810101300D
:1021A200D7070030D83D0130D6005608D907590864
:1021B2000319DC28DD28CB280030F000F1002030A4
:1021C200F2000030F30020309231E72290313D00DE
:1021D2000E172000DA015A08C83E860087018101E5
:1021E2005A08C63E8600870181010130D600560892
:1021F200DA0702305A02031CFF280029EC280030BB
:10220200F000F1000130F2000030F300D9309231D9
:10221200E72290313D000E1328302000E500003007
:10222200E6002030D6005608ED006D08E900FF39BF
:10223200031D0030EA004208D60056082100DA00E9
:102242005A08031D252926292C2910302000D600E2
:102252005608EE00412901302000D0000030D100A4
:10226200DA30D2000030D3000130D4000030D50083
:102272009B314A23903120302000D6005608EE00D0
:102282000800F700700803194729482951297735B2
:10229200653E86008701403FF800413FF900592919
:1022A2007735C03E86008701403FF800413FF90084
:1022B20078087904031D5E295F296229F001F10182
:1022C200C3297108F3000030F40078088600790809
:1022D200870042317308C03F7408C13F7808013E4D
:1022E200F3000030793DF40073088600740887001B
:1022F200720881004030F300780886007908870070
:1023020073088105780886007908870081157808A6
:10231200860079088700811770080319912992298C
:10232200A9297735653E86008701403FF300413F8A
:10233200F40004307306F50000307406F6007735B9
:10234200653E860087017508C03F7608C13FBF29F8
:102352007735C03E86008701403FF300413FF400DD
:1023620004307306F50000307406F6007735C03E7F
:10237200860087017508C03F7608C13F7908F100E1
:102382007808F0000800803020004006031DCA29AA
:10239200CB29482AC030F00070082100B900342A45
:1023A200B6302100B7009830B8001230BA000030C1
:1023B200BB00482A4208031DDF29E0290F2A4208F0
:1023C200F000F101F035F10DD23070078400983041
:1023D200713D8500003F2100B700013FB800380879
:1023E200F1003708F000023070078400710803180A
:1023F200710A85000008F2007208BA003808F1007C
:102402003708F00003307007840071080318710A5E
:1024120085000008F2007208BB00482A2100B901B9
:10242200482A033042020318172A182A0F2A4208A0
:10243200F000F101F035F10DC830700784009830DA
:10244200713D8500003F2100B700013FB800370809
:102452008400380885000008F000F1017008BA0015
:102462007108BB00482A20004308F000F1017108FE
:10247200003A03193D2A0F2A7008013A0319D1299B
:10248200033A0319DB29013A0319122A0F2A080019
:102492003D000E122100B91B4F2A502A952AB21F65
:1024A200532A542A642A0230F5007508D5004B08D5
:1024B200031D5C2A5D2A602A9D31CD2592312100BF
:1024C200CD01CE01E62A20006908013EF500003068
:1024D2006A3DF6007508860076088700083081009C
:1024E2004030F5000030F600690886006A0887006F
:1024F20042317508C03F7608C13F690886006A0804
:1025020087000C308100690886006A0887008117FD
:102512006508860066088700043081006508860029
:10252200660887008117E62A2000C01F992A9A2A86
:10253200B22A2100D501D50A4C08031DA12AA22ADC
:10254200A52A9D31CD2592312100CD01CE01200059
:102552006C08031DAD2AAE2AE62A9E3199269231D5
:10256200E62A0230F50075082100D500200069082E
:10257200013EF50000306A3DF600750886007608D7
:102582008700083081004030F5000030F60069080D
:1025920086006A08870042317508C03F7608C13F4D
:1025A200690886006A08870004308100690886008D
:1025B2006A08870081172100CD01CE0120006C0836
:1025C200031DE42AE52AE62AAE2A0800F800780864
:1025D200F4007408F90072087304031DF12AF22A48
:1025E200F32A8A2B7008F4007908860087017408A0
:1025F20081007008F40072087907F5007508FF3E43
:1026020086008701740881000030730203300319C9
:10261200720203180D2B0E2B0F2B8A2B7008F4005D
:10262200790A86008701740881007008F40079082D
:10263200023E86008701740881007008F400720867
:102642007907F5007508FE3E86008701740881004F
:102652007008F40072087907F5007508FD3E8600DF
:102662008701740881000030730207300319720277
:1026720003183C2B3D2B3E2B8A2B7008F400790863
:10268200033E86008701740881007008F400720816
:102692007907F5007508FC3E860087017408810001
:1026A200003073020930031972020318592B5A2B96
:1026B2005B2B8A2B7909F4007A09F500F40A0319D5
:1026C200F50A03307405F60000307505F700760848
:1026D200F4007408F9077608F2027708F33BFC303D
:1026E200F205FF30F305842B7008F40079088600A8
:1026F2008701740881000130F2020030F33B01309F
:10270200F4007408F90772087304031D892B8A2BDD
:10271200752B0800210012113D00930190019801D0
:102722000E30F2009930F100F30171088600720850
:10273200870081010130F1070030F23D0130F000E5
:102742007008F30773080319A72BA82B962B1630D2
:102752003D0091009F3097007B309200F401740895
:10276200F0000130F035FF3E031DB32B7035203EE3
:10277200860087010030C03F0030C13FC23FC33FE7
:102782000130F0007008F40708307402031CCA2BF1
:10279200CB2BB02B3D000E1796010E120E13F73005
:1027A200F000700890052100B901B201B301B40133
:1027B2003D009019DD2BDE2BD02B0130F00070088C
:1027C2002100CE000130F0007008CD00CC01CB0119
:1027D200D201F4017435653E860087010030C03FA6
:1027E200C13F7435C03E860087010030C03FC13F03
:1027F2007408C83E8600870181017408C63E8600BF
:10280200870181010130F0007008F4070230740280
:10281200031C0C2C0D2CEB2B28302000E500003083
:10282200E60016303D00980000302000A300403042
:10283200A2000830A1000430F0007008A000A01728
:102842002100DA010030BF000030BE000030BD00C0
:102852000030BC00CA012000EE0108002000400840
:102862001F39013A0319362C372C382CD32C440843
:1028720003193C2C3D2C3E2CD32C06304106031D63
:10288200432C442C792C662C21005A03031D4A2C1C
:102892004B2C792C8C30B7009830B8000930BA0034
:1028A2000030BB00C030F0007008B900792C003055
:1028B2002100B7009830B8005630BA000030BB0093
:1028C200C030F0007008B900792C4308F000F10123
:1028D2007108003A03196E2C792C7008213A0319F9
:1028E200452C033A0319582C013A0319792C792CF7
:1028F2002000400E890C0339013A0319812C822CE5
:10290200B72CD32CD8302100B7000030B8000130EA
:10291200BA000030BB00C130F0007008B900D32CFF
:102922008030F00070082100B90020004308F00058
:1029320070082100D800D32CD7302100B700003016
:10294200B8000130BA000030BB008130F0007008DE
:10295200B900D32C8030F00070082100B9002000AB
:102962004208F00070082100D700D32C4108F00083
:10297200F1017108003A0319BF2CD32C7008013AF7
:102982000319D32C033A0319832C013A03199D2C02
:102992000A3A0319D32C033A0319912C013A031969
:1029A200AB2CD32C080020006D0886008701413F24
:1029B200F5007508F200F301730821003402031DCB
:1029C200E42C720833020318E72CE82CEC2C3308B1
:1029D200F2007208F5007508F200F3017208B30202
:1029E2007308B43BF401082D7408483E8600870141
:1029F2000108F20030088600870172088100013068
:102A0200F2007208B0070130F2007208F40775088C
:102A12007402031C0D2D0E2DF52C330834040319FA
:102A2200132D142D4D2D20006908013EF2000030B7
:102A32006A3DF3007208860073088700083081003F
:102A42004830F2000030F300690886006A08870007
:102A520042317208C03F7308C13F6D08860087018A
:102A6200011B342D352D412D690886006A08870027
:102A720048308100690886006A08870081177D2D29
:102A8200690886006A0887000830810069088600A4
:102A92006A08870081177D2D20006908013EF20037
:102AA20000306A3DF3007208860073088700083020
:102AB20081004030F2000030F300690886006A08A5
:102AC200870042317208C03F7308C13F690886001F
:102AD2006A08870004308100690886006A08870056
:102AE20081172100B21320006C08031D792D7A2D65
:102AF2007D2D9E3199269431080020006E08031D19
:102B0200832D842D962D3D008E0192011630910069
:102B12009F3097007B3092008F2D8E158E1D922D47
:102B2200932D8E2D2000EE01EE0A6E03031D9A2DC9
:102B32009B2DA92D3D008E1A9F2DA02DA92D900110
:102B420092011214121602302000E2006208EE0016
:102B52003D00101DAD2DAE2DBB2D121DB12DB22D80
:102B6200BB2DFB302000E20062083D0090059A3147
:102B7200372295313D008E1CBF2DC02DC32D200064
:102B82001211B12E101CC62DC72DD82D121CCA2D04
:102B9200CB2DD82D93318B23953104302000E200C8
:102BA2006208EE00FE30E20062083D009005101E51
:102BB200DB2DDC2DE32D121EDF2DE02DE32D9A31CE
:102BC2001A2295313D00101FE72DE82D152E121FF8
:102BD200EB2DEC2DFC2D73302000D0000030D10005
:102BE2000030D2000030D3000130D4000030D500D4
:102BF2009B314A239531BF302000E20062083D003C
:102C020090059931E121953121004F0803190A2ECF
:102C12000B2E0D2E0130CF024F08031D112E122E46
:102C2200152E9E31992695313D00901E192E1A2E91
:102C3200212E921E1D2E1E2E212E9A317E2295317C
:102C42003D00901C252E262E3C2E921C292E2A2E2B
:102C52003C2EFF302000D0007F30D1000030D20067
:102C62000030D3000130D4000030D5009B314A231C
:102C720095313D009301043020006E020318422E6C
:102C8200432E452E1211B12E3D00921D492E4A2E81
:102C9200AF2E2000E4013D00901D502E512EAF2E8C
:102CA2000F082000E2006208EF006F0CE200E20C65
:102CB200620C0F39E30063082100D100F7302000D5
:102CC200E20062083D00900520006F19692E6A2E0D
:102CD2007B2E21005108C63E86008701010801397A
:102CE2002000E2000130E20601086206FE396206B7
:102CF20081008B2E21005108C83E86008701010801
:102D020001392000E2000130E20601086206FE39C4
:102D12006206810021005108031D902E912E952EEE
:102D22009C3113249531A42E72302000D000003043
:102D3200D1006F30D2000030D3000030D400D50073
:102D42009B314A23953101302000E2006208E407FA
:102D520004306402031CAE2EAF2E4C2E2000121142
:102D6200080020004203031DB72EB82ECE2E4008C5
:102D72001F39003A031DBE2EBF2ECE2E2100B917D9
:102D8200033020004106031DC72EC82ECC2E210081
:102D9200D301D30ACE2E2100D30120004208031D05
:102DA200D32ED42EFF2F40081F39023A031DDA2EEC
:102DB200DB2EFF2F44080F39003A0319E12EE22ED1
:102DC200FF2F44080F39D600023056020318EA2EAC
:102DD200EB2EFF2F20306E06031DF02EF12EFF2F5B
:102DE2002100B9172000C41BF72EF82E0C2F44081F
:102DF2000F390907C03E86008701403FDB00413F93
:102E0200DC0044080F39C63E860087010108D6005F
:102E12005608DA001F2F44080F390907653E86005D
:102E22008701403FDB00413FDC0044080F39C83EC8
:102E3200860087010108D6005608DA005A18222FA8
:102E4200232F2E2FFB30D600FF30D7005B0856050C
:102E5200DB005C085705DC00342F04305B04DB0028
:102E620000305C04DC00C41B372F382F432F44088A
:102E72000F390907C03E860087015B08C03F5C0826
:102E8200C13F4D2F44080F390907653E860087016F
:102E92005B08C03F5C08C13F03304106031D522F4F
:102EA200532F772F5B0886005C088700811F5A2FFB
:102EB2005B2F6C2FC41B5E2F5F2F662F44080F39C8
:102EC200C63E8600870181146C2F44080F39C83E24
:102ED2008600870181145B0886005C088700011563
:102EE2005B0886005C0887008117FF2F04305B06B1
:102EF200DB0000305C06DC005B0886005C088700B3
:102F0200811F842F852FA22F7F30D6005B08860079
:102F12005C088700560881055B0886005C0887000C
:102F220001170530D0000030D1005C08D3005B08E7
:102F3200D2000230D4000030D5009B314A239631B2
:102F4200A72F5B0886005C08870001170430200069
:102F52005B06DB0000305C06DC00DA18B12FB22F12
:102F6200BA2F5B0886005C088700811FB92FBA2F31
:102F7200E32FC41BBD2FBE2FC52F44080F39C63EF9
:102F8200860087018110CB2F44080F39C83E860086
:102F9200870181103B30D6005B0886005C08870001
:102FA200560881050530D0000030D1005C08D300FE
:102FB2005B08D2000230D4000030D5009B314A2396
:102FC2009631EB2F3B30D6005B0886005C08870009
:102FD20056088105200044080F39983ED600D701D3
:102FE2000E30D73D5608D8005708D900FE30D6001B
:102FF20058088600590887005608810508000534DC
:10300200013409340534A134013415340034253433
:103012000134353400344534013475340134953487
:10302200103405340934193401342934103481340C
:103032000234053401342534073446343B34013438
:103042007534043495340134653414340934393414
:10305200813442346534003495340134813401348E
:103062002634FF3400344634FF340034093430341B
:10307200093431340934323409343534753408347E
:10308200953404348134023406340034FF34093474
:10309200203495340134813402340A342134263404
:1030A2009534083491340234C03424340334503417
:1030B20000344F3400344B3400344B340034453444
:1030C20000344E34003420340034433400344F345E
:1030D20000344E34003454340034523400344F340B
:1030E20000344C3400344C3400344534003452340F
:1030F20000340934023422340034013401340034FF
:10310200C03432340934043400340034013403341A
:1031120000340034003409342134113401340034D1
:1031220001342234563400340734053481340334F4
:10313200403400340A341A340334483400344F34EF
:1031420000345234003449340034203400344334DF
:1031520000344F3400342E3400342C3400344C34D8
:103162000034543400344434003412340134003412
:10317200023400340034003408340D340F349234F5
:103182000034003401340134023403340134CE34C7
:1031920098349C34983456349834043403340934C3
:0631A20004347A34983475
:10338A00F100F201D7290130F0007008F207653028
:10339A007202031CD129D229D429FF30E029043032
:1033AA00890BD52920000C0E01397106031DDE296F
:1033BA00DF29C8290130080001302100BC0700308C
:1033CA00BD3D0030BE3D0030BF3D5208031DEE2911
:1033DA00EF29FC290130F0007008CA074A08031DCA
:1033EA00F729F829FC29FF30F0007008CA00080004
:1033FA00F200062AFC3021009900903027009B0039
:10340A00192A7208F000F1017108003A03190E2A0C
:10341A00192A7008003A0319FF29013A0319192ACF
:10342A00033A0319192A192A08003D001215EF3028
:10343A002000D60056083D0090058E142100D201C6
:10344A00D20ACA0175302000D0000030D100003005
:10345A00D2000030D3000030D400D5009B314A237B
:10346A009A3108002100D20174302000D0000030C7
:10347A00D1000030D2000030D3000030D400D50093
:10348A009B314A239A313D008E101211522AFB3089
:10349A002000D60056083D0090051019552A562AD4
:1034AA004C2A2100CA010800FC00771D5D2A5E2A09
:1034BA00632AF0017C08903107209A31F71C662AAA
:1034CA00672A6D2AF001F00A7C08903107209A31A8
:1034DA007C08983EF800F9010E30F93D7808FA00A8
:1034EA007908FB007A0886007B0887007708810044
:1034FA0008003D00181C822A832AA42A20006D088D
:10350A008600870180300106031D8C2A8D2AA22A93
:10351A00650886006608870084300106031D962A1E
:10352A00972AA22A0C30F0006D08860087017008DD
:10353A0081006D088600870181173D001810DF3071
:10354A00F000700890050800F8007108F60070088D
:10355A00F5007808F4007408F900CA2A750886008C
:10356A00760887000108F4007408F7000130F507AF
:10357A000030F63D7708F400790886008701740860
:10358A0081000130F4007408F9070130F2020030BA
:10359A00F33B720A031DD52A730A031DD52AD62ABC
:1035AA00B32A0800023021005506031DDD2ADE2A4F
:1035BA00E22A9431D4249A310F2BD5015008031DE5
:1035CA00E72AE82A0E2B20006908013EF60000309F
:1035DA006A3DF70076088600770887000830810080
:1035EA004030F6000030F700690886006A08870054
:1035FA0042317608C03F7708C13F690886006A08E9
:10360A0087000C308100690886006A0887008117E4
:10361A000F2BD001080000309931FD219B319331E5
:10362A008B239B31103021008C00F0308D00033049
:10363A008E009513303024008C0070308D002300EA
:10364A008C018D018E010730210095049511151208
:10365A00951215178B1705302000950095317E2598
:10366A009B31203020006E0203183C2B3D2B3E2B51
:10367A00332B3D008E1C422B432B442B332B9B3187
:10368A0086239B31332B8C310C2C5D2B01309931E5
:10369A00FD219B31852B02309931FD219B31852BF0
:1036AA008F31E7279B31852B94312F249B31852B32
:1036BA0020005108003A0319662B7F3A0319802B20
:1036CA00852B5008013A0319552B033A0319852B08
:1036DA00013A0319592B063A0319852B773A03192C
:1036EA00852B013A0319852B073A0319502B013A06
:1036FA0003194B2B852B5008FF3A0319852B852B71
:10370A000800203020006E0203188C2B8D2B8E2B84
:10371A00C72B3D008E1C922B932B942BC72B210079
:10372A004408450403199A2B9B2BA32B44088600B3
:10373A0045088700811BA22BA32BC72BA0308C31F5
:10374A0023249B31F001F00AA0302000D300530853
:10375A00F1000830D4005408F200013091314221BE
:10376A009B3171082100C5007008C4009C3169248E
:10377A009B319C31C2249B319D311B259B319D314C
:10378A0074259B3108002100D6012000EC0121009C
:10379A00CC01CB01D001D5017F302000DF006508C4
:1037AA008600660887005F08810504306506E50023
:1037BA0000306606E6007F30DF006508860066088E
:1037CA0087005F08810504306506E500003066065B
:1037DA00E6007F30DF00690886006A0887005F0814
:1037EA0081052100B901BA01BB01B201B301B401DB
:1037FA00903149209B3103302000D0000030D100A5
:10380A000030D2000030D3000030D400D5009B3104
:10381A004A239B31923149229B3108002D302000E6
:10382A00E00060082100CF0020006F08FD39031D69
:10383A001F2C202C5C2C6F363F39E0000130E0351C
:10384A00FF3E031D242C6035203EE1006108ED0097
:10385A006D08E900FF39031D0030EA0004306906EB
:10386A00E90000306A06EA006D0886008701010C4B
:10387A00890C0F390D3A031D432C442C582C6D0822
:10388A00023E86008701403FF000413FF1000830C8
:10389A00F2000030F30040309A31A9229C319B316A
:1038AA00C8239C31682C9A31D7229C31682CFD3070
:1038BA006F05E00004306006031D642C652C682C3B
:1038CA009F3186279C3108002100AA196D2C6E2C85
:1038DA00C12C2A1B712C722CC12C0B110530200013
:1038EA009500D001D101B82C0B1D7C2C7D2CB82C55
:1038FA008E31D9269C3101302000D0070030D13DCD
:10390A0000305102FA3003195002031C8D2C8E2C00
:10391A00B42C03106B1C03140318942C972C20004E
:10392A006B14992C20006B10D001D101AB2C023002
:10393A00FD003830FC00AD30890BA12CFC0BA12C0A
:10394A00FD0BA12C00008E31D9269C312100AA1929
:10395A00AF2CB02CB42C2A1FB32CB42C9C2C0B11DA
:10396A000530200095002100AA19BC2CBD2CC12CC1
:10397A002A1FC02CC12C792C08002100AA19C62C98
:10398A00C72C1A2DAA1BCA2CCB2C1A2D0B110530A9
:10399A0020009500D001D101112D0B1DD52CD62C5C
:1039AA00112D8E31D9269C3101302000D0070030EC
:1039BA00D13D00305102FA3003195002031CE62CA3
:1039CA00E72C0D2D03106B1D03140318ED2CF02C9E
:1039DA0020006B15F22C20006B11D001D101042DAF
:1039EA000230FD003830FC00AD30890BFA2CFC0B9C
:1039FA00FA2CFD0BFA2C00008E31D9269C312100BD
:103A0A00AA19082D092D0D2DAA1F0C2D0D2DF52CE7
:103A1A000B110530200095002100AA19152D162D2D
:103A2A001A2DAA1F192D1A2DD22C08002100AA1905
:103A3A001F2D202D732D2A1A232D242D732D0B11A2
:103A4A00053020009500D001D1016A2D0B1D2E2DC5
:103A5A002F2D6A2D8E31D9269D3101302000D007B5
:103A6A000030D13D00305102FA3003195002031CD4
:103A7A003F2D402D662D03106B1F03140318462D8E
:103A8A00492D20006B174B2D20006B13D001D1015B
:103A9A005D2D0230FD003830FC00AD30890B532D0E
:103AAA00FC0B532DFD0B532D00008E31D9269D3171
:103ABA002100AA19612D622D662D2A1E652D662DFB
:103ACA004E2D0B110530200095002100AA196E2DEC
:103ADA006F2D732D2A1E722D732D2B2D0800210098
:103AEA00AA19782D792DCC2DAA1A7C2D7D2DCC2DB5
:103AFA000B11053020009500D001D101C32D0B1DFB
:103B0A00872D882DC32D8E31D9269D310130200075
:103B1A00D0070030D13D00305102FA30031950026B
:103B2A00031C982D992DBF2D0310EB1F03140318A6
:103B3A009F2DA22D2000EB17A42D2000EB13D001FE
:103B4A00D101B62D0230FD003830FC00AD30890BB2
:103B5A00AC2DFC0BAC2DFD0BAC2D00008E31D92603
:103B6A009D312100AA19BA2DBB2DBF2DAA1EBE2D2B
:103B7A00BF2DA72D0B110530200095002100AA1991
:103B8A00C72DC82DCC2DAA1ECB2DCC2D842D0800D7
:103B9A002100CC01CB0102305506031DD52DD62DAF
:103BAA00FC2D20006908013EF30000306A3DF40054
:103BBA007308860074088700083081004830F300D3
:103BCA000030F400690886006A08870042317308E9
:103BDA00C03F7408C13F690886006A0887004830F8
:103BEA008100690886006A08870081172C2E3B0825
:103BFA0020004702031D052E21003A082000460234
:103C0A000318082E092E102E47082100BB00200099
:103C1A0046082100BA009F310F279D314830F30032
:103C2A000030F400200065088600660887004231EB
:103C3A007308C03F7408C13F65088600660887009C
:103C4A0048308100650886006608870081170800E9
:103C5A002000C801C901762E2100B9175303031D9C
:103C6A00372E382E8A2E2000C8148A2E2100B91722
:103C7A008A2E2100B917200044080F39003A031987
:103C8A00472E482E8A2EC41B4B2E4C2E572E4408E4
:103C9A000F390907C03E86008701403FF200413FC5
:103CAA00F300612E44080F390907653E8600870133
:103CBA00403FF200413FF300720886007308870014
:103CCA00811F682E692E8A2E720886007308870063
:103CDA00011D702E712E8A2E0130F0007008C80066
:103CEA008A2E40081F39F000F1017108003A0319C1
:103CFA007F2E8A2E7008003A0319312E013A0319D1
:103D0A003B2E033A03193E2E8A2E2100B91F8E2E0E
:103D1A008F2E982E4830B7000030B8003914023080
:103D2A00F0007008BA00080021004E08031D9E2EFC
:103D3A009F2E0E2F0130F0007008CE004D08031D93
:103D4A00A72EA82E0E2F0130F0007008CD000230E9
:103D5A005506031DB12EB22EC52E20006508860019
:103D6A006608870041318101650886006608870078
:103D7A0048308100650886006608870081170E2F83
:103D8A005503031DC92ECA2E0E2FD0010830F0008C
:103D9A0020006D0A86008701700881004030F0001B
:103DAA000030F1006D08023E860087017008C03FAE
:103DBA007108C13F0430F0006D0886008701700861
:103DCA0081006D088600870181172100D001D00A81
:103DDA0020006908013EF00000306A3DF1007008D9
:103DEA00860071088700083081004030F0000030FA
:103DFA00F100690886006A08870042317008C03FEE
:103E0A007108C13F690886006A088700803081000E
:103E1A000E2F08000830F0007008F2000030210070
:103E2A003B02083003193A0203181C2F1D2F322FA8
:103E3A003A08F0007008F2005608031D252F262FB5
:103E4A00292FD601D60A322F5603031D2D2F2E2FC6
:103E5A00322F0230F0007008D6007208F000F1012B
:103E6A007008BA027108BB3B20006508013EF000E9
:103E7A000030663DF10070088600710887007208FC
:103E8A0081004830F00070082100D40039184E2F04
:103E9A004F2F802F652F37088400380885000008C7
:103EAA00F000540886008701700881000130B707C6
:103EBA000030B83D0130F0007008D4070130F2023A
:103ECA007208031D692F6A2F502F852F3708840027
:103EDA00380885000008F000540886008701700839
:103EEA0081000130B7070030B83D0130F00070089A
:103EFA00D4070130F2027208031D842F852F6B2F1D
:103F0A000800200065088600660887000030011B4B
:103F1A000130F50004306506E50000306606E6006B
:103F2A0008306E06031D9A2F9B2FAF2F42087F3948
:103F3A003D00960016080319A32FA42FAA2F1030AC
:103F4A00F30073082000EE00AF2F0430F30073086B
:103F5A002000EE0021005503031DB42FB52FF92FC1
:103F6A004830F3000030F400200065088600660837
:103F7A00870042317308C03F7408C13F9F310F2741
:103F8A009F31023021005606031DCC2FCD2FDA2F88
:103F9A0020006508860066088700043081006508ED
:103FAA008600660887008117FF2F7508031DDE2F1C
:103FBA00DF2FEC2F2000650886006608870048304E
:103FCA00810065088600660887008117FF2F200098
:103FDA006508860066088700083081006508860043
:103FEA00660887008117FF2FB21FFC2FFD2FFE2FB7
:063FFA00B213D50108001E
:020000040001F9
:08000000FF3FFF3FFF3FFF3F00
:04000E00A40FCF1F4D
:00000001FF
