:0618080000008C310C2CE5
:101810007E148C317E10090020008C310F2C653035
:101820008400003085000B30903102208C31A830CC
:101830008400003085003330903102208C317E10DE
:1018400020009B31482B2000D2005208073E860022
:1018500087018101520A860087013F308105953159
:10186000BE258C31210029080F39023A031D392C7D
:101870003A2C3D2C2000EB163F2C2000EB126B1D68
:10188000422C432CA62C03102100AA1D0314200077
:10189000520A860087018110031C4F2C811403100B
:1018A00021002A1D0314200052088600870101111F
:1018B000031C5B2C0115031021002A1C03142000BB
:1018C0005208860087018110031C672C81142000B8
:1018D0005208860087010110031021002B1F0314FA
:1018E00020005208860087018111031C782C811585
:1018F0002000520886008701811252088600870165
:10190000011203102100AA1C03142000520A8600B1
:1019100087010110031C8D2C011403102100AB1E44
:1019200003142000520A860087018112031C992C9F
:101930008116031021002B1E03142000520A86007A
:1019400087010112031CA52C0116072D031021008D
:10195000AA1D03142000520A860087018110031C6F
:10196000B22C8114031021002A1D031420005208F8
:10197000860087010111031CBE2C011503102100F4
:101980002A1C031420005208860087018110031CC2
:10199000CA2C811403102100AB1E0314200052082E
:1019A000860087010110031CD62C011403102100AE
:1019B0002B1F031420005208860087018111031C8D
:1019C000E22C811503102100AA1C031420005208E8
:1019D000860087018112031CEE2C81160310210062
:1019E0002B1E031420005208860087010112031CDD
:1019F000FA2C01162000520A860087010110520AB3
:101A0000860087018112520A860087010112200098
:101A1000520A860087010111520A8600870181114E
:101A200021002A1A142D152D392DAA1B182D192D18
:101A3000232D20005208023E860087010108F0395C
:101A400001388100882D2A1B262D272D312D2000BD
:101A50005208023E860087010108F03907388100EC
:101A6000882D20005208023E86008701F030810553
:101A7000882DAA1A3C2D3D2D632DAA1B402D412DEA
:101A80004B2D20005208023E860087010108F039E4
:101A900003388100882D2A1B4E2D4F2D592D2000F3
:101AA0005208023E860087010108F039053881009E
:101AB000882D20005208023E860087010108F03977
:101AC00004388100882DAA1B662D672D712D2000FA
:101AD0005208023E860087010108F0390238810071
:101AE000882D2A1B742D752D7F2D20005208023E53
:101AF000860087010108F03906388100882D200012
:101B00005208023E860087010108F039083881003A
:101B10008030FC005208033E860087017C0881006B
:101B20008030FC005208043E860087017C0881005A
:101B30008030FC005208053E860087017C08810049
:101B40008030FC005208063E860087017C08810038
:101B5000EB1EAB2DAC2DC52D03102100AB1F0314C4
:101B600020005208860087018113031CB82D8117BD
:101B700003102100AB1D03142000520886008701CA
:101B80000113031CC42D0117162EF03021002E0264
:101B9000031CCB2DCC2DD22D2000520886008701AE
:101BA0008117D72D20005208860087018113F0305D
:101BB00021002F02031CDD2DDE2DE42D2000520814
:101BC000860087010117E92D200052088600870151
:101BD00001136B1CEC2DED2D022E21002C08FC00B6
:101BE00020005208053E860087017C088100210004
:101BF0002D08FC0020005208063E860087017C0864
:101C00008100162E21002C08FC0020005208033E03
:101C1000860087017C08810021002D08FC0020003F
:101C20005208043E860087017C08810020006B1F5B
:101C30001A2E1B2E5A2E52088600870100300119D9
:101C40000130D000520886008701010C0139FC00E8
:101C5000520886008701FC0DFC0D01087C06FB394B
:101C60007C068100520886008701500801398110E6
:101C7000031D81145208860087010030811901304C
:101C8000D00052088600870101080139FC00520883
:101C900086008701FC0DFC0DFC0D01087C06F73960
:101CA0007C06810052088600870150080139011026
:101CB000031D0114EB1F5D2E5E2E9E2E5208860022
:101CC00087010030011B0130D100520886008701D6
:101CD000010E0139FC00520886008701FC0EFC0D44
:101CE000FC0D01087C06BF397C0681005208860085
:101CF0008701510801390112031D0116520886009F
:101D000087010030811B0130D10052088600870115
:101D1000010E890C0139FC00520886008701FC0C79
:101D2000FC0C01087C067F397C0681005208860085
:101D30008701510801398112031D81160800200016
:101D40004203031DA42EA52EBB2E40081F39003AC6
:101D5000031DAB2EAC2EBB2E2100B9170330200083
:101D60004106031DB42EB52EB92E2100D301D30A8E
:101D7000BB2E2100D30120004208031DC02EC12E1E
:101D8000EC2F40081F39023A031DC72EC82EEC2F36
:101D900044080F39003A0319CE2ECF2EEC2F4408F9
:101DA0000F39D600023056020318D72ED82EEC2F4A
:101DB00020306E06031DDD2EDE2EEC2F2100B9171C
:101DC0002000C41BE42EE52EF92E44080F39090724
:101DD000C03E86008701403FDB00413FDC004408F5
:101DE0000F39C63E860087010108D6005608DA0082
:101DF0000C2F44080F390907653E86008701403FD4
:101E0000DB00413FDC0044080F39C83E86008701F3
:101E10000108D6005608DA005A180F2F102F1B2F72
:101E2000FB30D600FF30D7005B085605DB005C08AE
:101E30005705DC00212F04305B04DB0000305C041C
:101E4000DC00C41B242F252F302F44080F3909072D
:101E5000C03E860087015B08C03F5C08C13F3A2F47
:101E600044080F390907653E860087015B08C03FBB
:101E70005C08C13F03304106031D3F2F402F642FF4
:101E80005B0886005C088700811F472F482F592F69
:101E9000C41B4B2F4C2F532F44080F39C63E8600CE
:101EA00087018114592F44080F39C83E86008701E5
:101EB00081145B0886005C08870001155B088600BA
:101EC0005C0887008117EC2F04305B06DB000030D4
:101ED0005C06DC005B0886005C088700811F712FB0
:101EE000722F8F2F7F30D6005B0886005C0887003A
:101EF000560881055B0886005C08870001170530DD
:101F0000D0000030D1005C08D3005B08D200023062
:101F1000D4000030D5009B3182238E31942F5B0892
:101F200086005C0887000117043020005B06DB0098
:101F300000305C06DC00DA189E2F9F2FA72F5B086D
:101F400086005C088700811FA62FA72FD02FC41BF7
:101F5000AA2FAB2FB22F44080F39C63E8600870147
:101F60008110B82F44080F39C83E860087018110C0
:101F70003B30D6005B0886005C0887005608810568
:101F80000530D0000030D1005C08D3005B08D200DF
:101F90000230D4000030D5009B3182238E31D82FFF
:101FA0003B30D6005B0886005C0887005608810538
:101FB000200044080F39983ED600D7010E30D73D97
:101FC0005608D8005708D900FE30D60058088600B9
:101FD000590887005608810508002100C401C50181
:101FE0001A30FD007D08F70001309A3191228F31BF
:081FF000903108208F31080038
:10200400640080010131890B0328003420006B1027
:102014006B11EB126B13EB130800200065088600AC
:10202400660887000030011B0130F50004306506A6
:10203400E50000306606E60008306E06031D23281E
:102044002428382842087F393D00960016080319D1
:102054002C282D2833281030F30073082000EE00BC
:1020640038280430F30073082000EE0021005503E3
:10207400031D3D283E2882284830F3000030F40038
:102084002000650886006608870042317308C03F57
:102094007408C13F9F3189279031023021005606D0
:1020A400031D552856286328200065088600660805
:1020B4008700043081006508860066088700811760
:1020C40088287508031D6728682875282000650876
:1020D4008600660887004830810065088600660827
:1020E4008700811788282000650886006608870015
:1020F40008308100650886006608870081178828F3
:10210400B21F852886288728B213D501080020002D
:10211400400E890C0339003A031991289228D728D4
:1021240002292100B91708302000DD005D08EE0007
:1021340002299231042290310229913103219031F4
:102144000229DA302100B7000030B8003914BA018E
:10215400BA0AB91702299E31A726903102298E3175
:102164009F26903102294408D93E2100B70000304F
:10217400B800A8282100B91720004208DD0044084F
:10218400D93E860087015D08810002290230D00013
:102194000030D1000030D2000030D3000030D40031
:1021A400D5009B318223903102294108DD00DE01F4
:1021B4005E08003A0319DF2802295D08003A031972
:1021C400AD28013A0319B128023A0319B128063A95
:1021D40003199328033A03199B28013A0319C828C1
:1021E4000F3A0319A328013A03199F28033A031944
:1021F400B528013A0319BC28073A03190229022910
:1022040008002100B9170E302000D8009930D700FB
:10221400D901570886005808870081010130D70783
:102224000030D83D0130D6005608D90759080319A3
:102234001C291D290B290030F000F1002030F20088
:102244000030F30020309331272391313D000E17E5
:102254002000DA015A08C83E8600870181015A0825
:10226400C63E8600870181010130D6005608DA0790
:1022740002305A02031C3F2940292C290030F00067
:10228400F1000130F2000030F300D93093312723FC
:1022940091313D000E1328302000E5000030E600A7
:1022A4002030D6005608ED006D08E900FF39031D03
:1022B4000030EA004208D60056082100DA005A0825
:1022C400031D652966296C2910302000D6005608A4
:1022D400EE00812901302000D0000030D100DA3036
:1022E400D2000030D3000130D4000030D5009B313F
:1022F4008223913120302000D6005608EE000800D9
:10230400F700700803198729882991297735653ED4
:1023140086008701403FF800413FF900992977354D
:10232400C03E86008701403FF800413FF90078082D
:102334007904031D9E299F29A229F001F101032A92
:102344007108F3000030F4007808860079088700EB
:1023540042317308C03F7408C13F7808013EF3005E
:102364000030793DF4007308860074088700720811
:1023740081004030F30078088600790887007308EC
:102384008105780886007908870081157808860019
:1023940079088700811770080319D129D229E929FE
:1023A4007735653E86008701403FF300413FF400E6
:1023B40004307306F50000307406F6007735653E88
:1023C400860087017508C03F7608C13FFF2977352D
:1023D400C03E86008701403FF300413FF4000430D3
:1023E4007306F50000307406F6007735C03E8600AB
:1023F40087017508C03F7608C13F7908F100780865
:10240400F0000800803020004006031D0A2A0B2A31
:10241400882AC030F00070082100B900742AB63050
:102424002100B7009830B8001230BA000030BB0069
:10243400882A4208031D1F2A202A4F2A4208F00036
:10244400F101F035F10DD230700784009830713D00
:102454008500003F2100B700013FB8003808F100B3
:102464003708F00002307007840071080318710AFD
:1024740085000008F2007208BA003808F100370835
:10248400F00003307007840071080318710A850096
:102494000008F2007208BB00882A2100B901882ACA
:1024A400033042020318572A582A4F2A4208F000E0
:1024B400F101F035F10DC830700784009830713D9A
:1024C4008500003F2100B700013FB80037088400B1
:1024D400380885000008F000F1017008BA0071089E
:1024E400BB00882A20004308F000F1017108003A7B
:1024F40003197D2A4F2A7008013A0319112A033A55
:1025040003191B2A013A0319522A4F2A08003D00D5
:102514000E122100B91B8F2A902AD52AB21F932AA2
:10252400942AA42A0230F5007508D5004B08031D2F
:102534009C2A9D2AA02A9E31472692312100CD0152
:10254400CE01262B20006908013EF50000306A3DCB
:10255400F600750886007608870008308100403050
:10256400F5000030F600690886006A0887004231E9
:102574007508C03F7608C13F690886006A0887006D
:102584000C308100690886006A0887008117650895
:1025940086006608870004308100650886006608A6
:1025A40087008117262B2000C01FD92ADA2AF22A95
:1025B4002100D501D50A4C08031DE12AE22AE52AA7
:1025C4009E31472692312100CD01CE0120006C08B6
:1025D400031DED2AEE2A262B9F3113279231262B39
:1025E4000230F50075082100D50020006908013E7D
:1025F400F50000306A3DF60075088600760887000D
:10260400083081004030F5000030F600690886008B
:102614006A08870042317508C03F7608C13F6908DF
:1026240086006A08870004308100690886006A0809
:10263400870081172100CD01CE0120006C08031D05
:10264400242B252B262BEE2A0800F8007808F4000A
:102654007408F90072087304031D312B322B332BD9
:10266400CA2B7008F4007908860087017408810079
:102674007008F40072087907F5007508FF3E8600BB
:102684008701740881000030730203300319720259
:1026940003184D2B4E2B4F2BCA2B7008F400790ACC
:1026A40086008701740881007008F4007908023EEE
:1026B40086008701740881007008F40072087907A5
:1026C400F5007508FE3E86008701740881007008D5
:1026D400F40072087907F5007508FD3E860087014D
:1026E4007408810000307302073003197202031862
:1026F4007C2B7D2B7E2BCA2B7008F4007908033EBB
:1027040086008701740881007008F4007208790754
:10271400F5007508FC3E86008701740881000030CE
:1027240073020930031972020318992B9A2B9B2BFD
:10273400CA2B7909F4007A09F500F40A0319F50A99
:1027440003307405F60000307505F7007608F400D0
:102754007408F9077608F2027708F33BFC30F205B7
:10276400FF30F305C42B7008F40079088600870154
:10277400740881000130F2020030F33B0130F400B0
:102784007408F90772087304031DC92BCA2BB52BEF
:102794000800210012113D009301900198010E30B0
:1027A400F2009930F100F301710886007208870085
:1027B40081010130F1070030F23D0130F000700872
:1027C400F30773080319E72BE82BD62B16303D00CB
:1027D40091009F3097007B309200F4017408F00060
:1027E4000130F035FF3E031DF32B7035203E86008B
:1027F40087010030C03F0030C13FC23FC33F0130BA
:10280400F0007008F40708307402031C0A2C0B2C27
:10281400F02B3D000E1796010E120E13F730F00048
:10282400700890052100B901B201B301B4013D0063
:1028340090191D2C1E2C102C0130F0007008210062
:10284400CE000130F0007008CD00CC01CB01D201E4
:10285400F4017435653E860087010030C03FC13FF6
:102864007435C03E860087010030C03FC13F740804
:10287400C83E8600870181017408C63E8600870130
:1028840081010130F0007008F40702307402031C67
:102894004C2C4D2C2B2C28302000E5000030E60079
:1028A40016303D00980000302000A3004030A20004
:1028B4000830A1000430F0007008A000A017210027
:1028C400DA010030BF000030BE000030BD0000302F
:1028D400BC00CA012000EE010800200040081F3996
:1028E400013A0319762C772C782C132D44080319FC
:1028F4007C2C7D2C7E2C132D06304106031D832C4D
:10290400842CB92CA62C21005A03031D8A2C8B2C51
:10291400B92C8C30B7009830B8000930BA000030B8
:10292400BB00C030F0007008B900B92C00302100A1
:10293400B7009830B8005630BA000030BB00C03041
:10294400F0007008B900B92C4308F000F1017108D7
:10295400003A0319AE2CB92C7008213A0319852CBE
:10296400033A0319982C013A0319B92CB92C200005
:10297400400E890C0339013A0319C12CC22CF72CDF
:10298400132DD8302100B7000030B8000130BA0050
:102994000030BB00C130F0007008B900132D803046
:1029A400F00070082100B90020004308F00070080E
:1029B4002100D800132DD7302100B7000030B80013
:1029C4000130BA000030BB008130F0007008B9005B
:1029D400132D8030F00070082100B9002000420857
:1029E400F00070082100D700132D4108F000F10118
:1029F4007108003A0319FF2C132D7008013A0319CA
:102A0400132D033A0319C32C013A0319DD2C0A3A96
:102A14000319132D033A0319D12C013A0319EB2C92
:102A2400132D080020006D0886008701413FF50042
:102A34007508F200F301730821003402031D242DEC
:102A4400720833020318272D282D2C2D3308F20089
:102A54007208F5007508F200F3017208B3027308F6
:102A6400B43BF401482D7408483E860087010108F0
:102A7400F200300886008701720881000130F200FC
:102A84007208B0070130F2007208F4077508740286
:102A9400031C4D2D4E2D352D330834040319532DAD
:102AA400542D8D2D20006908013EF20000306A3D4E
:102AB400F3007208860073088700083081004830EC
:102AC400F2000030F300690886006A08870042318A
:102AD4007208C03F7308C13F6D0886008701011B5F
:102AE400742D752D812D690886006A088700483089
:102AF4008100690886006A0887008117BD2D69086E
:102B040086006A08870008308100690886006A0820
:102B140087008117BD2D20006908013EF2000030B6
:102B24006A3DF3007208860073088700083081004C
:102B34004030F2000030F300690886006A0887001C
:102B440042317208C03F7308C13F690886006A08B1
:102B5400870004308100690886006A0887008117AD
:102B64002100B21320006C08031DB92DBA2DBD2D10
:102B74009F3113279531080022008E150E16200070
:102B8400EB150830890BC42D20000D0E890C890C1F
:102B94000139F3000D0D0D0D0139F4000130F43548
:102BA400890BD12D0D0E890C0139F5000230F53554
:102BB400890BD92D0D0E0139F6000230F635FF3E92
:102BC400031DE02D7635750474047304F700033097
:102BD400F735FF3E031DEA2D7735F8007808FB0032
:102BE40022008E110830890BF52D20000D0E890C62
:102BF400890C0139F3000D0D0D0D0139F40001307C
:102C0400F435890B022E0D0E890C0139F5000230C2
:102C1400F535890B0A2E0D0E0139F6000230F63512
:102C2400FF3E031D112E76357504740473040F39A9
:102C34007B04F7007708FB007B08F300730821008E
:102C4400A8000130F9000030FA0022000E12200022
:102C5400EB116B0CF300F30C730C01399931FD216A
:102C64009531013A0319372E382E3E2E7908A83EA5
:102C7400860087018101C22E0830890B3F2E200077
:102C84000D0E890C890C0139F3000D0D0D0D013960
:102C9400F4000130F435890B4C2E0D0E890C0139EA
:102CA400F5000230F535890B542E0D0E0139F6006E
:102CB4000230F635FF3E031D5B2E76357504740431
:102CC4007304F7000330F735FF3E031D652E773597
:102CD400F8007808FB0022000E162000EB156B0CA0
:102CE400F300F30C730C01399931FD219531013A4C
:102CF40003197D2E7E2E7F2E382E0830890B802ED0
:102D040020000D0E890C890C0139F3000D0D0D0DF9
:102D14000139F4000130F435890B8D2E0D0E890C28
:102D24000139F5000230F535890B952E0D0E013968
:102D3400F6000230F635FF3E031D9C2E76357504F1
:102D4400740473040F397B04F7007708FB007B08D5
:102D5400F3007908A83E86008701730881000130DA
:102D6400F9070030FA3D7A08803AF30080307302A4
:102D7400031DBE2E08307902031CC12EC22E272E3D
:102D84001030890BC32E22008E150E161030890BBD
:102D9400C92E080020006E08031DD12ED22EE42E69
:102DA4003D008E019201163091009F3097007B30D8
:102DB4009200DD2E8E158E1DE02EE12EDC2E2000DD
:102DC400EE01EE0A6E03031DE82EE92EF72E3D00F8
:102DD4008E1AED2EEE2EF72E900192011214121679
:102DE40002302000E2006208EE003D00101DFB2EC0
:102DF400FC2E092F121DFF2E002F092FFB3020005F
:102E0400E20062083D0090059A316F2296313D0040
:102E14008E1C0D2F0E2F112F20001211FF2F101CAE
:102E2400142F152F262F121C182F192F262F9331EC
:102E3400CB23963104302000E2006208EE00FE301D
:102E4400E20062083D009005101E292F2A2F312F21
:102E5400121E2D2F2E2F312F9A31522296313D00E2
:102E6400101F352F362F632F121F392F3A2F4A2F59
:102E740073302000D0000030D1000030D200003088
:102E8400D3000130D4000030D5009B318223963129
:102E9400BF302000E20062083D0090059A311922FB
:102EA400963121004F080319582F592F5B2F0130F9
:102EB400CF024F08031D5F2F602F632F9F3113270D
:102EC40096313D00901E672F682F6F2F921E6B2F37
:102ED4006C2F6F2F9A31B62296313D00901C732FC0
:102EE400742F8A2F921C772F782F8A2FFF3020007F
:102EF400D0007F30D1000030D2000030D300013048
:102F0400D4000030D5009B31822396313D009301DB
:102F1400043020006E020318902F912F932F12116A
:102F2400FF2F3D00921D972F982FFD2F2000E401C5
:102F34003D00901D9E2F9F2FFD2F0F082000E200C3
:102F44006208EF006F0CE200E20C620C0F39E30040
:102F540063082100D100F7302000E20062083D0040
:102F6400900520006F19B72FB82FC92F21005108E1
:102F7400C63E86008701010801392000E2000130C5
:102F8400E20601086206FE3962068100D92F21009B
:102F94005108C83E86008701010801392000E2007B
:102FA4000130E20601086206FE3962068100210052
:102FB4005108031DDE2FDF2FE32F9C318D24963122
:102FC400F22F72302000D0000030D1006F30D200D8
:102FD4000030D3000030D400D5009B3182239631D9
:102FE40001302000E2006208E40704306402031C9C
:102FF400FC2FFD2F9A2F20001211080005340134F4
:1030040009340534A1340134153400342534013431
:103014003534003445340134753401349534103476
:103024000534093419340134293410348134023418
:10303400053401342534073446343B3401347534C3
:103044000434953401346534143409343934813406
:1030540042346534003495340134813401342634E7
:10306400FF3400344634FF34003409343034093436
:1030740031340934323409343534753408349534F0
:1030840004348134023406340034FF3409342034E7
:1030940095340134813402340A342134263495348D
:1030A400083491340234C0342434033450340034AA
:1030B4004F3400344B3400344B3400344534003442
:1030C4004E34003420340034433400344F3400345C
:1030D4004E34003454340034523400344F34003409
:1030E4004C3400344C34003445340034523400340D
:1030F4000934023422340034013401340034C0343D
:1031040032340934043400340034013403340034D8
:1031140000340034093421341134013400340134CE
:1031240022345634003407340534813403344034B3
:1031340000340A341A340334483400344F3400342D
:1031440052340034493400342034003443340034DD
:103154004F3400342E3400342C3400344C340034D6
:10316400543400344434003412340134003402340E
:1031740000340034003408340D340F3492340034F5
:10318400003401340134023403340134CE3498342D
:103194009C34983456349834043403340934043455
:0431A4007A349834AD
:1033FA00F100F2010F2A0130F0007008F20765307F
:10340A007202031C092A0A2A0C2AFF30182A0430DD
:10341A00890B0D2A20000C0E01397106031D162A8C
:10342A00172A002A0130080001302100BC070030A9
:10343A00BD3D0030BE3D0030BF3D5208031D262A67
:10344A00272A342A0130F0007008CA074A08031DE7
:10345A002F2A302A342AFF30F0007008CA000800E8
:10346A00F2003E2AFC3021009900903027009B0090
:10347A00512A7208F000F1017108003A0319462A2C
:10348A00512A7008003A0319372A013A0319512AB6
:10349A00033A0319512A512A08003D001215EF3048
:1034AA002000D60056083D0090058E142100D20156
:1034BA00D20ACA0175302000D0000030D100003095
:1034CA00D2000030D3000030D400D5009B318223D3
:1034DA009A3108002100D20174302000D000003057
:1034EA00D1000030D2000030D3000030D400D50023
:1034FA009B3182239A313D008E1012118A2AFB30A9
:10350A002000D60056083D00900510198D2A8E2AF3
:10351A00842A2100CA010800FC00771D952A962AF0
:10352A009B2AF0017C089C3100249A31F71C9E2AC0
:10353A009F2AA52AF001F00A7C089C3100249A31BE
:10354A007C08983EF800F9010E30F93D7808FA0037
:10355A007908FB007A0886007B08870077088100D3
:10356A0008003D00181CBA2ABB2ADC2A20006D0874
:10357A008600870180300106031DC42AC52ADA2A7B
:10358A00650886006608870084300106031DCE2A76
:10359A00CF2ADA2A0C30F0006D08860087017008FD
:1035AA0081006D088600870181173D001810DF3001
:1035BA00F000700890050800F8007108F60070081D
:1035CA00F5007808F4007408F900022B75088600E3
:1035DA00760887000108F4007408F7000130F5073F
:1035EA000030F63D7708F4007908860087017408F0
:1035FA0081000130F4007408F9070130F20200304A
:10360A00F33B720A031D0D2B730A031D0D2B0E2BA0
:10361A00EB2A0800023021005506031D152B162B34
:10362A001A2B953114259B31472BD5015008031DC0
:10363A001F2B202B462B20006908013EF600003084
:10364A006A3DF7007608860077088700083081000F
:10365A004030F6000030F700690886006A088700E3
:10366A0042317608C03F7708C13F690886006A0878
:10367A0087000C308100690886006A088700811774
:10368A00472BD001080000309A3135229B31933103
:10369A00CB239B31103021008C00F0308D00033099
:1036AA008E009513303024008C0070308D0023007A
:1036BA008C018D018E010730210095049511151298
:1036CA00951215178B170530200095009631CC26D8
:1036DA009B31203020006E020318742B752B762B39
:1036EA006B2B3D008E1C7A2B7B2B7C2B6B2B9B31FF
:1036FA00BE239B316B2B8C310C2C952B01309A31CC
:10370A0035229B31BD2B02309A3135229B31BD2B9C
:10371A008F31ED279B31BD2B94316F249B31BD2B0B
:10372A0020005108003A03199E2B7F3A0319B82B3F
:10373A00BD2B5008013A03198D2B033A0319BD2BEF
:10374A00013A0319912B063A0319BD2B773A03194B
:10375A00BD2B013A0319BD2B073A0319882B013AED
:10376A000319832BBD2B5008FF3A0319BD2BBD2B20
:10377A000800203020006E020318C42BC52BC62B6C
:10378A00FF2B3D008E1CCA2BCB2BCC2BFF2B2100F1
:10379A00440845040319D22BD32BDB2B440886009B
:1037AA0045088700811BDA2BDB2BFF2BA0308C31DD
:1037BA0023249B31F001F00AA0302000D3005308E3
:1037CA00F1000830D4005408F2000130913182210E
:1037DA009B3171082100C5007008C4009C31E324A4
:1037EA009B319D313C259B319D3195259B319D31E6
:1037FA00EE259B310800F5002030F1007108F60033
:10380A007008F1000130F135890B082C7508F200B7
:10381A000130F235FF3E031D0E2C72357107F3009D
:10382A000130F335FF3E031D162C7335F40074087E
:10383A00F60776088600870181137008031D262C77
:10384A00272C302C7535C03E860087017608C03F8C
:10385A000030C13F382C7535653E860087017608F1
:10386A00C03F0030C13F7608860087010113760801
:10387A00043E86008701011708002100D6012000B6
:10388A00EC012100CC01CB01D001D5017F30200011
:10389A00DF0065088600660887005F088105043036
:1038AA006506E50000306606E6007F30DF00650841
:1038BA008600660887005F08810504306506E50012
:1038CA0000306606E6007F30DF00690886006A0875
:1038DA0087005F0881052100B901BA01BB01B20165
:1038EA00B301B401903189209C3103302000D0000B
:1038FA000030D1000030D2000030D3000030D400B4
:10390A00D5009B3182239C31923189229C31080057
:10391A002D302000E00060082100CF0020006F0851
:10392A00FD39031D992C9A2CD62C6F363F39E000AD
:10393A000130E035FF3E031D9E2C6035203EE1003C
:10394A006108ED006D08E900FF39031D0030EA0047
:10395A0004306906E90000306A06EA006D0886004C
:10396A008701010C890C0F390D3A031DBD2CBE2CA1
:10397A00D22C6D08023E86008701403FF000413F8D
:10398A00F1000830F2000030F30040309A31E122B1
:10399A009C319C3142249C31E22C9B310F239C3177
:1039AA00E22CFD306F05E00004306006031DDE2CBA
:1039BA00DF2CE22C90310F209C3108002100AA193B
:1039CA00E72CE82C3B2D2A1BEB2CEC2C3B2D0B1166
:1039DA00053020009500D001D101322D0B1DF62CA7
:1039EA00F72C322D9531BE259C3101302000D007AD
:1039FA000030D13D00305102FA3003195002031C45
:103A0A00072D082D2E2D03106B1C031403180E2DE1
:103A1A00112D20006B14132D20006B10D001D10141
:103A2A00252D0230FD003830FC00AD30890B1B2DEE
:103A3A00FC0B1B2DFD0B1B2D00009531BE259C3167
:103A4A002100AA19292D2A2D2E2D2A1F2D2D2E2D82
:103A5A00162D0B110530200095002100AA19362DCC
:103A6A00372D3B2D2A1F3A2D3B2DF32C0800210020
:103A7A00AA19402D412D942DAA1B442D452D942D74
:103A8A000B11053020009500D001D1018B2D0B1DA3
:103A9A004F2D502D8B2D9531BE259D3101302000A3
:103AAA00D0070030D13D00305102FA3003195002DC
:103ABA00031C602D612D872D03106B1D0314031841
:103ACA00672D6A2D20006B156C2D20006B11D0011B
:103ADA00D1017E2D0230FD003830FC00AD30890B5B
:103AEA00742DFC0B742DFD0B742D00009531BE2531
:103AFA009D312100AA19822D832D872DAA1F862D7B
:103B0A00872D6F2D0B110530200095002100AA1971
:103B1A008F2D902D942DAA1F932D942D4C2D080096
:103B2A002100AA19992D9A2DED2D2A1A9D2D9E2D27
:103B3A00ED2D0B11053020009500D001D101E42DA7
:103B4A000B1DA82DA92DE42D9531BE259D310130DF
:103B5A002000D0070030D13D00305102FA3003195D
:103B6A005002031CB92DBA2DE02D03106B1F03144C
:103B7A000318C02DC32D20006B17C52D20006B1311
:103B8A00D001D101D72D0230FD003830FC00AD3014
:103B9A00890BCD2DFC0BCD2DFD0BCD2D00009531C4
:103BAA00BE259D312100AA19DB2DDC2DE02D2A1E10
:103BBA00DF2DE02DC82D0B110530200095002100C6
:103BCA00AA19E82DE92DED2D2A1EEC2DED2DA52D96
:103BDA0008002100AA19F22DF32D462EAA1AF62D55
:103BEA00F72D462E0B11053020009500D001D1018A
:103BFA003D2E0B1D012E022E3D2E9531BE259D31E7
:103C0A0001302000D0070030D13D00305102FA3097
:103C1A0003195002031C122E132E392E0310EB1F08
:103C2A0003140318192E1C2E2000EB171E2E200039
:103C3A00EB13D001D101302E0230FD003830FC00E8
:103C4A00AD30890B262EFC0B262EFD0B262E0000EE
:103C5A009531BE259D312100AA19342E352E392ED3
:103C6A00AA1E382E392E212E0B1105302000950060
:103C7A002100AA19412E422E462EAA1E452E462E54
:103C8A00FE2D08002100CC01CB0102305506031D90
:103C9A004F2E502E762E20006908013EF300003088
:103CAA006A3DF400730886007408870008308100B2
:103CBA004830F3000030F400690886006A0887007B
:103CCA0042317308C03F7408C13F690886006A0818
:103CDA00870048308100690886006A0887008117D2
:103CEA00A62E3B0820004702031D7F2E21003A081A
:103CFA00200046020318822E832E8A2E47082100AE
:103D0A00BB00200046082100BA009F3189279E3156
:103D1A004830F3000030F400200065088600660889
:103D2A00870042317308C03F7408C13F65088600A6
:103D3A0066088700483081006508860066088700A3
:103D4A00811708002000C801C901F02E2100B91707
:103D5A005303031DB12EB22E042F2000C814042FC2
:103D6A002100B917042F2100B917200044080F3980
:103D7A00003A0319C12EC22E042FC41BC52EC62E0B
:103D8A00D12E44080F390907C03E86008701403FFB
:103D9A00F200413FF300DB2E44080F390907653E64
:103DAA0086008701403FF200413FF3007208860017
:103DBA0073088700811FE22EE32E042F7208860003
:103DCA0073088700011DEA2EEB2E042F0130F00044
:103DDA007008C800042F40081F39F000F10171086B
:103DEA00003A0319F92E042F7008003A0319AB2E72
:103DFA00013A0319B52E033A0319B82E042F2100EC
:103E0A00B91F082F092F122F4830B7000030B80009
:103E1A0039140230F0007008BA00080021004E0878
:103E2A00031D182F192F882F0130F0007008CE00BB
:103E3A004D08031D212F222F882F0130F000700812
:103E4A00CD0002305506031D2B2F2C2F3F2F2000AB
:103E5A006508860066088700413181016508860089
:103E6A006608870048308100650886006608870072
:103E7A008117882F5503031D432F442F882FD00104
:103E8A000830F00020006D0A860087017008810062
:103E9A004030F0000030F1006D08023E86008701D4
:103EAA007008C03F7108C13F0430F0006D088600F9
:103EBA008701700881006D0886008701811721003B
:103ECA00D001D00A20006908013EF00000306A3DA6
:103EDA00F1007008860071088700083081004030C0
:103EEA00F0000030F100690886006A088700423154
:103EFA007008C03F7108C13F690886006A088700D8
:103F0A0080308100882F08000830F0007008F20025
:103F1A00003021003B02083003193A020318962F99
:103F2A00972FAC2F3A08F0007008F2005608031DCC
:103F3A009F2FA02FA32FD601D60AAC2F5603031DFD
:103F4A00A72FA82FAC2F0230F0007008D6007208F5
:103F5A00F000F1017008BA027108BB3B2000650845
:103F6A00013EF0000030663DF100700886007108DD
:103F7A008700720881004830F00070082100D400E0
:103F8A003918C82FC92FFA2FDF2F370884003808AD
:103F9A0085000008F0005408860087017008810037
:103FAA000130B7070030B83D0130F0007008D4077F
:103FBA000130F2027208031DE32FE42FCA2FFF2FEC
:103FCA0037088400380885000008F0005408860085
:103FDA008701700881000130B7070030B83D013011
:103FEA00F0007008D4070130F2027208031DFE2F98
:063FFA00FF2FE52F080077
:020000040001F9
:08000000FF3FFF3FFF3FFF3F00
:04000E00A40FCF1F4D
:00000001FF
