:041808008C310C2CE7
:101810007E148C317E10090020008C310F2C483052
:1018200084000030850015309A31AA228C31603056
:1018300084000130850010309A31AA228C31E030CA
:1018400084000130850010309A31AA228C3160303A
:1018500084000230850007309A31AA228C317E1034
:1018600020009C31882C2000E7009531D8258C3150
:10187000220061080F39023A031D3F2C402C432CF3
:101880002000D316452C2000D3126708023E8600A4
:10189000870103102200E21D03140112031C512CC6
:1018A000011620006708033E86008701031022000E
:1018B000621D03140112031C5E2C01162000670830
:1018C000033E8600870103102200621C031481126C
:1018D000031C6B2C811620006708023E86008701DE
:1018E00003102200E21C03140113031C782C0117BF
:1018F00020006708033E8600870103102200631F53
:1019000003140113031C852C011720006708033EF4
:101910008600870103102200E31E03148113031CB9
:10192000922C811720006708023E86008701031071
:101930002200631E03148113031C9F2C81172000B7
:101940006708033E8600870101116708023E860092
:10195000870181126708063E860087010030C03F7C
:10196000C13F6708083E860087010030C03FC13F85
:1019700067080B3E86008701810167080A3E8600E2
:101980008701810167080C3E860087018101670895
:101990000D3E8600870181012200E219D02CD12C56
:1019A000E42C631BD42CD52CE42CE31AD82CD92C92
:1019B000E42C631ADC2CDD2CE42C20006708033EA9
:1019C000860087010115E42C2200E219E82CE92C9D
:1019D000FC2C6219EC2CED2CFC2C6218F02CF12C58
:1019E000FC2CE218F42CF52CFC2C20006708023E9D
:1019F000860087018116FC2C2000531C002D012D30
:101A0000522D6708023E8600870101106708023EDA
:101A10008600870181106708023E86008701011158
:101A20006708023E8600870181112200621B192D82
:101A30001A2D222D200067080B3E8600870180307A
:101A40008100332DE21B252D262D332D2000670824
:101A50000B3E860087017F30810067080A3E8600C2
:101A60008701FF3081002200E21A372D382D402DEA
:101A7000200067080D3E8600870180308100852D9B
:101A8000621A432D442D852D200067080D3E8600E7
:101A900087017F30810067080C3E86008701FF3098
:101AA0008100852D6708023E860087010310220011
:101AB000621E03140110031C5E2D01142000670830
:101AC000023E8600870103102200E21E03148110EB
:101AD000031C6B2D811420006708023E86008701DD
:101AE00003102200621F03140111031C782D01153D
:101AF00020006708023E8600870103102200E21FD3
:101B000003148111031C852D81152000D31E892DFE
:101B10008A2DAF2D6708033E86008701031022003F
:101B2000E31D03140110031C962D01142000670807
:101B3000033E8600870103102200E31F0314811077
:101B4000031CA32D811420006708043E8600870132
:101B500081016708053E860087018101FC2D670829
:101B6000033E8600870101106708033E8600870157
:101B700081106708073E8600870122006408803EC6
:101B8000810020006708073E860087017F3001063C
:101B9000031DCB2DCC2DD22D6708063E8600870174
:101BA000FF3081006708093E860087012200650832
:101BB0009D317F258C31810020006708093E860019
:101BC00087017F300106031DE62DE72DED2D670807
:101BD000083E86008701FF3081006708043E8600CA
:101BE000870122006708810020006708053E860003
:101BF00087012200660881002000531F002E012E5D
:101C0000492E6708033E860087010030011A013023
:101C1000E4006708033E86008701010E890C013944
:101C2000FD006708033E86008701FD0E01087D0662
:101C3000EF397D0681006708033E8600870164084E
:101C400001398112031D81166708033E8600870152
:101C50000030011B0130E4006708033E8600870165
:101C6000010D010D0139FD006708033E8600870163
:101C7000FD0EFD0DFD0D01087D06BF397D068100BD
:101C80006708033E86008701640801398113031D3C
:101C90008117E501E601200065086707FD007D0862
:101CA0000E3E8600870181010130E5070030E63DE8
:101CB0006608803AFD0080307D02031D612E0630EB
:101CC0006502031C642E652E4B2E08002000420383
:101CD000031D6B2E6C2E802E40081F39003A031D09
:101CE000722E732E802ECA1703304106031D792EE3
:101CF0007A2E7E2E2200EE01EE0A802E2200EE01C8
:101D000020004208031D852E862EB32F40081F3960
:101D1000023A031D8C2E8D2EB32F44080F39003A42
:101D20000319932E942EB32F44080F39E300023089
:101D3000630203189C2E9D2EB32F20305906031DDD
:101D4000A22EA32EB32FCA17C41BA72EA82EBC2EBB
:101D500044080F390907E43E860001308700403F00
:101D6000E800413FE90044080F39EA3E86000130AF
:101D700087000108E700CE2E44080F3909074D3EC1
:101D800086008701403FE800413FE90044080F39E1
:101D9000EC3E8600013087000108E7006718D12E6D
:101DA000D22EDD2EFB30E300FF30E400680863052F
:101DB000E80069086405E900E32E04306804E800DF
:101DC00000306904E900C41BE62EE72EF32E440818
:101DD0000F390907E43E8600013087006808C03FDC
:101DE0006908C13FFD2E44080F3909074D3E8600A2
:101DF00087016808C03F6908C13F03304106031DE1
:101E0000022F032F292F6808860069088700811F89
:101E10000A2F0B2F1E2FC41B0E2F0F2F172F440816
:101E20000F39EA3E86000130870081141E2F4408D6
:101E30000F39EC3E86000130870081146808860067
:101E400069088700011568088600690887008117FE
:101E5000B32F04306806E80000306906E90068081E
:101E6000860069088700811F362F372F542F7F3057
:101E7000E300680886006908870063088105680830
:101E800086006908870001170530DD000030DE009C
:101E90006908E0006808DF000230E1000030E2007D
:101EA0009C31C2248E31592F68088600690887004A
:101EB0000117043020006806E80000306906E900D8
:101EC000E718632F642F6C2F680886006908870065
:101ED000811F6B2F6C2F972FC41B6F2F702F782FA4
:101EE00044080F39EA3E86000130870081107F2FB9
:101EF00044080F39EC3E86000130870081103B30EA
:101F0000E3006808860069088700630881050530DA
:101F1000DD000030DE006908E0006808DF00023004
:101F2000E1000030E2009C31C2248E319F2F3B3013
:101F3000E3006808860069088700630881052000BF
:101F400044080F39983EE300E4010E30E43D630895
:101F5000E5006408E600FE30E300650886006608D8
:101F600087006308810508002000D701D401220002
:101F7000E901E8012300EF012000D6017F30EC00E9
:101F80004D0886004E0887006C08810504304D0618
:101F9000CD0000304E06CE007F30EC004D088600AC
:101FA0004E0887006C08810504304D06CD000030D6
:101FB0004E06CE007F30EC005108860052088700A4
:101FC0006C088105CA01CB01CC012400E201E301C8
:101FD000E4019F3192278F3103302000DD00003073
:101FE000DE000030DF00E0000030E100E2009C3164
:0C1FF000C2248F319331D1238F310800BF
:102008002000DE01F71F09280A281128F609F70918
:10201800F60A0319F70ADE01DE0AF91F1428152843
:102028001E28F809F909F80A0319F90A0130FA0013
:102038007A08DE06DF01E00176087704031925280F
:1020480026285528DD01DD0A32280130F635F70D3E
:10205800890B2A280130FA007A08DD07F71F35288E
:10206800362829280130DF35E00D890B3728770815
:102078007902031D412876087802031C4428452864
:102088004A287608F8027708F93B5F140130F736DA
:10209800F60C890B4B280130DD02031D5428552806
:1020A80036285E08031959285A285F28DF09E009ED
:1020B800DF0A0319E00A6008F7005F08F600080065
:1020C8004030F200003020004C02403003194B022F
:1020D80003186F28702881284B08F2005708031D41
:1020E800762877287A28D701D70A81285703031D2D
:1020F8007E287F2881280230D7007208F000F1017D
:102108007008CB027108CC3B4D08013EF00000304E
:102118004E3DF10070088600710887007208810042
:10212800B0302200EF0020004A189B289C28CF28B6
:10213800B32822006F088600870120004808840021
:1021480049088500000881000130C8070030C93DF2
:102158000130F00070082200EF070130F202720827
:10216800031DB728B8289D28D42822006F088600A8
:10217800870120004808840049088500000881007C
:102188000130C8070030C93D0130F0007008220056
:10219800EF070130F2027208031DD328D428B928AA
:1021A80008002000CA170E30E4009930E300E5016A
:1021B800630886006408870081010130E307003066
:1021C800E43D0130FD007D08E50765080319ED28A9
:1021D800EE28DC280030F000F1002030F20000305A
:1021E800F30020309331412390313D000E17200039
:1021F800E6016608EC3E860001308700810166082A
:10220800EA3E86000130870081010130FD007D082B
:10221800E60702306602031C12291329FD28003044
:10222800F000F1000130F2000030F3005B30933130
:10223800412390313D000E1328302000CD0000309E
:10224800CE002030D8005808D100D2014208DC0066
:102258005C08031D3029312934291030D90046295A
:102268000130DD000030DE005C30DF000030E000CF
:102278000130E1000030E2009C31C224903120306E
:102288002000D900080020004D0886004E0887006D
:102298000030011B0130F70004304D06CD0000303E
:1022A8004E06CE0008305906031D5B295C296C29AF
:1022B80042087F393D0096001608031964296529EC
:1022C800692910302000D9006C2904302000D90079
:1022D8005603031D70297129B729B030F300003067
:1022E800F400FF307305F5007F307405F6004D08E3
:1022F80086004E08870042317508C03F7608C13F06
:10230800903164209131023020005706031D8D2939
:102318008E299A294D0886004E08870004308100CE
:102328004D0886004E0887008117BF297708031DCE
:102338009E299F29AB294D0886004E088700483002
:1023480081004D0886004E0887008117BF294D0877
:1023580086004E088700083081004D0886004E0828
:1023680087008117BF292400E21FBB29BC29BD298A
:10237800E2132000D601080022006B08031DC529BE
:10238800C6293A2A0130EB006A08031DCC29CD2959
:102398003A2A0130EA00023020005606031DD529EA
:1023A800D629E8294D0886004E0887004131810169
:1023B8004D0886004E088700483081004D08860089
:1023C8004E08870081173A2A5603031DEC29ED2988
:1023D8003A2A2300EF012000580A8600870140307E
:1023E80081004030F0000030F100FF307005F2004D
:1023F8007F307105F3005808023E86008701720895
:10240800C03F7308C13F5808860087010430810027
:1024180058088600870181172300EF01EF0A200082
:102428005108013EF0000030523DF100700886006E
:1024380071088700403081004030F0000030F10022
:10244800FF307005F2007F307105F30051088600F7
:102458005208870042317208C03F7308C13F5108D3
:10246800860052088700803081003A2A08008030B0
:1024780020004006031D412A422AB52AC030CA005E
:10248800A22A9F30C8009830C9001230CB00003013
:10249800CC00B52A4208031D522A532A7E2A420834
:1024A800F000F101F035F10DE730700784001830C5
:1024B800713D80388500003FC800013FC9004908C8
:1024C800F1004808F0000230700784007108031812
:1024D800710A85000008CB004908F1004808F0009F
:1024E80003307007840071080318710A850000081A
:1024F800CC00B52ACA01B52A033042020318852A3E
:10250800862A7E2A4208F000F101F035F10DDB3011
:10251800700784001830713D80388500003FC8007E
:10252800013FC90048088400490885000008F000F8
:10253800F1017008CB007108CC00B52A4308F000FF
:10254800F1017108003A0319AA2A7E2A7008013A93
:102558000319452A033A03194E2A013A0319802A16
:102568007E2A0800F70070080319BB2ABC2AC52A6E
:1025780077354D3E86008701403FF800413FF9001E
:10258800CE2A7735E43E860001308700403FF800C8
:10259800413FF90078087904031DD32AD42AD72AA1
:1025A800F001F101402B7108F3000030F400FF3016
:1025B8007305F5007F307405F60078088600790801
:1025C800870042317508C03F7608C13F7808013E50
:1025D800F3000030793DF400730886007408870022
:1025E800720881004030F300780886007908870077
:1025F80073088105780886007908870081157808AE
:102608008600790887008117700803190C2B0D2B99
:10261800242B77354D3E86008701403FF300413F2C
:10262800F40004307306F50000307406F6007735C0
:102638004D3E860087017508C03F7608C13F3C2B98
:102648007735E43E860001308700403FF300413F84
:10265800F40004307306F50000307406F600773590
:10266800E43E8600013087007508C03F7608C13F08
:102678007908F1007808F0000800F8007808F900F7
:1026880072087304031D492B4A2B4B2BD02B790856
:10269800860087017008810072087907F4007408C1
:1026A800FF3E860087017008810000307302033006
:1026B800031972020318612B622B632BD02B790A42
:1026C80086008701700881007908023E860087012C
:1026D8007008810072087907F4007408FE3E8600CD
:1026E80087017008810072087907F4007408FD3EBC
:1026F80086008701700881000030730207300319D3
:1027080072020318882B892B8A2BD02B7908033E59
:10271800860087017008810072087907F400740840
:10272800FC3E860087017008810000307302093082
:10273800031972020318A12BA22BA32BD02B790902
:10274800F4007A09F500F40A0319F50A0330740550
:10275800F60000307505F7007608F4007408F907EC
:102768007608F2027708F33BFC30F205FF30F305F8
:10277800CA2B790886008701700881000130F202AF
:102788000030F33B0130F4007408F9077208730451
:10279800031DCF2BD02BBD2B08003D000E122000AF
:1027A800CA1BD72BD82B242C2400E21FDC2BDD2BB3
:1027B800ED2B02302000D60022006808031DE52B0F
:1027C800E62BE92B9E31C42693312200EA01EB0166
:1027D800762C20005108013EF7000030523DF800E9
:1027E8007708860078088700403081004030F7007D
:1027F8000030F800FF307705F9007F307805FA00DF
:10280800510886005208870042317908C03F7A088B
:10281800C13F51088600520887000C3081005108DA
:1028280086005208870081174D0886004E088700E9
:10283800043081004D0886004E0887008117762CE9
:10284800C01F272C282C402CD601D60A2200690844
:10285800031D2F2C302C332C9E31C426933122009B
:10286800EA01EB0120005408031D3B2C3C2C762C7C
:102878009131C0219331762C0230D6005108013EA7
:10288800F7000030523DF800770886007808870086
:10289800403081004030F7000030F800FF30770505
:1028A800F9007F307805FA00510886005208870041
:1028B80042317908C03F7A08C13F51088600520862
:1028C800870004308100510886005208870081176C
:1028D8002200EA01EB0120005408031D742C752C1A
:1028E800762C3C2C0800210012113D009301900128
:1028F80098010E30F5009930F400F601740886004E
:102908007508870081010130F4070030F53D01307A
:10291800F0007008F60776080319932C942C822C83
:1029280016303D0091009F3097007B309200F701F0
:102938007708F0000130F035FF3E031D9F2C7035FD
:10294800203E860087010030C03F0030C13FC23FB3
:10295800C33F0130F0007008F70708307702031C06
:10296800B62CB72C9C2C3D000E1796010E120E1398
:10297800F730F000700890052000CA012400E20139
:10298800E301E4013D009019CA2CCB2CBC2C01308A
:102998002200EB000130EA00E901E801ED01F7014E
:1029A80077354D3E860087010030C03FC13F7735FF
:1029B800E43E8600013087000030C03FC13F770801
:1029C800EC3E86000130870081017708EA3E8600E8
:1029D8000130870081010130F0007008F7070230EC
:1029E8007702031CF82CF92CD42C28302000CD00B9
:1029F8000030CE0016303D0098004030F000003026
:102A0800F100FF307005F2007F307105F3007208A5
:102A18002000A2007308A3004030A1000430A000E9
:102A2800A017DC0100302300E3000030E200003092
:102A3800E1000030E000EE012000D901080020008C
:102A4800580886008701413FF9007908F400F5012C
:102A5800750824006402031D332D740863020318EB
:102A6800362D372D392D6308F9007908F400F50162
:102A78007408E3027508E43BF801562D7808B03E67
:102A8800860087010108F400600886006108870055
:102A9800740881000130E0070030E13D0130F400A6
:102AA8007408F80779087802031C5B2D5C2D422D09
:102AB800630864040319612D622DA12D20005108BB
:102AC800013EF4000030523DF50074088600750898
:102AD800870040308100B030F4000030F500FF304E
:102AE8007405F6007F307505F70051088600520816
:102AF800870042317608C03F7708C13F58088600F2
:102B08008701011B882D892D952D510886005208B3
:102B180087004830810051088600520887008117D5
:102B2800D72D5108860052088700083081005108C7
:102B38008600520887008117D72D20005108013ED2
:102B4800F4000030523DF5007408860075088700CF
:102B5800403081004030F4000030F500FF3074054B
:102B6800F6007F307505F700510886005208870087
:102B780042317608C03F7708C13F510886005208A5
:102B880087000430810051088600520887008117A9
:102B98002400E21320005408031DD32DD42DD72D73
:102BA8009131C0219531080022008E150E162000A3
:102BB800D3150830890BDE2D20000D0E890C890CE9
:102BC8000139F3000D0D0D0D0139F4000130F43514
:102BD800890BEB2D0D0E890C0139F5000230F53506
:102BE800890BF32D0D0E0139F6000230F635FF3E44
:102BF800031DFA2D7635750474047304F700033049
:102C0800F735FF3E031D042E7735FA0022008E119A
:102C18000830890B0D2E20000D0E890C890C013906
:102C2800F3000D0D0D0D0139F4000130F435890B59
:102C38001A2E0D0E890C0139F5000230F535890B75
:102C4800222E0D0E0139F6000230F635FF3E031D27
:102C5800292E76357504740473040F397A04FA0042
:102C68007A082200E0000130F8000030F900220064
:102C78000E122000D311530CF300F30C730C01391E
:102C88009A31CB229531013A03194B2E4C2E532EF3
:102C98007808603E8600013087008101D22E083016
:102CA800890B542E20000D0E890C890C0139F30074
:102CB8000D0D0D0D0139F4000130F435890B612E2D
:102CC8000D0E890C0139F5000230F535890B692E96
:102CD8000D0E0139F6000230F635FF3E031D702E49
:102CE8007635750474047304F7000330F735FF3E36
:102CF800031D7A2E7735FA0022000E162000D31510
:102D0800530CF300F30C730C01399A31CB22953133
:102D1800013A0319902E912E922E4C2E0830890BD1
:102D2800932E20000D0E890C890C0139F3000D0D2E
:102D38000D0D0139F4000130F435890BA02E0D0E6C
:102D4800890C0139F5000230F535890BA82E0D0ED6
:102D58000139F6000230F635FF3E031DAF2E7635F9
:102D68007504740473040F397A04FA007808603E15
:102D78008600013087007A0881000130F8070030AA
:102D8800F93D7908803AF30080307302031DCE2E96
:102D980008307802031CD12ED22E3B2E1030890B1E
:102DA800D32E22008E150E161030890BD92E08004E
:102DB80020005908031DE12EE22EF42E3D008E015D
:102DC8009201163091009F3097007B309200ED2ED3
:102DD8008E158E1DF02EF12EEC2E2000D901D90A69
:102DE8005903031DF82EF92E052F3D008E1AFD2ECE
:102DF800FE2E052F900192011214121602302000A7
:102E0800D9003D00101D092F0A2F172F121D0D2F55
:102E18000E2F172FFB302000EE006E083D009005A6
:102E28009B313F2396313D008E1C1B2F1C2F1F2FDB
:102E380020001211FF2F101C222F232F322F121CBB
:102E4800262F272F322F94317724963104302000F3
:102E5800D900FE30EE006E083D009005101E352F9B
:102E6800362F3D2F121E392F3A2F3D2F9A31B0227F
:102E780096313D00101F412F422F6E2F121F452FF4
:102E8800462F552F73302000DD000030DE00003063
:102E9800DF00E0000130E1000030E2009C31C22494
:102EA8009631BF302000EE006E083D0090059A3143
:102EB800E722963122006C080319632F642F662FCE
:102EC8000130EC026C08031D6A2F6B2F6E2F9131B5
:102ED800C02196313D00901E722F732F7A2F921EBB
:102EE800762F772F7A2F9B31F72396313D00901C50
:102EF8007E2F7F2F942F921C822F832F942FFF30A9
:102F08002000DD007F30DE000030DF00E00001300F
:102F1800E1000030E2009C31C22496313D0093016B
:102F280004302000590203189A2F9B2F9D2F12114D
:102F3800FF2F3D00921DA12FA22FFD2F2000EF0192
:102F48003D00901DA82FA92FFD2F0F082000DA00A3
:102F58005A0CEE00EE0C6E0C0F39D500F730EE006F
:102F68006E083D00900520005A19BB2FBC2FCC2FAE
:102F78005508EA3E86000130870001080139EE0055
:102F88000130EE0601086E06FE396E068100DB2F61
:102F98005508EC3E86000130870001080139EE0033
:102FA8000130EE0601086E06FE396E0681005508EE
:102FB800031DDF2FE02FE42F9D31C4259631F22F1A
:102FC8007230DD000030DE005A30DF000030E000F3
:102FD8000030E100E2009C31C2249631013020002B
:102FE800EE006E08EF0704306F02031CFC2FFD2F64
:102FF800A42F200012110800093402348B34003445
:10300800043401340034A034FA340934043400346C
:1030180000340234FF345D34013400341134213477
:103028001034013401342534813414340334033426
:1030380003340434133402340834033403340734B7
:10304800053481340334203400340434073405341F
:10305800023403342034003408340934043401348D
:1030680000340234FF345D34033400341B3421341B
:1030780000340134013401348334403401340434DD
:1030880020341634853400340034003400340034DD
:10309800003416340534003400340034003400346D
:1030A80000340734053483340334203400340234C4
:1030B8000734053404340334203400340434093428
:1030C8000434023400340134FF345D3402340034F3
:1030D800093421340034013401342234863407346D
:1030E8000034073405348634033420340034103473
:1030F80009340434033400340034FF34FD34133409
:1031080004340634413400340134013403340034C7
:103118001434FF34F734FF34FF34C034FF34C03480
:10312800FF34C034FF34C034FF340034003400347A
:103138000034003400341234013400340234FF34D3
:10314800FF34FF3440345E3404348E340234143493
:10315800013401340234033401340E340334583456
:1031680000342034003454340034453400345334AB
:103178000034543400340E340334583400342034CA
:103188000034543400344534003453340034543457
:1031980000340E34033458340034203400345434AA
:1031A8000034453400345334003454340034E334A8
:1031B8009834CD349834BF349834B13498340434C6
:0A31C8000334093404340034983451
:10355400640080010131890BAB2A00343D0012154F
:10356400EF30FD007D0890058E142200ED01ED0A78
:103574002300EE0175302000DD000030DE00003055
:10358400DF00E0000030E100E2009C31C2249A3107
:103594000800F100F201DD2A0130F0007008F207A2
:1035A40065307202031CD72AD82ADA2AFF30E62AA9
:1035B4000430890BDB2A20000C0E01397106031D2F
:1035C400E42AE52ACE2A0130080001302300E0076E
:1035D4000030E13D0030E23D0030E33D22006D0863
:1035E400031DF52AF62A022B0130F000700823008F
:1035F400EE076E08031DFF2A002B022BFF30EE009E
:103604000800F2000C2BFC302100990090302700B8
:103614009B001F2B7208F000F1017108003A031996
:10362400142B1F2B7008003A0319052B013A0319B8
:103634001F2B033A03191F2B1F2B0800F401F5015C
:10364400701C252B262B2A2B7208F4077308F53DD2
:103654000130F235F30D890B2B2B0130F136F00CD0
:10366400890B302B70087104031D392B3A2B222B44
:103674007508F1007408F00008002200ED017430B0
:103684002000DD000030DE000030DF00E00000300C
:10369400E100E2009C31C2249B313D008E101211E6
:1036A400572BFB30FD007D08900510195A2B5B2B1E
:1036B400532B2300EE010800FC00771D622B632BC3
:1036C400682BF0017C089D313E259B31F71C6B2B48
:1036D4006C2B722BF001F00A7C089D313E259B3146
:1036E4007C08983EF800F9010E30F93D7808FA009C
:1036F4007908FB007A0886007B0887007708810038
:103704000800F100200053105311D3125313F20197
:10371400F30172087107F0007008860087018101C7
:103724000130F2070030F33D7308803AF000803036
:103734007002031D9F2B15307202031CA22BA32BB6
:103744008B2B710A86008701143081000800A03099
:103754009B3183239B312300E801E9011E30F700EC
:1037640001309B315E239B311E30F70002309B31C8
:103774005E239B311E30F70003309B315E239B3167
:103784001E30F70004309B315E239B311E30F7005E
:1037940006309B315E239B310800F8007108F60067
:1037A4007008F5007808F900EA2B75088600760899
:1037B40087000108F7000130F5070030F63D79086D
:1037C40086008701770881000130F4007408F90746
:1037D4000130F2020030F33B720A031DF52B730A29
:1037E400031DF52BF62BD72B08003D00181CFB2BD3
:1037F400FC2B1B2C20005808860087018030010612
:10380400031D052C062C192C4D0886004E08870034
:1038140084300106031D0F2C102C192C5808860027
:1038240087010C30810058088600870181173D000C
:103834001810DF30F000700890050800FE302000FA
:103844004005F000C0307006031D292C2A2C502C92
:103854004103031D2E2C2F2C502C44084504031D1A
:10386400342C352C502C1430F1000030F200003090
:1038740047021430031946020318412C422C462CEB
:103884004708F2004608F1008B30C8009830C900A0
:103894007208CC007108CB00C030CA000800203088
:1038A400200059020318572C582C592C872C3D0002
:1038B4008E1C5D2C5E2C5F2C872C23006808690409
:1038C4000319652C662C6E2C68088600690887002D
:1038D400811B6D2C6E2C872CA0308C3133249C31B1
:1038E400F001F00AA030F1001430F20001309231FE
:1038F400B6229C3171082300E9007008E8009E316B
:1039040012269C319E316B269C31080000309B317D
:1039140003239C31943177249C31103021008C0096
:10392400F0308D0003308E009513303024008C006D
:1039340070308D0023008C018D018E010730210031
:10394400950495111512951215178B170530200043
:1039540095009631DC269C31203020005902031852
:10396400B42CB52CB62CAB2C3D008E1CBA2CBB2C25
:10397400BC2CAB2C9C3151249C31AB2C8C310C2CA9
:10398400D52C01309B3103239C31FD2C02309B311B
:1039940003239C31FD2C9B31A9239C31FD2C9C31AC
:1039A40020249C31FD2C20005E08003A0319DE2CF3
:1039B4007F3A0319F82CFD2C5D08013A0319CD2C2C
:1039C400033A0319FD2C013A0319D12C063A0319C1
:1039D400FD2C773A0319FD2C013A0319FD2C073A03
:1039E4000319C82C013A0319C32CFD2C5D08FF3AB6
:1039F4000319FD2CFD2C0800023020005606031D7F
:103A0400042D052D092D953123259C313D2DD601FD
:103A140023006F08031D0F2D102D3C2D200051088D
:103A2400013EFA000030523DFB007A0886007B0814
:103A34008700403081004030FA000030FB00FF3046
:103A44007A05FC007F307B05FD0051088600520892
:103A5400870042317C08C03F7D08C13F5108860081
:103A6400520887000C3081005108860052088700F4
:103A740081173D2DEF010800F5002030F600700895
:103A8400F1000130F135890B442D7508F200013045
:103A9400F235FF3E031D4A2D72357107F3000130E4
:103AA400F335FF3E031D522D7335F4007408F607F9
:103AB40076088600870181137008031D622D632D2B
:103AC4006D2D7535E43E8600013087007608C03FD1
:103AD4000030C13F752D75354D3E8600870176084F
:103AE400C03F0030C13F7608860087010113760885
:103AF400043E86008701011708002000E1008030A1
:103B0400FB0061087B02E200E301031CE303E31F03
:103B14008C2D8D2DA72D7F30F6000030F700630823
:103B2400FC006208FB000730FB35FC0D890B962D69
:103B34007B08F8007C08F900903104209D31770857
:103B44002000E3007608E200C22D8030F600003049
:103B5400F7006308F1006208F0007F30F2000030E3
:103B6400F3009B3120239D317108F9007008F8009F
:103B7400903104209D3177082000E3007608E200AC
:103B8400620808002D302200EC0020005A08FD399C
:103B9400031DCD2DCE2D052E5A363F39ED000130B3
:103BA400ED35FF3E031DD22D6D35203ED80058085B
:103BB400D100D20104305106D10000305206D200A7
:103BC400580886008701010C890C0F390D3A031D32
:103BD400EC2DED2D012E5808023E86008701403F52
:103BE400F000413FF1000830F2000030F3004030B3
:103BF4009B31CF239D318F31B4279D31112E9C31C0
:103C0400FE249D31112EFD305A05ED0004306D0661
:103C1400031D0D2E0E2E112E913147219D310800CA
:103C24002200E219162E172E6A2E621B1A2E1B2E44
:103C34006A2E0B11053020009500DD01DE01612E96
:103C44000B1D252E262E612E9531D8259E3101304F
:103C54002000DD070030DE3D00305E02FA3003193B
:103C64005D02031C362E372E5D2E0310531C0314E5
:103C740003183D2E402E20005314422E20005310D2
:103C8400DD01DE01542E0230FC003830FB00AD3083
:103C9400890B4A2EFB0B4A2EFC0B4A2E0000953151
:103CA400D8259E312200E219582E592E5D2E621F0E
:103CB4005C2E5D2E452E0B11053020009500220050
:103CC400E219652E662E6A2E621F692E6A2E222E36
:103CD40008002200E2196F2E702EC32E621A732E72
:103CE400742EC32E0B11053020009500DD01DE017A
:103CF400BA2E0B1D7E2E7F2EBA2E9531D8259E31DD
:103D040001302000DD070030DE3D00305E02FA3075
:103D140003195D02031C8F2E902EB62E0310531F21
:103D240003140318962E992E200053179B2E20005F
:103D34005313DD01DE01AD2E0230FC003830FB00F0
:103D4400AD30890BA32EFB0BA32EFC0BA32E00007E
:103D54009531D8259E312200E219B12EB22EB62E0D
:103D6400621EB52EB62E9E2E0B1105302000950036
:103D74002200E219BE2EBF2EC32E621EC22EC32EF7
:103D84007B2E08002200E901E801023020005606DB
:103D9400031DCD2ECE2EF92E5108013EF300003026
:103DA400523DF40073088600740887004030810097
:103DB400B030F3000030F400FF307305F5007F30BD
:103DC4007405F600510886005208870042317508D0
:103DD400C03F7608C13F510886005208870048302A
:103DE400810051088600520887008117292F4C084A
:103DF4004702031DFF2E4B0846020318022F032F10
:103E0400072F4708CC004608CB00903164209E3130
:103E1400B030F3000030F400FF307305F5007F305C
:103E24007405F60020004D0886004E0887004231D4
:103E34007508C03F7608C13F4D0886004E088700CC
:103E4400483081004D0886004E088700811708001D
:103E54002100B001B101702FCA1722006E03031DA7
:103E6400342F352F852F2100B014852FCA17852FA5
:103E7400CA1744080F39003A0319412F422F852FDE
:103E8400C41B452F462F522F44080F390907E43E1F
:103E9400860001308700403FF200413FF3005C2F71
:103EA40044080F3909074D3E86008701403FF20060
:103EB400413FF3007208860073088700811F632F57
:103EC400642F852F7208860073088700011D6B2FED
:103ED4006C2F852F01302100B000852F2000400871
:103EE4001F39F000F1017108003A03197A2F852F68
:103EF4007008003A03192E2F013A0319382F033A98
:103F040003193A2F852F2000CA1F892F8A2F912F3A
:103F1400B030C8000030C9004A140230CB00080099
:103F24002000400E890C0339003A03199A2F9B2F65
:103F3400D42FFF2FCA170830D900FF2F92313B220C
:103F44009F31FF2F9031D5209F31FF2F5C30C80067
:103F54000030C9004A14CB01CB0ACA17FF2F9F3186
:103F64002A279F31FF2F8E3166269F31FF2F440869
:103F74005B3EC800C901AC2FCA1744085B3E8600EB
:103F8400870142088100FF2F0230DD000030DE008F
:103F94000030DF00E0000030E100E2009C31C22488
:103FA4009F31FF2F4108EA00EB016B08003A031927
:103FB400DC2FFF2F6A08003A0319B12F013A0319C5
:103FC400B52F023A0319B52F063A03199C2F033A69
:103FD4000319A02F013A0319C62F0F3A0319A82F6A
:103FE400013A0319A42F033A0319B92F013A03190B
:0C3FF400BE2F073A0319FF2FFF2F080013
:020000040001F9
:08000000FF3FFF3FFF3FFF3F00
:04000E00A40FCF1F4D
:00000001FF
