:041808008C310C2CE7
:101810007E148C317E10090020008C310F2C483052
:1018200084000030850015308F31F8278C3160300E
:1018300084000130850010308F31F8278C31E03082
:101840008400013085000F308F31F8278C316030F3
:1018500084000230850008308F31F8278C317E10EB
:1018600020009D31A82D2000E6009531D8258C312F
:10187000240061080F39023A031D3F2C402C432CF1
:101880002000D316452C2000D3126608023E8600A5
:10189000870103102400E21D03140112031C512CC4
:1018A000011620006608033E86008701031024000D
:1018B000621D03140112031C5E2C01162000660831
:1018C000033E8600870103102400621C031481126A
:1018D000031C6B2C811620006608023E86008701DF
:1018E00003102400E21C03140113031C782C0117BD
:1018F00020006608033E8600870103102400631F52
:1019000003140113031C852C011720006608033EF5
:101910008600870103102400E31E03148113031CB7
:10192000922C811720006608023E86008701031072
:101930002400631E03148113031C9F2C81172000B5
:101940006608033E8600870101116608023E860094
:10195000870181126608063E860087010030C03F7D
:10196000C13F6608083E860087010030C03FC13F86
:1019700066080B3E86008701810166080A3E8600E4
:101980008701810166080C3E860087018101660897
:101990000D3E8600870181012400E219D02CD12C54
:1019A000E42C631BD42CD52CE42CE31AD82CD92C92
:1019B000E42C631ADC2CDD2CE42C20006608033EAA
:1019C000860087010115E42C2400E219E82CE92C9B
:1019D000FB2C6219EC2CED2CFB2C6218F02CF12C5A
:1019E000FB2CE218F42CF52CFB2C20006608023EA0
:1019F00086008701811620006608023E8600870166
:101A000003102400621E03140110031C082D01148E
:101A100020006608023E8600870103102400E21EB3
:101A200003148110031C152D811420006608023E4A
:101A30008600870103102400621F03140111031C98
:101A4000222D011520006608023E86008701031042
:101A50002400E21F03148111031C2F2D8115200087
:101A6000D31E332D342D592D6608033E8600870181
:101A700003102400E31D03140110031C402D011466
:101A800020006608033E8600870103102400E31F40
:101A900003148110031C4D2D811420006608043EA0
:101AA0008600870181016608053E86008701810165
:101AB000A62D6608033E8600870101106608033ED6
:101AC0008600870181106608073E86008701240092
:101AD0006408803E810020006608073E860087017A
:101AE0007F300106031D752D762D7C2D6608063E80
:101AF00086008701FF3081006608093E8600870165
:101B0000240065089E315E268C3181002000660825
:101B1000093E860087017F300106031D902D912D1F
:101B2000972D6608083E86008701FF308100660811
:101B3000043E8600870124006708810020006608B3
:101B4000053E860087012400660881002000E4012C
:101B5000E501200064086607FD007D080E3E860052
:101B6000870181010130E4070030E53D6508803AD6
:101B7000FD0080307D02031DBF2D06306402031C72
:101B8000C22DC32DA92D080020004203031DC92D1D
:101B9000CA2DDE2D40081F39003A031DD02DD12D4E
:101BA000DE2DCA1703304106031DD72DD82DDC2D9D
:101BB0002200EE01EE0ADE2D2200EE012000420896
:101BC000031DE32DE42D112F40081F39023A031D98
:101BD000EA2DEB2D112F44080F39003A0319F12D8E
:101BE000F22D112F44080F39E3000230630203186D
:101BF000FA2DFB2D112F20305906031D002E012E2A
:101C0000112FCA17C41B052E062E1A2E44080F3991
:101C10000907EB3E860001308700403FE800413F66
:101C2000E90044080F39623E860001308700010850
:101C3000E7002C2E44080F3909074D3E8600870126
:101C4000403FE800413FE90044080F39643E860008
:101C5000013087000108E70067182F2E302E3B2E39
:101C6000FB30E300FF30E40068086305E800690822
:101C70006405E900412E04306804E800003069047E
:101C8000E900C41B442E452E512E44080F39090784
:101C9000EB3E8600013087006808C03F6908C13FFD
:101CA0005B2E44080F3909074D3E860087016808FE
:101CB000C03F6908C13F03304106031D602E612EFD
:101CC000872E6808860069088700811F682E692EA4
:101CD0007C2EC41B6C2E6D2E752E44080F39623E6F
:101CE00086000130870081147C2E44080F39643E41
:101CF0008600013087008114680886006908870023
:101D0000011568088600690887008117112F0430C3
:101D10006806E80000306906E9006808860069087E
:101D20008700811F942E952EB22E7F30E300680825
:101D300086006908870063088105680886006908CD
:101D4000870001170530DD000030DE006908E00083
:101D50006808DF000230E1000030E2009D31E2253A
:101D60008D31B72E68088600690887000117043096
:101D700020006806E80000306906E900E718C12E77
:101D8000C22ECA2E6808860069088700811FC92EE6
:101D9000CA2EF52EC41BCD2ECE2ED62E44080F39BA
:101DA000623E8600013087008110DD2E44080F3925
:101DB000643E86000130870081103B30E3006808F4
:101DC000860069088700630881050530DD00003062
:101DD000DE006908E0006808DF000230E100003042
:101DE000E2009D31E2258D31FD2E3B30E300680895
:101DF00086006908870063088105200044080F39C0
:101E0000983EE300E4010E30E43D6308E500640819
:101E1000E600FE30E3006508860066088700630878
:101E2000810508002000580886008701413FF9001D
:101E30007908F400F501750823006402031D222FC0
:101E4000740863020318252F262F282F6308F90032
:101E50007908F400F5017408E3027508E43BF80121
:101E6000452F7808B03E860087010108F40060081D
:101E7000860061088700740881000130E0070030A7
:101E8000E13D0130F4007408F80779087802031C7A
:101E90004A2F4B2F312F630864040319502F512F01
:101EA000902F20005108013EF4000030523DF50013
:101EB000740886007508870040308100B030F40057
:101EC0000030F500FF307405F6007F307505F7002F
:101ED000510886005208870042317608C03F7708D3
:101EE000C13F580886008701011B772F782F842F68
:101EF000510886005208870048308100510886004A
:101F0000520887008117C62F5108860052088700A3
:101F10000830810051088600520887008117C62FBB
:101F200020005108013EF4000030523DF5007408D5
:101F3000860075088700403081004030F400003092
:101F4000F500FF307405F6007F307505F700510885
:101F500086005208870042317608C03F7708C13FAB
:101F6000510886005208870004308100510886001D
:101F70005208870081172300E21320005408031D34
:101F8000C22FC32FC62F923174228F310800FE302A
:101F900020004005F000C0307006031DD02FD12F67
:101FA000F72F4103031DD52FD62FF72F44084504E3
:101FB000031DDB2FDC2FF72F1430F1000030F2006F
:101FC000003047021430031946020318E82FE92FA6
:101FD000ED2F4708F2004608F1008B30C80098301A
:101FE000C9007208CC007108CB00C030CA000800DC
:0C1FF000640080010131890BF92F0034DE
:10200200F5002030F6007008F1000130F135890B3F
:1020120007287508F2000130F235FF3E031D0D2836
:1020220072357107F3000130F335FF3E031D1528A9
:102032007335F4007408F607760886008701811369
:102042007008031D2528262830287535EB3E8600AA
:10205200013087007608C03F0030C13F382875350F
:102062004D3E860087017608C03F0030C13F7608AA
:102072008600870101137608043E86008701011756
:1020820008002100B001B1018828CA1722006E039E
:10209200031D4C284D289D282100B0149D28CA17E5
:1020A2009D28CA1744080F39003A031959285A289B
:1020B2009D28C41B5D285E286A2844080F39090739
:1020C200EB3E860001308700403FF200413FF300C3
:1020D200742844080F3909074D3E86008701403FA6
:1020E200F200413FF3007208860073088700811FE7
:1020F2007B287C289D287208860073088700011DB2
:10210200832884289D2801302100B0009D282000CA
:1021120040081F39F000F1017108003A03199228B2
:102122009D287008003A03194628013A03195028DD
:10213200033A031952289D282000CA1FA128A22869
:10214200A928B030C8000030C9004A140230CB00C0
:1021520008002000400E890C0339003A0319B22806
:10216200B328EC281729CA170830D9001729923149
:10217200EF229031172991318921903117295C3052
:10218200C8000030C9004A14CB01CB0ACA1717296C
:1021920090314220903117298D31C4259031172971
:1021A20044085B3EC800C901C428CA1744085B3E04
:1021B200860087014208810017290230DD000030C5
:1021C200DE000030DF00E0000030E100E2009D317F
:1021D200E225903117294108EA00EB016B08003A29
:1021E2000319F42817296A08003A0319C928013A81
:1021F2000319CD28023A0319CD28063A0319B42847
:10220200033A0319B828013A0319DE280F3A0319D1
:10221200C028013A0319BC28033A0319D128013A0C
:102222000319D628073A031917291729080040303D
:10223200F200003020004C02403003194B02031818
:102242002329242935294B08F2005708031D2A297E
:102252002B292E29D701D70A35295703031D3229E5
:10226200332935290230D7007208F000F1017008D5
:10227200CB027108CC3B4D08013EF00000304E3DD0
:10228200F100700886007108870072088100B03082
:102292002200EF0020004A184F295029832967297C
:1022A20022006F0886008701200048088400490840
:1022B2008500000881000130C8070030C93D0130A7
:1022C200F00070082200EF070130F2027208031DCD
:1022D2006B296C295129882922006F088600870101
:1022E2002000480884004908850000088100013068
:1022F200C8070030C93D0130F00070082200EF0726
:102302000130F2027208031D872988296D2908000D
:102312002000CA170E30E4009930E300E50163089B
:1023220086006408870081010130E3070030E43D44
:102332000130FD007D08E50765080319A129A229DE
:1023420090290030F000F1002030F2000030F3005C
:1023520020309331F52391313D000E172000E60124
:102362006608643E86000130870081016608623E8D
:1023720086000130870081010130FD007D08E607FB
:1023820002306602031CC629C729B1290030F000B9
:10239200F1000130F2000030F3005B309331F5239D
:1023A20091313D000E1328302000CD000030CE00C8
:1023B2002030D8005808D100D2014208DC005C0865
:1023C200031DE429E529E8291030D900FA29013052
:1023D200DD000030DE005C30DF000030E000013064
:1023E200E1000030E2009D31E225913120302000F1
:1023F200D900080020004D0886004E0887000030F2
:10240200011B0130F70004304D06CD0000304E06AE
:10241200CE0008305906031D0F2A102A202A42082E
:102422007F393D00960016080319182A192A1D2A19
:1024320010302000D900202A04302000D900560391
:10244200031D242A252A6B2AB030F3000030F40041
:10245200FF307305F5007F307405F6004D088600E5
:102462004E08870042317508C03F7608C13F91315E
:1024720018219131023020005706031D412A422AB9
:102482004E2A4D0886004E088700043081004D0810
:1024920086004E0887008117732A7708031D522A87
:1024A200532A5F2A4D0886004E0887004830810073
:1024B2004D0886004E0887008117732A4D08860052
:1024C2004E088700083081004D0886004E088700BC
:1024D2008117732A2300E21F6F2A702A712AE213DE
:1024E2002000D601080022006A08031D792A7A2AF0
:1024F200EE2A0130EA006908031D802A812AEE2AA9
:102502000130E900023020005606031D892A8A2A7A
:102512009C2A4D0886004E088700413181014D08F2
:1025220086004E088700483081004D0886004E081C
:1025320087008117EE2A5603031DA02AA12AEE2A3C
:102542002200EC012000580A8600870140308100F9
:102552004030F0000030F100FF307005F2007F30B3
:102562007105F3005808023E860087017208C03FD9
:102572007308C13F5808860087010430810058085B
:102582008600870181172200EC01EC0A2000510825
:10259200013EF0000030523DF100700886007108E3
:1025A2008700403081004030F0000030F100FF3001
:1025B2007005F2007F307105F30051088600520861
:1025C200870042317208C03F7308C13F510886003C
:1025D2005208870080308100EE2A080080302000F7
:1025E2004006031DF52AF62A692BC030CA00562B75
:1025F2009F30C8009830C9001230CB000030CC00A8
:10260200692B4208031D062B072B322B4208F000D0
:10261200F101F035F10DE730700784001830713D9B
:1026220080388500003FC800013FC9004908F10019
:102632004808F00002307007840071080318710A1C
:1026420085000008CB004908F1004808F00003307B
:102652007007840071080318710A85000008CC0015
:10266200692BCA01692B033042020318392B3A2B1A
:10267200322B4208F000F101F035F10DDB3070072A
:1026820084001830713D80388500003FC800013F4A
:10269200C90048088400490885000008F000F101DB
:1026A2007008CB007108CC00692B4308F000F101DF
:1026B2007108003A03195E2B322B7008013A031994
:1026C200F92A033A0319022B013A0319342B322B4C
:1026D2000800F700700803196F2B702B792B7735E0
:1026E2004D3E86008701403FF800413FF900822BB2
:1026F2007735EB3E860001308700403FF800413FCE
:10270200F90078087904031D872B882B8B2BF001A5
:10271200F101F42B7108F3000030F400FF3073056F
:10272200F5007F307405F600780886007908870086
:1027320042317508C03F7608C13F7808013EF30078
:102742000030793DF400730886007408870072082F
:1027520081004030F300780886007908870073080A
:102762008105780886007908870081157808860037
:1027720079088700811770080319C02BC12BD82B49
:1027820077354D3E86008701403FF300413FF4001C
:1027920004307306F50000307406F60077354D3EBE
:1027A200860087017508C03F7608C13FF02B773558
:1027B200EB3E860001308700403FF300413FF400CA
:1027C20004307306F50000307406F6007735EB3EF0
:1027D2008600013087007508C03F7608C13F79083E
:1027E200F1007808F0000800F8007808F900720893
:1027F2007304031DFD2BFE2BFF2B842C790886000E
:1028020087017008810072087907F4007408FF3E9E
:1028120086008701700881000030730203300319BB
:1028220072020318152C162C172C842C790A860098
:102832008701700881007908023E860087017008CE
:10284200810072087907F4007408FE3E8600870151
:102852007008810072087907F4007408FD3E860052
:102862008701700881000030730207300319720279
:1028720003183C2C3D2C3E2C842C7908033E860008
:1028820087017008810072087907F4007408FC3E21
:102892008600870170088100003073020930031935
:1028A20072020318552C562C572C842C7909F400EB
:1028B2007A09F500F40A0319F50A03307405F600E3
:1028C20000307505F7007608F4007408F9077608F9
:1028D200F2027708F33BFC30F205FF30F3057E2C61
:1028E200790886008701700881000130F202003009
:1028F200F33B0130F4007408F90772087304031DF6
:10290200832C842C712C08003D000E122000CA1B5F
:102912008B2C8C2CD82C2300E21F902C912CA12CD8
:1029220002302000D60022006708031D992C9A2C41
:102932009D2C9F319A2794312200E901EA012A2D28
:1029420020005108013EF7000030523DF8007708A0
:10295200860078088700403081004030F700003060
:10296200F800FF307705F9007F307805FA0051084A
:1029720086005208870042317908C03F7A08C13F79
:1029820051088600520887000C30810051088600E9
:102992005208870081174D0886004E0887000430D0
:1029A20081004D0886004E08870081172A2DC01F1E
:1029B200DB2CDC2CF42CD601D60A22006808031D7D
:1029C200E32CE42CE72C9F319A2794312200E90171
:1029D200EA0120005408031DEF2CF02C2A2D92311D
:1029E200742294312A2D0230D6005108013EF7009C
:1029F2000030523DF80077088600780887004030A2
:102A020081004030F7000030F800FF307705F90010
:102A12007F307805FA00510886005208870042315B
:102A22007908C03F7A08C13F5108860052088700E2
:102A32000430810051088600520887008117220065
:102A4200E901EA0120005408031D282D292D2A2D11
:102A5200F02C0800210012113D0093019001980111
:102A62000E30F5009930F400F601740886007508FE
:102A7200870081010130F4070030F53D0130F0009C
:102A82007008F60776080319472D482D362D1630A3
:102A92003D0091009F3097007B309200F70177084C
:102AA200F0000130F035FF3E031D532D7035203EFE
:102AB200860087010030C03F0030C13FC23FC33FA4
:102AC2000130F0007008F70708307702031C6A2D06
:102AD2006B2D502D3D000E1796010E120E13F7307E
:102AE200F000700890052000CA012300E201E30112
:102AF200E4013D0090197E2D7F2D702D01302200C2
:102B0200EA000130E900E801E701ED01F70177355C
:102B12004D3E860087010030C03FC13F7735EB3E16
:102B22008600013087000030C03FC13F7708643E15
:102B320086000130870081017708623E86000130FD
:102B4200870081010130F0007008F7070230770238
:102B5200031CAC2DAD2D882D28302000CD00003077
:102B6200CE0016303D0098004030F0000030F100F9
:102B7200FF307005F2007F307105F300720820000B
:102B8200A2007308A3004030A1000430A000A017E7
:102B9200DC0100302300EA000030E9000030E800E8
:102BA2000030E7002200E6012000D90108002200DF
:102BB2008E150E162000D3150830890BDE2D20004D
:102BC2000D0E890C890C0139F3000D0D0D0D013923
:102BD200F4000130F435890BEB2D0D0E890C01390F
:102BE200F5000230F535890BF32D0D0E0139F60093
:102BF2000230F635FF3E031DFA2D76357504740456
:102C02007304F7000330F735FF3E031D042E7735BA
:102C1200FA0022008E110830890B0D2E20000D0EB5
:102C2200890C890C0139F3000D0D0D0D0139F400E9
:102C32000130F435890B1A2E0D0E890C0139F5007D
:102C42000230F535890B222E0D0E0139F6000230C5
:102C5200F635FF3E031D292E763575047404730480
:102C62000F397A04FA007A082400E0000130F800F3
:102C72000030F90022000E122000D311530CF30091
:102C8200F30C730C01399C313E249531013A03193E
:102C92004B2E4C2E532E7808603E86000230870061
:102CA2008101D22E0830890B542E20000D0E890C82
:102CB200890C0139F3000D0D0D0D0139F4000130BD
:102CC200F435890B612E0D0E890C0139F5000230A5
:102CD200F535890B692E0D0E0139F6000230F635F5
:102CE200FF3E031D702E7635750474047304F700DD
:102CF2000330F735FF3E031D7A2E7735FA002200A6
:102D02000E162000D315530CF300F30C730C01398B
:102D12009C313E249531013A0319902E912E922E28
:102D22004C2E0830890B932E20000D0E890C890C35
:102D32000139F3000D0D0D0D0139F4000130F435A8
:102D4200890BA02E0D0E890C0139F5000230F535E4
:102D5200890BA82E0D0E0139F6000230F635FF3E22
:102D6200031DAF2E76357504740473040F397A048B
:102D7200FA007808603E8600023087007A088100F7
:102D82000130F8070030F93D7908803AF3008030CD
:102D92007302031DCE2E08307802031CD12ED22ED0
:102DA2003B2E1030890BD32E22008E150E161030BA
:102DB200890BD92E080020005908031DE12EE22EAE
:102DC200F42E3D008E019201163091009F30970043
:102DD2007B309200ED2E8E158E1DF02EF12EEC2EF4
:102DE2002000D901D90A5903031DF82EF92E052F07
:102DF2003D008E1AFD2EFE2E052F90019201121417
:102E0200121602302000D9003D00101D092F0A2F92
:102E1200172F121D0D2F0E2F172FFB302000EE0043
:102E22006E083D0090059C31962496313D008E1C23
:102E32001B2F1C2F1F2F20001211FF2F101C222FBF
:102E4200232F322F121C262F272F322F95312B257D
:102E5200963104302000D900FE30EE006E083D00AD
:102E62009005101E352F362F3D2F121E392F3A2F67
:102E72003D2F9C31092496313D00101F412F422FD6
:102E82006E2F121F452F462F552F73302000DD0065
:102E92000030DE000030DF00E0000130E1000030F1
:102EA200E2009D31E2259631BF302000EE006E082F
:102EB2003D0090059C312324963122006B080319B2
:102EC200632F642F662F0130EB026B08031D6A2FFC
:102ED2006B2F6E2F9231742296313D00901E722F0D
:102EE200732F7A2F921E762F772F7A2F9D314E25B0
:102EF20096313D00901C7E2F7F2F942F921C822FA3
:102F0200832F942FFF302000DD007F30DE00003061
:102F1200DF00E0000130E1000030E2009D31E225F7
:102F220096313D00930104302000590203189A2F74
:102F32009B2F9D2F1211FF2F3D00921DA12FA22F1B
:102F4200FD2F2000EF013D00901DA82FA92FFD2F7E
:102F52000F082000DA005A0CEE00EE0C6E0C0F394E
:102F6200D500F730EE006E083D00900520005A199A
:102F7200BB2FBC2FCC2F5508623E86000130870044
:102F820001080139EE000130EE0601086E06FE3935
:102F92006E068100DB2F5508643E860001308700F3
:102FA20001080139EE000130EE0601086E06FE3915
:102FB2006E0681005508031DDF2FE02FE42F9E319E
:102FC200EC269631F22F7230DD000030DE005A30EE
:102FD200DF000030E0000030E100E2009D31E22538
:102FE200963101302000EE006E08EF0704306F02C8
:102FF200031CFC2FFD2FA42F2000121108000934FE
:1030020002348B340034043401340034A034FA34F2
:1030120009340434003400340234FF345D340134A2
:103022000034113421341034013401342534813414
:1030320014340334033403340434133402340834B0
:103042000334033407340534813403342034003428
:103052000434073405340234033420340034083491
:1030620009340434013400340234FF345D3403344F
:1030720000341B34213400340134013401348334EC
:10308200403401340434203416348534003400349E
:103092000034003400340034163405340034003473
:1030A20000340034003400340734053483340334EC
:1030B2002034003402340734053404340334203419
:1030C2000034043409340434023400340134FF344B
:1030D2005D340234003409342134003401340134C3
:1030E20022348634073400340734053486340334FA
:1030F20020340034103409340434033400340034EE
:10310200FF34FD34133404340634413400340134C2
:103112000134033400341434FF34F734FF34FF3401
:10312200C034FF34C034FF34C034FF34C034FF3401
:1031320000340034003400340034003412340134DA
:1031420000340234FF34FF34FF3440345E3404343C
:103152008E34023414340134013402340334013421
:103162000E340334583400342034003454340034E0
:103172004534003453340034543400340E340334B0
:10318200583400342034003454340034453400348C
:1031920053340034543400340E340334583400347D
:1031A2002034003454340034453400345334003471
:1031B20054340034E3349834CD349834BF349834E2
:1031C200B134983404340334093404340034983468
:103812003D001215EF30FD007D0890058E14220048
:10382200ED01ED0AE60175302000DD000030DE001A
:103832000030DF00E0000030E100E2009D31E225CF
:103842009C31080001302300E7070030E83D0030DA
:10385200E93D0030EA3D22006D08031D312C322C77
:103862003D2C0130F0007008E6076608031D3A2C73
:103872003B2C3D2CFF30E6000800F100F201502CF9
:103882000130F0007008F20765307202031C4A2C06
:103892004B2C4D2CFF30592C0430890B4E2C200020
:1038A2000C0E01397106031D572C582C412C013086
:1038B2000800F200632CFC302100990090302700B0
:1038C2009B00762C7208F000F1017108003A03198E
:1038D2006B2C762C7008003A03195C2C013A031900
:1038E200762C033A0319762C762C0800F401F501A4
:1038F200701C7C2C7D2C812C7208F4077308F53D1A
:103902000130F235F30D890B822C0130F136F00CC7
:10391200890B872C70087104031D902C912C792C33
:103922007508F1007408F00008002200ED017430FF
:103932002000DD000030DE000030DF00E00000305B
:10394200E100E2009D31E2259C313D008E10121112
:10395200AE2CFB30FD007D0890051019B12CB22C65
:10396200AA2C2200E6010800FC00771DB92CBA2C13
:10397200BF2CF0017C08903101209C31F71CC22C35
:10398200C32CC92CF001F00A7C08903101209C3133
:103992007C08983EF800F9010E30F93D7808FA00EB
:1039A2007908FB007A0886007B0887007708810087
:1039B2000800F100FC302000D3055311D312F201AC
:1039C200F30172087107F000700886008701810117
:1039D2000130F2070030F33D7308803AF000803086
:1039E2007002031DF62C15307202031CF92CFA2CFE
:1039F200E22C710A86008701143081000800A03091
:103A02009C31DA249D312200E001E1011E30F700F1
:103A120001309C31B5249D311E30F70002309C31BB
:103A2200B5249D311E30F70003309C31B5249D3101
:103A32001E30F70004309C31B5249D311E30F70052
:103A420006309C31B5249D310800F8007108F6005B
:103A52007008F5007808F900412D7508860076088F
:103A620087000108F7000130F5070030F63D7908BC
:103A720086008701770881000130F4007408F90795
:103A82000130F2020030F33B720A031D4C2D730A1F
:103A9200031D4C2D4D2D2E2D08003D00181C522DBE
:103AA200532D722D200058088600870180300106B0
:103AB200031D5C2D5D2D702D4D0886004E0887007C
:103AC20084300106031D662D672D702D580886006F
:103AD20087010C30810058088600870181173D005C
:103AE2001810DF30F0007008900508002030200028
:103AF200590203187D2D7E2D7F2DA72D3D008E1C92
:103B0200832D842D852DA72D2200600861040319C1
:103B12008B2D8C2D942D6008860061088700811BF7
:103B2200932D942DA72DA0308C3133249D31F0019B
:103B3200F00AA030F1001430F200013093316A2310
:103B42009D3171082200E1007008E0000800003099
:103B52009C315A249D3195312B259D311030210005
:103B62008C00F0308D0003308E009513303024002D
:103B72008C0070308D0023008C018D018E01073086
:103B82002100950495111512951215178B17053002
:103B9200200095009631DC269D312030200059020C
:103BA2000318D42DD52DD62DCB2D3D008E1CDA2D0C
:103BB200DB2DDC2DCB2D9D3177259D31CB2D8C310D
:103BC2000C2CF52D01309C315A249D311D2E0230D2
:103BD2009C315A249D311D2E9D3100259D311D2E73
:103BE2008F31C7279D311D2E20005E08003A031930
:103BF200FE2D7F3A0319182E1D2E5D08013A031976
:103C0200ED2D033A03191D2E013A0319F12D063A3F
:103C120003191D2E773A03191D2E013A03191D2E81
:103C2200073A0319E82D013A0319E32D1D2E5D0809
:103C3200FF3A03191D2E1D2E0800023020005606E1
:103C4200031D242E252E292E8F3112279E315D2E03
:103C5200D60122006C08031D2F2E302E5C2E200070
:103C62005108013EFA000030523DFB007A088600FE
:103C72007B088700403081004030FA000030FB00B2
:103C8200FF307A05FC007F307B05FD00510886007D
:103C92005208870042317C08C03F7D08C13F51086D
:103CA2008600520887000C308100510886005208B5
:103CB200870081175D2EEC0108002000E1008030B2
:103CC200FB0061087B02E200E301031CE303E31F44
:103CD2006B2E6C2E862E7F30F6000030F7006308C4
:103CE200FC006208FB000730FB35FC0D890B752ECA
:103CF2007B08F8007C08F9009F313A279E3177084B
:103D02002000E3007608E200A12E8030F6000030A9
:103D1200F7006308F1006208F0007F30F200003023
:103D2200F3009C3177249E317108F9007008F80085
:103D32009F313A279E3177082000E3007608E2009F
:103D4200620808002000D701D4012200E801E7013F
:103D5200EC012000D6017F30EC004D0886004E08B1
:103D620087006C08810504304D06CD0000304E06F8
:103D7200CE007F30EC004D0886004E0887006C08AC
:103D8200810504304D06CD0000304E06CE007F3056
:103D9200EC0051088600520887006C088105CA01B0
:103DA200CB01CC012300E201E301E4019031AA201E
:103DB2009E3103302000DD000030DE000030DF00E5
:103DC200E0000030E100E2009D31E2259E319431B5
:103DD20085249E3108002D302200EB0020005A0875
:103DE200FD39031DF52EF62E2D2F5A363F39ED00E3
:103DF2000130ED35FF3E031DFA2E6D35203ED80011
:103E02005808D100D20104305106D10000305206C8
:103E1200D200580886008701010C890C0F390D3A2F
:103E2200031D142F152F292F5808023E86008701E3
:103E3200403FF000413FF1000830F2000030F30053
:103E420040309D3126259E319E31A3269E31392F49
:103E52009E311E269E31392FFD305A05ED00043069
:103E62006D06031D352F362F392F9131FB219E31DF
:103E720008002000DE01F71F3F2F402F472FF609D1
:103E8200F709F60A0319F70ADE01DE0AF91F4A2FBB
:103E92004B2F542FF809F909F80A0319F90A0130CE
:103EA200FA007A08DE06DF01E001760877040319DA
:103EB2005B2F5C2F8B2FDD01DD0A682F0130F63579
:103EC200F70D890B602F0130FA007A08DD07F71F22
:103ED2006B2F6C2F5F2F0130DF35E00D890B6D2FBB
:103EE20077087902031D772F76087802031C7A2F50
:103EF2007B2F802F7608F8027708F93B5F14013098
:103F0200F736F60C890B812F0130DD02031D8A2F53
:103F12008B2F6C2F5E0803198F2F902F952FDF099F
:103F2200E009DF0A0319E00A6008F7005F08F600FB
:103F320008002200E801E701023020005606031DB6
:103F4200A32FA42FCF2F5108013EF3000030523D82
:103F5200F400730886007408870040308100B03096
:103F6200F3000030F400FF307305F5007F30740574
:103F7200F600510886005208870042317508C03F9A
:103F82007608C13F510886005208870048308100F8
:103F920051088600520887008117FF2F4C084702FC
:103FA200031DD52F4B0846020318D82FD92FDD2F1A
:103FB2004708CC004608CB00913118219F31B03020
:103FC200F3000030F400FF307305F5007F30740514
:103FD200F60020004D0886004E0887004231750821
:103FE200C03F7608C13F4D0886004E088700483022
:0E3FF20081004D0886004E08870081170800E8
:020000040001F9
:04000E00A40FCF1F4D
:00000001FF
