:041808008C310C2CE7
:101810007E148C317E10090020008C310F2C483052
:1018200084000030850015309B31B2238C3160304C
:1018300084000130850010309B31B2238C31E030C0
:1018400084000130850010309B31B2238C31603030
:1018500084000230850007309B31B2237E102000C7
:101860009D31352D2000E900973104278C3122006D
:1018700061080F39023A031D402C2000D316422C78
:101880002000D3126908023E86008701031022005F
:10189000E21D031401120318011620006908033E1B
:1018A0008600870103102200621C03140112031832
:1018B000011620006908033E8600870103102200FC
:1018C000631F031401100318011420006908033E6C
:1018D0008600870103102200621D03140113031800
:1018E000011720006908033E8600870103102200CB
:1018F000E31E03148113031881172000D31EA22CAA
:101900006908033E8600870181126908033E86004C
:10191000870181106908033E8600870103102200B9
:10192000631E031401110318011520006908023E0B
:101930008600870103102200E21C031481120318A1
:101940008116C42C6908033E86008701031022001B
:10195000E21C031481120318811620006908033E5B
:101960008600870103102200631E031481100318F0
:10197000811420006908033E86008701011169086F
:10198000023E86008701811220006908063E86001B
:1019900087010030C03FC13F6908083E86008701CB
:1019A0000030C03FC13F69080B3E860087018101BE
:1019B00069080A3E86008701810169080C3E86009D
:1019C0008701810169080D3E86008701810122009F
:1019D000E21D631BF42CE31E631AF42C200069083B
:1019E000033E86008701011520000C0E890C013989
:1019F0009B31B8238C31FD006908023E86008701C7
:101A0000FD0EFD0D01087D06DF397D0681002200F7
:101A1000E21D6219142D621CE218142D20006908C1
:101A2000023E8600870181162000531C5E2D690846
:101A3000023E8600870101106908023E8600870188
:101A400081106908023E8600870101116908023E83
:101A50008600870181112200621B352D2000690854
:101A60000B3E860087018030432DE21B442D200071
:101A700069080B3E860087017F30810069080A3EB5
:101A800086008701FF3081002200E21A4E2D2000DF
:101A900069080D3E8600870180305C2D621A8D2D0D
:101AA000200069080D3E860087017F3081006908AB
:101AB0000C3E86008701FF3081008D2D6908023EB3
:101AC0008600870103102200621E03140110031810
:101AD000011420006908023E8600870103102200DD
:101AE000E21E031481100318811420006908023ECD
:101AF0008600870103102200621F031401110318DE
:101B0000011520006908023E8600870103102200AB
:101B1000E21F03148111031881152000D31EB32D79
:101B20006908023E8600870103102200E31D0314AA
:101B300001130318011720006908023E860087017F
:101B400003102200E31F03148113031881172000E0
:101B50006908043E8600870181016908053E860008
:101B600087018101FB2D6908023E86008701011370
:101B70006908023E8600870181136908073E8600D6
:101B8000870122006408803E810020006908073E2A
:101B9000860087017F300106031DD42D6908063EAB
:101BA00086008701FF3081006908093E86008701B1
:101BB000220065089D319D258C3181006908093E10
:101BC000860087017F300106031DEC2D6908083E61
:101BD00086008701FF3081006908043E8600870186
:101BE00022006708810020006908053E8600870101
:101BF0002200660881002000D31C462E6908033E9F
:101C0000860087010030011A0130E4006908033EB4
:101C100086008701010E890C0139FD006908033E29
:101C200086008701FD0E01087D06EF397D068100E3
:101C30006908033E86008701640801398112031D8B
:101C400081166908033E860087010030011B0130C0
:101C5000E4006908033E86008701010D010D01398A
:101C6000FD006908033E86008701FD0EFD0DFD0D98
:101C700001087D06BF397D0681006908033E8600A4
:101C80008701640801398113031D8117D31F9A2E20
:101C90006908033E86008701003001180130E50025
:101CA000690886008701443FE6006908033E860014
:101CB000870101106908043E860087018101F03028
:101CC0006602031C682E6908033E86008701011422
:101CD0006503031D712E6908043E86008701FF30ED
:101CE00081006908033E86008701003081180130B9
:101CF000E500690886008701453FE6006908033E64
:101D00008600870181106908053E860087018101F0
:101D1000F0306602031C912E6908033E860087019D
:101D200081146503031D9A2E6908053E860087010C
:101D3000FF308100E701E801200067086907FD0026
:101D40007D080E3E8600870181010130E7070030E3
:101D5000E83D6808803AFD0080307D02031DB22E08
:101D600006306702031808009C2E20004203031D62
:101D7000C92E40081F39003A031DC92ECA17033067
:101D80004106031DC72E2200EE01EE0AC92E2200D5
:101D9000EE0120004208031D080040081F39023AE6
:101DA000031D080044080F39003A031908004408CD
:101DB0000F39E3000230630203180800203059068F
:101DC000031D0800CA17C41BF42E44080F39090765
:101DD000E43E860001308700403FE800413FE900D3
:101DE00044080F39EA3E012F44080F3909074D3ED8
:101DF00086008701403FE800413FE90044080F3971
:101E0000EC3E8600013087000108E7006718122FBA
:101E1000FB30E300FF30E40068086305E800690870
:101E20006405172F04306804E80000306904E900F5
:101E3000C41B262F44080F390907E43E86000130F1
:101E400087006808C03F6908C13F302F44080F3938
:101E500009074D3E860087016808C03F6908C13FF9
:101E600003304106031D522F680886006908870069
:101E7000811F472FC41B402F44080F39EA3E432FD0
:101E800044080F39EC3E8600013087008114680851
:101E900086006908870001156808860069088700C0
:101EA0008117080004306806E80000306906E90080
:101EB0006808860069088700811F7B2F7F30E30058
:101EC000680886006908870063088105680886003D
:101ED0006908870001170530DD000030DE00690861
:101EE000E0006808DF000230E1000030E2009D31D0
:101EF00066258E31802F68088600690887000117E3
:101F0000043020006806E80000306906E900E718A0
:101F10008F2F6808860069088700811FB42FC41BB3
:101F2000952F44080F39EA3E982F44080F39EC3EAC
:101F300086000130870081103B30E300680886008E
:101F400069088700630881050530DD000030DE0088
:101F50006908E0006808DF000230E1000030E200BC
:101F60009D3166258E31BC2F3B30E300680886002A
:101F70006908870063088105200044080F39983EEE
:101F8000E300E4010E30E43D6308E5006408E60088
:101F9000FE30E30065088600660887006308810557
:101FA0000800203020005902031C08003D008E1854
:101FB00008002300680869040319E42F68088600F4
:101FC00069088700811B0800A0308C3132248F31D2
:101FD000F001F00AA030F1001430F200013093312A
:101FE000C6238F3171082300E9007008E8009F3193
:101FF00020278F319E3194268F319E31DA260800BA
:102008002100B001B1013F28CA1722006E03031D49
:1020180054282100B0145428CA175428CA17440851
:102028000F39003A03195428C41B252844080F39CE
:102038000907E43E860001308700403FF200413F37
:102048002E2844080F3909074D3E86008701403F76
:10205800F200413FF3007208860073088700811F71
:1020680054287208860073088700011D542801301F
:102078002100B0005428200040081F39F000F10169
:102088007108003A0319492854287008003A0319BE
:102098000828013A03191028033A0319122854286A
:1020A8002000CA1F0800B030C8000030C9004A1418
:1020B8000230CB000800E901E80102302000560692
:1020C800031D91285108013EF3000030523DF400F1
:1020D800730886007408870040308100B030F30030
:1020E8000030F400FF307305F5007F307405F6000A
:1020F800510886005208870042317508C03F7608AB
:10210800C13F5108860052088700483081005108B5
:10211800860052088700811708004C084702031DF3
:1021280097284B08460203189D284708CC00460804
:10213800CB009031BF20B030F3000030F400FF3006
:102148007305F5007F307405F60020004D08860001
:102158004E08870042317508C03F7608C13F4D08D8
:1021680086004E088700483081004D0886004E08DA
:102178008700811708004030F20000304C024030E0
:1021880003194B020318D5284B08F2005708031D02
:10219800D028D701D70AD5285703031DD5280230E0
:1021A800D7007208F000F1017008CB027108CC3B2F
:1021B8004D08013EF00000304E3DF10070088600E9
:1021C8007108870072088100B0302200EF002000FB
:1021D8004A1C05291F2922006F0886008701200054
:1021E8004808840049088500000881000130C807B4
:1021F8000030C93D0130F00070082200EF070130BF
:10220800F202720803190800EF2822006F088600FE
:1022180087012000480884004908850000088100DB
:102228000130C8070030C93D0130F00070082200B5
:10223800EF070130F202720803190800092920008B
:10224800400E890C0339003A031D08005E29CA179D
:102258000830D90008009231D02208009131F321CA
:1022680008005C30C8000030C9004A14CB01CB0A12
:10227800CA1708009031042008008E31B5260800DE
:1022880044085B3EC800C9013929CA1744085B3EA7
:10229800860087014208810008000230DD00003016
:1022A800DE000030DF00E0000030E100E2009D3198
:1022B800662508004108EA00EB016B08003A03199B
:1022C800662989296A08003A03193E29013A03193F
:1022D8004129023A03194129063A03192B29033ADD
:1022E80003192F29013A031951290F3A03193529DE
:1022F800013A03193229033A03194429013A031907
:102308004929073A03198929892908004D088600AF
:102318004E0887000030011B0130F70004304D06DD
:10232800CD0000304E06CE0008305906031DA829FE
:1023380042087F393D00960016080319A529103078
:10234800A62904302000D9005603031DED29B0301A
:10235800F3000030F400FF307305F5007F3074059A
:10236800F6004D0886004E08870042317508C03FC8
:102378007608C13F9031BF209131023020005706C6
:10238800031DD2294D0886004E08870004308100BD
:102398004D0886004E088700811708007708031D3E
:1023A800E1294D0886004E088700483081004D0815
:1023B80086004E088700811708004D0886004E08E1
:1023C8008700083081004D0886004E088700811775
:1023D80008002400E21BE2132000D60108002000B8
:1023E800CA170E30E4009930E300E501630886005F
:1023F8006408870081010130E3070030E43D0130C3
:10240800FD007D08E50765080319FA290030F0008A
:10241800F1002030F2000030F300203093314523E2
:1024280091313D000E172000E6016608EC3E86005B
:102438000130870081016608EA3E86000130870086
:1024480081010130FD007D08E60702306602031CA9
:10245800192A0030F000F1000130F2000030F300DA
:102468005B309331452391313D000E132830200015
:10247800CD000030CE002030D8005808D100D2015D
:102488004208DC005C08031D4C2A1030D900080003
:102498000130DD000030DE005C30DF000030E0009D
:1024A8000130E1000030E2009D3166252030200037
:1024B800D900080022006B08031D08000130EB005A
:1024C8006A08031D08000130EA00023020005606A1
:1024D800031D802A4D0886004E088700413181017E
:1024E8004D0886004E088700483081004D08860058
:1024F8004E088700811708005603031D08002300B3
:10250800EF012000580A86008701403081004030E2
:10251800F0000030F100FF307005F2007F307105E7
:10252800F3005808023E860087017208C03F73080E
:10253800C13F58088600870104308100580886008A
:10254800870181172300EF01EF0A20005108013E9F
:10255800F0000030523DF1007008860071088700D5
:10256800403081004030F0000030F100FF3070054D
:10257800F2007F307105F300510886005208870089
:1025880042317208C03F7308C13F510886005208A3
:102598008700803081000800803020004006031D3D
:1025A8000800C030CA00312B9F30C8009830C900DD
:1025B8001230CB000030CC0008004208031D0F2B5E
:1025C8004208F000F101F035F10DE73070078400A2
:1025D8001830713D80388500003FC800013FC900B0
:1025E8004908F1004808F0000230700784007108BB
:1025F8000318710A85000008CB004908F100480853
:10260800F00003307007840071080318710A850010
:102618000008CC000800CA01080003304202031871
:102628000F2B4208F000F101F035F10DDB30700797
:1026380084001830713D80388500003FC800013F94
:10264800C90048088400490885000008F000F10125
:102658007008CB007108CC0008004308F000F101B5
:102668007108003A0319392B0F2B7008013A031926
:10267800D82A033A0319E12A013A0319112B0F2B1F
:102688000800F8007808F9007208730403190800B4
:102698007908860087017008810072087907F400BC
:1026A8007408FF3E860087017008810000307302BD
:1026B800033003197202031C0800790A8600870197
:1026C800700881007908023E860087017008810041
:1026D80072087907F4007408FE3E860087017008C6
:1026E800810072087907F4007408FD3E86008701AE
:1026F8007008810000307302073003197202031C4E
:1027080008007908033E8600870170088100720876
:102718007907F4007408FC3E860087017008810080
:1027280000307302093003197202031C080079098A
:10273800F4007A09F500F40A0319F50A0330740560
:10274800F60000307505F7007608F4007408F907FC
:102758007608F2027708F33BFC30F205FF30F30508
:102768007208730403190800790886008701700845
:1027780081000130F2020030F33B0130F4007408AC
:10278800F907B42BF70070080319D22B77354D3EA3
:1027980086008701403FF800413FDA2B7735E43E59
:1027A800860001308700403FF800413FF900780873
:1027B8007904031DE22BF001F10108007108F30010
:1027C8000030F400FF307305F5007F307405F60023
:1027D800780886007908870042317508C03F760876
:1027E800C13F7808013EF3000030793DF4007308DA
:1027F800860074088700720881004030F30078086A
:1028080086007908870073088105780886007908AA
:102818008700811578088600790887008117700875
:1028280003192D2C77354D3E86008701403FF30074
:10283800413FF40004307306F50000307406F600DA
:1028480077354D3E860087017508C03F7608C13F41
:10285800452C7735E43E860001308700403FF30081
:10286800413FF40004307306F50000307406F600AA
:102878007735E43E8600013087007508C03F76084A
:10288800C13F7908F1007808F00008003D000E12F9
:102898002000CA1B962C2400E21F5F2C0230200067
:1028A800D60022006808031D5B2C90315F202200AF
:1028B800EA01EB01080020005108013EF700003052
:1028C800523DF8007708860078088700403081007C
:1028D8004030F7000030F800FF307705F9007F300E
:1028E8007805FA00510886005208870042317908B5
:1028F800C03F7A08C13F51088600520887000C3053
:102908008100510886005208870081174D0886000B
:102918004E088700043081004D0886004E08870065
:1029280081170800C01FAB2CD601D60A22006908FF
:10293800031DA12C90315F2094312200EA01EB01A4
:1029480020005408031D080092315E22080002305E
:10295800D6005108013EF7000030523DF8007708D4
:10296800860078088700403081004030F70000304A
:10297800F800FF307705F9007F307805FA00510834
:1029880086005208870042317908C03F7A08C13F63
:1029980051088600520887000430810051088600DB
:1029A800520887008117A12C210012113D009301C4
:1029B800900198010E30F5009930F400F601740882
:1029C80086007508870081010130F4070030F53D65
:1029D8000130F0007008F60776080319E32C16306A
:1029E8003D0091009F3097007B309200F7017708F7
:1029F800F0000130F035FF3E031DFE2C7035203EFF
:102A0800860087010030C03F0030C13FC23FC33F4E
:102A18000130F0007008F70708307702031CFB2C20
:102A28003D000E1796010E120E13F730F0007008D5
:102A380090052000CA012400E201E301E4013D0001
:102A48009019192D01302200EB000130EA00E9014C
:102A5800E801ED01F70177354D3E8600870100302A
:102A6800C03FC13F7735E43E860001308700003023
:102A7800C03FC13F7708EC3E8600013087008101E6
:102A88007708EA3E86000130870081010130F000B6
:102A98007008F70702307702031C2F2D283020001A
:102AA800CD000030CE0016303D0098004030F000D8
:102AB8000030F100FF307005F2007F307105F3003F
:102AC80072082000A2007308A3004030A10004305F
:102AD800A000A017DC0100302300E3000030E20072
:102AE8000030E1000030E000EE012000D9010800CC
:102AF800580886008701413FF9007908F400F5017C
:102B0800750824006402031D8B2D740863020318E2
:102B18008F2D6308F9007908F400F5017408E302C1
:102B28007508E43BF801790878020318B02D780895
:102B3800B03E860087010108F4006008860061083D
:102B48008700740881000130E0070030E13D013062
:102B5800F4007408F807972D630864040319F12D2D
:102B680020005108013EF4000030523DF500740881
:102B780086007508870040308100B030F4000030CE
:102B8800F500FF307405F6007F307505F700510831
:102B980086005208870042317608C03F7708C13F57
:102BA800580886008701011BE52D51088600520848
:102BB8008700483081005108860052088700811735
:102BC8000800510886005208870008308100510823
:102BD8008600520887008117080020005108013E2E
:102BE800F4000030523DF50074088600750887002F
:102BF800403081004030F4000030F500FF307405AB
:102C0800F6007F307505F7005108860052088700E6
:102C180042317608C03F7708C13F51088600520804
:102C28008700043081005108860052088700811708
:102C38002400E21320005408031D080092315E228C
:102C4800080020005908031D392E3D008E0192010D
:102C5800163091009F3097007B3092008E19362EE7
:102C68008E15322E2000D901D90A5903031D462E8C
:102C78003D008E1A462E900192011214121602304F
:102C88002000D9003D001019121D532EFB302000E2
:102C9800EE006E083D0090059C31412496313D00C0
:102CA8008E1C592E2000121108001018121C662EB6
:102CB8009431D82496310430D900FE30EE006E08E5
:102CC8003D009005101A121E6C2E9B31F023963190
:102CD8003D00101F952E121F802E73302000DD003E
:102CE8000030DE000030DF00E0000130E10000309D
:102CF800E2009D3166259631BF302000EE006E0857
:102D08003D0090059B31D823963122006C080319A9
:102D18008F2E0130EC026C08031D952E92315E2235
:102D280096313D00901A921E9C2E9C317E2496313D
:102D38009018921CB02EFF302000DD007F30DE009E
:102D48000030DF00E0000130E1000030E2009D319A
:102D5800662596313D00930104302000590203187E
:102D6800B72E121108003D00921D012F2000EF011F
:102D7800FE2E0F082000DA005A0CEE00EE0C6E0C46
:102D88000F39D500F730EE006E083D0090052000A1
:102D98005A19D12E5508EA3ED32E5508EC3E860026
:102DA8000130870001080139EE000130EE06010804
:102DB8006E06FE396E0681005508031DE72E9E310A
:102DC8004F269631F52E7230DD000030DE005A3085
:102DD800DF000030E0000030E100E2009D316625B0
:102DE800963101302000EE006E08EF0704306F02C4
:102DF8000318012F3D009019BD2E20001211080064
:102E080022008E150E162000D3150830890B0A2FC4
:102E180020000D0E890C890C0139F3000D0D0D0DE4
:102E28000139F4000130F435890B172F0D0E890C88
:102E38000139F5000230F535890B1F2F0D0E0139C8
:102E4800F6000230F635FF3E031D262F7635750451
:102E580074047304F7000330F735FF3E031D302F69
:102E68007735FA0022008E110830890B392F20009F
:102E78000D0E890C890C0139F3000D0D0D0D01396A
:102E8800F4000130F435890B462F0D0E890C0139F9
:102E9800F5000230F535890B4E2F0D0E0139F6007D
:102EA8000230F635FF3E031D552F76357504740440
:102EB80073040F397A04FA007A082200E00001301E
:102EC800F8000030F90022000E122000D311530C34
:102ED800F300F30C730C01399B31C0239731013A8D
:102EE80003197D2F7808603E860001308700810134
:102EF800F62F0830890B7E2F20000D0E890C890CC7
:102F08000139F3000D0D0D0D0139F4000130F435D0
:102F1800890B8B2F0D0E890C0139F5000230F53520
:102F2800890B932F0D0E0139F6000230F635FF3E5E
:102F3800031D9A2F7635750474047304F700033063
:102F4800F735FF3E031DA42F7735FA0022000E1631
:102F58002000D315530CF300F30C730C01399B318B
:102F6800C0239731013A031D762F0830890BBA2FF9
:102F780020000D0E890C890C0139F3000D0D0D0D83
:102F88000139F4000130F435890BC72F0D0E890C77
:102F98000139F5000230F535890BCF2F0D0E0139B7
:102FA800F6000230F635FF3E031DD62F7635750440
:102FB800740473040F397A04FA007808603E8600B6
:102FC800013087007A0881000130F8070030F93DA8
:102FD8007908803AF30080307302083003197802C8
:102FE800031C672F1030890BF72F22008E150E1641
:102FF8001030890BFD2F0800093402348B3400345B
:10300800043401340034A034FA340934043400346C
:1030180000340234FF345D34013400341134213477
:103028001034013401342534813414340334033426
:1030380003340434133402340834033403340734B7
:10304800053481340334203400340434073405341F
:10305800023403342034003408340934043401348D
:1030680000340234FF345D34033400341B3421341B
:1030780000340134013401348334403401340434DD
:1030880020341634853400340034003400340034DD
:10309800003416340534003400340034003400346D
:1030A80000340734053483340334203400340234C4
:1030B8000734053404340334203400340434093428
:1030C8000434023400340134FF345D3402340034F3
:1030D800093421340034013401342234863407346D
:1030E8000034073405348634033420340034103473
:1030F80009340434033400340034FF34FD34133409
:1031080004340634413400340134013403340034C7
:103118001434FF34F734FF34FF34C034FF34C03480
:10312800FF34C034FF34C034FF340034003400347A
:103138000034003400341234013400340234FF34D3
:10314800FF34FF3440345E3404348E340234143493
:10315800013401340234033401340E340334583456
:1031680000342034003454340034453400345334AB
:103178000034543400340E340334583400342034CA
:103188000034543400344534003453340034543457
:1031980000340E34033458340034203400345434AA
:1031A8000034453400345334003454340034E334A8
:1031B8009834CD349834BF349834B13498340434C6
:0A31C8000334093404340034983451
:10376400640080010131890BB32B0034F000700830
:10377400031DBE2B0130080000300800F100F201E7
:1037840020000C0E013971060319D62B0130F0000C
:103794007008F20765307202031CD22BFF30080058
:1037A4000430890BD32BC22B0130080001302300D5
:1037B400E0070030E13D0030E23D0030E33D22000F
:1037C4006D08031D08000130F00070082300EE07A7
:1037D4006E08031D0800FF30EE0008001215EF30DC
:1037E400FD007D0890058E142200ED01ED0A2300F2
:1037F400EE0175302000DD000030DE000030DF0017
:10380400E0000030E100E2009D3166250800F4018B
:10381400F501701C112C7208F4077308F53D013092
:10382400F235F30D890B122C0130F136F00C890BB3
:10383400172C70087104031D0B2C7508F100740813
:10384400F0000800F2002D2CFC302100990090308B
:1038540027009B0008007208F000F1017108003A8B
:103864000319352C402C7008003A0319262C013A10
:103874000319402C033A0319402C402C0800220061
:10388400ED0174302000DD000030DE000030DF0088
:10389400E0000030E100E2009D3166259C313D00EE
:1038A4008E101211101D5B2CFB30FD007D0890055D
:1038B400542C2300EE010800FC00771D662CF00157
:1038C4007C089E3110269C31F71C6D2CF001F00A07
:1038D4007C089E3110267C08983EF800F9010E30D1
:1038E400F93D7808FA007908FB007A0886007B081D
:1038F4008700770881000800181C9B2C20005808BA
:103904008600870180300106031D992C4D0886002E
:103914004E08870084300106031D992C5808860040
:1039240087010C30810058088600870181173D000B
:103934001810DF30F000700890050800F1005310F3
:103944005311D312D310D313F201F3017208710788
:10395400F00070088600870181010130F207003011
:10396400F33D7308803AF00080307002031DBC2CD4
:1039740015307202031CA82C710A860087011430CA
:1039840081000800F8007108F6007008F500780856
:10399400F9000130F2020030F33B720A0319730A92
:1039A4000319080075088600760887000108F700E7
:1039B4000130F5070030F63D790886008701770865
:1039C40081000130F4007408F907CB2CA0309C313D
:1039D400A0249C312300E801E9011E30F7000130E6
:1039E4009C315E249C311E30F70002309C315E24F1
:1039F4009C311E30F70003309C315E249C311E3014
:103A0400F70004309C315E249C311E30F7000630F0
:103A14009C315E240800FE304005F000C030700682
:103A2400031D08004103031D080044084504031D49
:103A340008001430F1000030F20000304702143066
:103A44000319460203182A2D4708F2004608F1001C
:103A54008B30C8009830C9007208CC007108CB00C4
:103A6400C030CA00080000309C3124249D319431B8
:103A7400D8249D31303021008C00F0308D0003308B
:103A84008E009513303024008C00F0308D0023001C
:103A94008C018D018E0107302100950495111512BA
:103AA400951215178B1705302000950096312526A1
:103AB4009D3120305902031C582D3D008E18582D7D
:103AC4008F31D1279D31582D752D01309C312424FF
:103AD400080002309C31242408009C31E8240800AA
:103AE4009D310D2508005E08003A03197D2D7F3AAB
:103AF4000319972D9C2D5D08013A03196F2D033A84
:103B040003199C2D013A0319722D063A03199C2DB1
:103B1400773A03199C2D013A03199C2D073A03198E
:103B24006B2D013A0319672D9C2D5D08FF3A03198B
:103B34009C2D9C2D08002000E1008030FB006108D2
:103B44007B02E200E301031CE303E31FBB2D7F3090
:103B5400F6000030F7006308FC006208FB00073041
:103B6400FB35FC0D890BB22D7B08F8007C08F900AD
:103B7400CE2D8030F6000030F7006308F1006208B3
:103B8400F0007F30F2000030F3009C3109249D31B5
:103B94007108F9007008F8009F31AF277708E30037
:103BA4007608E2006208080002305606031DDD2D87
:103BB40095317C250800D60123006F08031D0E2EC5
:103BC40020005108013EFA000030523DFB007A0803
:103BD40086007B088700403081004030FA000030C6
:103BE400FB00FF307A05FC007F307B05FD005108A7
:103BF40086005208870042317C08C03F7D08C13FDF
:103C040051088600520887000C3081005108860054
:103C14005208870081170800EF010800F5002030E2
:103C2400F6007008F1000130F135890B162E750885
:103C3400F2000130F235FF3E031D1C2E7235710770
:103C4400F3000130F335FF3E031D242E7335F400D9
:103C54007408F60776088600870181137008031D2F
:103C64003D2E7535E43E8600013087007608C03F5E
:103C74000030C13F452E75354D3E860087017608DC
:103C8400C03F0030C13F76088600870101137608E3
:103C9400043E86008701011708002D302200EC0045
:103CA40020005A08FD39031D8A2E5A363F39ED008B
:103CB4000130ED35FF3E031D5B2E6D35203ED800EF
:103CC4005808D100D20104305106D1000030520608
:103CD400D200580886008701010C890C0F390D3A6F
:103CE400031D872E5808023E86008701403FF000DE
:103CF400413FF1000830F2000030F30040309C31C5
:103D0400C4249E319F31672708009D31D6250800C1
:103D1400FD305A05ED0004306D06031D0800913195
:103D24008A210800E2190800621A08000B11053004
:103D340020009500DD01DE012200E2190800621A6C
:103D440008000B1D9E2E973104279E310130200060
:103D5400DD070030DE3D00305E02FA3003195D02FB
:103D6400031CD52E0310D31C0314031CBC2E2000EB
:103D7400D314BE2E2000D310DD01DE01D22E621A30
:103D8400D52E0230FC003830FB00AD30890BC82E34
:103D9400FB0BC82EFC0BC82E0000973104279E3164
:103DA4002200E21DC12E0B110530200095009E2E2D
:103DB400E2190800E21A08000B11053020009500F2
:103DC400DD01DE012200E2190800E21A08000B1DE1
:103DD400E42E973104279E3101302000DD070030A6
:103DE400DE3D00305E02FA3003195D02031C1B2F16
:103DF4000310D31F0314031C022F2000D317042F16
:103E04002000D313DD01DE01182FE21A1B2F02302C
:103E1400FC003830FB00AD30890B0E2FFB0B0E2F4E
:103E2400FC0B0E2F0000973104279E312200E21D67
:103E3400072F0B11053020009500E42E2200E21913
:103E44000800621B08000B11053020009500DD01FD
:103E5400DE012200E2190800621B08000B1D2B2F53
:103E6400973104279F3101302000DD070030DE3D0B
:103E740000305E02FA3003195D02031C622F031046
:103E8400531C0314031C492F200053144B2F2000F0
:103E94005310DD01DE015F2F621B622F0230FC0034
:103EA4003830FB00AD30890B552FFB0B552FFC0B25
:103EB400552F0000973104279F312200E21D4E2F19
:103EC4000B110530200095002B2FD701D4012200BF
:103ED400E901E8012300EF012000D6017F30EC0066
:103EE4004D0886004E0887006C08810504304D0695
:103EF400CD0000304E06CE007F30EC004D08860029
:103F04004E0887006C08810504304D06CD00003052
:103F14004E06CE007F30EC00510886005208870020
:103F24006C088105CA01CB01CC012400E201E30144
:103F3400E401913123219F3103302000DD00003062
:103F4400DE000030DF00E0000030E100E2009D31DF
:103F540066259F3194314A240800DE01F71FB92FEA
:103F6400F609F709F60A0319F70ADE01DE0AF91F52
:103F7400C42FF809F909F80A0319F90A0130FA00FB
:103F84007A08DE06DF01E001760877040319F32FCF
:103F9400DD01DD0AF71BD82F0130F635F70D890B4B
:103FA400CF2F0130FA007A08DD07CC2F0130DF353E
:103FB400E00D890BD92F77087902031DE32F7608CA
:103FC4007802031CEA2F7608F8027708F93B5F149D
:103FD4000130F736F60C890BEB2F0130DD02031D9F
:103FE400D82F5E080319FB2FDF09E009DF0A031944
:0C3FF400E00A6008F7005F08F600080013
:020000040001F9
:08000000FF3FFF3FFF3FFF3F00
:04000E00A40FCF1F4D
:00000001FF
