:0618080000008C310C2CE5
:101810007E148C317E10090020008C310F2C653035
:101820008400003085000B308F31FA278C31A730CF
:1018300084000030850033308F31FA278C317E10E0
:1018400020009D31862D2000D1009531BE258C31A0
:10185000210028080F39023A031D2F2C302C322C7E
:10186000C916332CC9120310A91D03142000510AF4
:10187000860087010110031C3E2C01140310210077
:10188000291D031420005108860087010110031C44
:101890004A2C011403102100291C031420005108B4
:1018A000860087018110031C562C8114031021002F
:1018B000A91C031420005108860087010111031C94
:1018C000622C0115031021002A1F03142000510867
:1018D000860087018111031C6E2C811503102100E5
:1018E000AA1E031420005108860087010112031C60
:1018F0007A2C0116031021002A1E0314200051081F
:10190000860087018112031C862C81162000510A53
:10191000860087018110510A860087010111510A52
:10192000860087018112510A860087010112510A3F
:101930008600870181112100291A9F2CA02CC42C1C
:10194000A91BA32CA42CAE2C20005108023E86001B
:1019500087010108F03901388100132D291BB12CB2
:10196000B22CBC2C20005108023E860087010108E1
:10197000F03907388100132D20005108023E8600FF
:101980008701F0308105132DA91AC72CC82CEE2C25
:10199000A91BCB2CCC2CD62C20005108023E860053
:1019A00087010108F03903388100132D291BD92C38
:1019B000DA2CE42C20005108023E86008701010841
:1019C000F03905388100132D20005108023E8600B1
:1019D00087010108F03904388100132DA91BF12C6F
:1019E000F22CFC2C20005108023E860087010108E1
:1019F000F03902388100132D291BFF2C002D0A2DF0
:101A000020005108023E860087010108F03906389F
:101A10008100132D20005108023E86008701010835
:101A2000F039083881002100C91E172D182D4B2DC3
:101A30000310AA1D0314200051088600870101131A
:101A4000031C232D011703102100AA1F03142000DB
:101A50005108860087018113031C2F2D81178030C8
:101A6000FC0020005108033E860087017C088100AD
:101A70008030FC005108043E860087017C0881000C
:101A80005108053E8600870181015108063E860007
:101A9000870181017C2D20005108860087010113F8
:101AA000510886008701811321002B08FC002000CB
:101AB0005108033E860087017C08810021002C0824
:101AC000FC0020005108043E860087017C0881004C
:101AD00021002E08FC0020005108053E86008701E9
:101AE0007C08810021002D08FC0020005108063EE2
:101AF000860087017C0881002100491F802D812DEF
:101B0000BF2D2000510886008701003001180130E8
:101B1000D000510886008701010C0139FC005108F2
:101B20008600870101087C06FE397C068100510889
:101B300086008701500801398110031D8114510866
:101B400086008701003081190130D00051088600DD
:101B50008701010E0139FC00510886008701FC0D48
:101B6000FC0DFC0D01087C06F7397C06810051084C
:101B700086008701500801390112031D0116080073
:101B800020004203031DC52DC62DDC2D40081F3942
:101B9000003A031DCC2DCD2DDC2D2100B8170330CC
:101BA00020004106031DD52DD62DDA2D2100D301AD
:101BB000D30ADC2D2100D30120004208031DE12DB2
:101BC000E22D0D2F40081F39023A031DE82DE92DA3
:101BD0000D2F44080F39003A0319EF2DF02D0D2F6A
:101BE00044080F39D600023056020318F82DF92D9B
:101BF0000D2F20306E06031DFE2DFF2D0D2F210011
:101C0000B8172000C41B052E062E1A2E44080F39C3
:101C10000907BF3E86008701403FDB00413FDC00F3
:101C200044080F39C53E860087010108D6005608D2
:101C3000DA002D2E44080F390907653E860087011A
:101C4000403FDB00413FDC0044080F39C73E8600BF
:101C500087010108D6005608DA005A18302E312EB6
:101C60003C2EFB30D600FF30D7005B085605DB006A
:101C70005C085705DC00422E04305B04DB000030BA
:101C80005C04DC00C41B452E462E512E44080F393F
:101C90000907BF3E860087015B08C03F5C08C13F63
:101CA0005B2E44080F390907653E860087015B08F3
:101CB000C03F5C08C13F03304106031D602E612E0A
:101CC000852E5B0886005C088700811F682E692EC0
:101CD0007A2EC41B6C2E6D2E742E44080F39C53E0F
:101CE0008600870181147A2E44080F39C73E86008A
:101CF000870181145B0886005C08870001155B087A
:101D000086005C08870081170D2F04305B06DB001E
:101D100000305C06DC005B0886005C088700811FE1
:101D2000922E932EB02E7F30D6005B0886005C0882
:101D30008700560881055B0886005C08870001174C
:101D40000530D0000030D1005C08D3005B08D20021
:101D50000230D4000030D500903106208D31B52EF0
:101D60005B0886005C0887000117043020005B06D2
:101D7000DB0000305C06DC00DA18BF2EC02EC82E57
:101D80005B0886005C088700811FC72EC82EF12ED5
:101D9000C41BCB2ECC2ED32E44080F39C53E860053
:101DA00087018110D92E44080F39C73E860087016C
:101DB00081103B30D6005B0886005C08870056081F
:101DC00081050530D0000030D1005C08D3005B08ED
:101DD000D2000230D4000030D500903106208D3181
:101DE000F92E3B30D6005B0886005C088700560859
:101DF0008105200044080F39983ED600D7010E30E7
:101E0000D73D5608D8005708D900FE30D6005808EC
:101E100086005908870056088105080020006D08D3
:101E200086008701413FF5007508F200F301730851
:101E300021003302031D1E2F720832020318212FC6
:101E4000222F262F3208F2007208F5007508F200E2
:101E5000F3017208B2027308B33BF401422F740815
:101E6000483E860087010108F2002F08860087019E
:101E7000720881000130F2007208AF070130F200F1
:101E80007208F40775087402031C472F482F2F2F80
:101E90003208330403194D2F4E2F872F2000690875
:101EA000013EF20000306A3DF300720886007308BC
:101EB0008700083081004830F2000030F3006908E4
:101EC00086006A08870042317208C03F7308C13F2C
:101ED0006D0886008701011B6E2F6F2F7B2F69080D
:101EE00086006A08870048308100690886006A0811
:101EF00087008117B72F690886006A0887000830B5
:101F00008100690886006A0887008117B72F2000C2
:101F10006908013EF20000306A3DF3007208860055
:101F200073088700083081004030F2000030F30071
:101F3000690886006A08870042317208C03F73084A
:101F4000C13F690886006A0887000430810069087B
:101F500086006A08870081172100B11320006B08F2
:101F6000031DB32FB42FB72F903142208F310800BB
:101F7000F5002030F1007108F6007008F100013022
:101F8000F135890BC02F7508F2000130F235FF3EA4
:101F9000031DC62F72357107F3000130F335FF3E84
:101FA000031DCE2F7335F4007408F60776088600FB
:101FB000870181137008031DDE2FDF2FE82F753591
:101FC000BF3E860087017608C03F0030C13FF02F3A
:101FD0007535653E860087017608C03F0030C13FF9
:101FE00076088600870101137608043E8600870183
:101FF00001170800640080010131890BFB2F0034B8
:10200000210049104911C91249130800192801304B
:102010009C3139249031412802309C31392490314F
:1020200041289B31F2239031412895311925903177
:10203000412820005108003A031922287F3A031949
:102040003C2841285008013A03191128033A031982
:102050004128013A03191528063A03194128773A0D
:1020600003194128013A03194128073A03190C289A
:10207000013A0319072841285008FF3A031941285B
:102080004128080021004E08031D47284828B82889
:102090000130F0007008CE004D08031D5028512873
:1020A000B8280130F0007008CD00023020006C0626
:1020B000031D5B285C286E2865088600660887007B
:1020C000413181016508860066088700483081003B
:1020D00065088600660887008117B8286C03031D11
:1020E00072287328B8282100D0010830F0002000A1
:1020F0006D0A86008701700881004030F0000030D2
:10210000F1006D08023E860087017008C03F71082B
:10211000C13F0430F0006D0886008701700881001F
:102120006D088600870181172100D001D00A2000A8
:102130006908013EF00000306A3DF1007008860039
:1021400071088700083081004030F0000030F10055
:10215000690886006A08870042317008C03F71082C
:10216000C13F690886006A08870080308100B8286E
:102170000800200065088600660887000030011B03
:102180000130F50004306506E50000306606E60023
:1021900008306E06031DCD28CE28E22842087F397C
:1021A0003D00960016080319D628D728DD281030E0
:1021B000F30073082000EE00E2280430F3007308F7
:1021C0002000EE006C03031DE628E7282A2948308A
:1021D000F3000030F400650886006608870042318D
:1021E0007308C03F7408C13F9F3189279031023086
:1021F00021005506031DFD28FE280B292000650837
:10220000860066088700043081006508860066083D
:102210008700811732297508031D0F2910291D29F0
:102220002000650886006608870048308100650840
:10223000860066088700811732292000650886001D
:1022400066088700083081006508860066088700F8
:10225000811732292100B11F2E292F293029B113CE
:102260002000EC0108002000400E890C0339003AE0
:1022700003193B293C298129AC292100B8170830D2
:102280002000DD005D08EE00AC299231AE229131D4
:10229000AC299131AD219131AC29D9302100B60062
:1022A0000030B7003814B901B90AB817AC299F310A
:1022B0001D279131AC298D31C0259131AC294408BD
:1022C000D83E2100B6000030B70052292100B817CF
:1022D00020004208DD004408D83E860087015D08E2
:1022E0008100AC290230D0000030D1000030D20093
:1022F0000030D3000030D400D50090310620913159
:10230000AC294108DD00DE015E08003A0319892985
:10231000AC295D08003A03195729013A03195B29D2
:10232000023A03195B29063A03193D29033A0319B6
:102330004529013A031972290F3A03194D29013A27
:1023400003194929033A03195F29013A0319662938
:10235000073A0319AC29AC2908002100B8170E3040
:102360002000D8009930D700D901570886005808B6
:10237000870081010130D7070030D83D0130D600F9
:102380005608D90759080319C629C729B5290030A5
:10239000F000F1002030F2000030F30020309331E3
:1023A000D12391313D000E172000DA015A08C73EB3
:1023B0008600870181015A08C53E86008701810198
:1023C0000130D6005608DA0702305A02031CE92908
:1023D000EA29D6290030F000F1000130F200003087
:1023E000F300D8309331D12391313D000E132830C2
:1023F0002000E5000030E6002030D6005608ED0051
:102400006D08E900FF39031D0030EA004208D600DC
:1024100056082100D9005908031D0F2A102A162A30
:1024200010302000D6005608EE002B2A0130200084
:10243000D0000030D100D930D2000030D3000130BC
:10244000D4000030D500903106209131203020009A
:10245000D6005608EE000800F70070080319312A6C
:10246000322A3B2A7735653E86008701403FF800D7
:10247000413FF900432A7735BF3E86008701403F40
:10248000F800413FF90078087904031D482A492AD9
:102490004C2AF001F101AD2A7108F3000030F4007C
:1024A000780886007908870042317308C03F7408B5
:1024B000C13F7808013EF3000030793DF400730815
:1024C000860074088700720881004030F3007808A5
:1024D00086007908870073088105780886007908E6
:1024E00087008115780886007908870081177008B1
:1024F00003197B2A7C2A932A7735653E860087015B
:10250000403FF300413FF40004307306F500003013
:102510007406F6007735653E860087017508C03F72
:102520007608C13FA92A7735BF3E86008701403F24
:10253000F300413FF40004307306F50000307406E8
:10254000F6007735BF3E860087017508C03F7608E4
:10255000C13F7908F1007808F000080080302000C1
:102560004006031DB42AB52A322BC030F000700893
:102570002100B8001E2BBA302100B6009830B700F9
:102580001230B9000030BA00322B4208031DC92AAC
:10259000CA2AF92A4208F000F101F035F10DD630CF
:1025A000700784009830713D8500003F2100B6001F
:1025B000013FB7003708F1003608F000023070071D
:1025C000840071080318710A85000008F20072087F
:1025D000B9003708F1003608F000033070078400B6
:1025E00071080318710A85000008F2007208BA0029
:1025F000322B2100B801322B033042020318012B89
:10260000022BF92A4208F000F101F035F10DCC302F
:10261000700784009830713D8500003F2100B600AE
:10262000013FB70036088400370885000008F00035
:10263000F1017008B9007108BA00322B200043087C
:10264000F000F1017108003A0319272BF92A7008EC
:10265000013A0319BB2A033A0319C52A013A03199F
:10266000FC2AF92A08003D000E122100B81B392B64
:102670003A2B812BB11F3D2B3E2B502B0230F50006
:1026800075082000EC0021004B08031D482B492B46
:102690004C2B9E31BC2693312100CD01CE01D02B95
:1026A00020006908013EF50000306A3DF60075081B
:1026B000860076088700083081004030F500003041
:1026C000F600690886006A08870042317508C03F35
:1026D0007608C13F690886006A0887000C308100CF
:1026E000690886006A088700811765088600660801
:1026F000870004308100650886006608870081171E
:10270000D02B2000C01F852B862B9E2BEC01EC0AC2
:1027100021004C08031D8D2B8E2B912B9E31BC2646
:1027200093312100CD01CE0120006B08031D992BB0
:102730009A2BD02B903142209331D02B0230F500D0
:102740007508EC006908013EF50000306A3DF600AE
:102750007508860076088700083081004030F50053
:102760000030F600690886006A0887004231750863
:10277000C03F7608C13F690886006A0887000430B8
:102780008100690886006A08870081172100CD0151
:10279000CE0120006B08031DCE2BCF2BD02B9A2B04
:1027A0000800F8007808F4007408F900720873044F
:1027B000031DDB2BDC2BDD2B742C7008F400790857
:1027C00086008701740881007008F4007208790798
:1027D000F5007508FF3E860087017408810000300F
:1027E00073020330031972020318F72BF82BF92B2D
:1027F000742C7008F400790A86008701740881003F
:102800007008F4007908023E860087017408810090
:102810007008F40072087907F5007508FE3E86001E
:102820008701740881007008F40072087907F500C8
:102830007508FD3E86008701740881000030730230
:102840000730031972020318262C272C282C742C0D
:102850007008F4007908033E86008701740881003F
:102860007008F40072087907F5007508FC3E8600D0
:102870008701740881000030730209300319720265
:102880000318432C442C452C742C7909F4007A0944
:10289000F500F40A0319F50A03307405F600003058
:1028A0007505F7007608F4007408F9077608F20257
:1028B0007708F33BFC30F205FF30F3056E2C70080F
:1028C000F400790886008701740881000130F20263
:1028D0000030F33B0130F4007408F9077208730408
:1028E000031D732C742C5F2C0800210012113D0075
:1028F0009301900198010E30F2009930F100F3013C
:10290000710886007208870081010130F1070030EC
:10291000F23D0130F0007008F30773080319912CA1
:10292000922C802C16303D0091009F3097007B3018
:102930009200F4017408F0000130F035FF3E031DF1
:102940009D2C7035203E860087010030C03F00304E
:10295000C13FC23FC33F0130F0007008F4070830A8
:102960007402031CB42CB52C9A2C3D000E17960152
:102970000E120E13F730F000700890052100B80118
:10298000B101B201B3013D009019C72CC82CBA2C7B
:102990000130F00070082100CE000130F000700816
:1029A000CD00CC01CB01D201F4017435653E860027
:1029B00087010030C03FC13F7435BF3E86008701AC
:1029C0000030C03FC13F7408C73E860087018101C7
:1029D0007408C53E8600870181010130F00070084F
:1029E000F40702307402031CF62CF72CD52C283087
:1029F0002000E5000030E60016303D009800003071
:102A00002000A3004030A2000830A1000430F000F4
:102A10007008A000A0172100D9010030BE000030CE
:102A2000BD000030BC000030BB00CA012000EE0138
:102A30000800200040081F39013A0319202D212DDC
:102A4000222DBD2D44080319262D272D282DBD2DFF
:102A500006304106031D2D2D2E2D632D502D2100F6
:102A60005903031D342D352D632D9030B600983059
:102A7000B7000930B9000030BA00C030F00070086B
:102A8000B800632D00302100B6009830B7004A30FE
:102A9000B9000030BA00C030F0007008B800632DF3
:102AA0004308F000F1017108003A0319582D632D15
:102AB0007008213A03192F2D033A0319422D013AC8
:102AC0000319632D632D2000400E890C0339013A50
:102AD00003196B2D6C2DA12DBD2DD7302100B60013
:102AE0000030B7000130B9000030BA00C130F0004A
:102AF0007008B800BD2D8030F00070082100B800CB
:102B000020004308F00070082100D700BD2DD6300A
:102B10002100B6000030B7000130B9000030BA0023
:102B20008130F0007008B800BD2D8030F0007008D2
:102B30002100B80020004208F00070082100D600F3
:102B4000BD2D4108F000F1017108003A0319A92DCB
:102B5000BD2D7008013A0319BD2D033A03196D2DDF
:102B6000013A0319872D0A3A0319BD2D033A0319B7
:102B70007B2D013A0319952DBD2D080022008E15DD
:102B80000E162100C9150830890BC42D20000D0E2A
:102B9000890C890C0139F3000D0D0D0D0139F4007C
:102BA0000130F435890BD12D0D0E890C0139F5005A
:102BB0000230F535890BD92D0D0E0139F6000230A2
:102BC000F635FF3E031DE02D76357504740473045D
:102BD000F7000330F735FF3E031DEA2D7735F80087
:102BE0007808FB0022008E110830890BF52D20009B
:102BF0000D0E890C890C0139F3000D0D0D0D0139F5
:102C0000F4000130F435890B022E0D0E890C0139C8
:102C1000F5000230F535890B0A2E0D0E0139F6004C
:102C20000230F635FF3E031D112E7635750474040F
:102C300073040F397B04F7007708FB007B08F3006F
:102C400073082100A7000130F9000030FA002200CB
:102C50000E122100C911490CF300F30C730C013959
:102C60009C3101249531013A0319372E382E3E2E1E
:102C70007908A73E860087018101C22E0830890BA2
:102C80003F2E20000D0E890C890C0139F3000D0D2B
:102C90000D0D0139F4000130F435890B4C2E0D0E69
:102CA000890C0139F5000230F535890B542E0D0ED3
:102CB0000139F6000230F635FF3E031D5B2E7635F6
:102CC000750474047304F7000330F735FF3E031DE9
:102CD000652E7735F8007808FB0022000E162100DB
:102CE000C915490CF300F30C730C01399C31012414
:102CF0009531013A03197D2E7E2E7F2E382E083015
:102D0000890B802E20000D0E890C890C0139F300EF
:102D10000D0D0D0D0139F4000130F435890B8D2EA8
:102D20000D0E890C0139F5000230F535890B952E11
:102D30000D0E0139F6000230F635FF3E031D9C2EC4
:102D400076357504740473040F397B04F700770833
:102D5000FB007B08F3007908A73E86008701730813
:102D600081000130F9070030FA3D7A08803AF3001B
:102D700080307302031DBE2E08307902031CC12E61
:102D8000C22E272E1030890BC32E22008E150E1650
:102D90001030890BC92E080020006E08031DD12EAB
:102DA000D22EE42E3D008E019201163091009F300C
:102DB00097007B309200DD2E8E158E1DE02EE12EC9
:102DC000DC2E2000EE01EE0A6E03031DE82EE92E34
:102DD000F72E3D008E1AED2EEE2EF72E9001920169
:102DE0001214121602302000E2006208EE003D00CC
:102DF000101DFB2EFC2E092F121DFF2E002F092F58
:102E0000FB302000E20062083D0090059C317324F5
:102E100096313D008E1C0D2F0E2F112F2000121108
:102E2000FF2F101C142F152F262F121C182F192FAF
:102E3000262F94317524963104302000E200620878
:102E4000EE00FE30E20062083D009005101E292FC2
:102E50002A2F312F121E2D2F2E2F312F9C31562429
:102E600096313D00101F352F362F632F121F392F3B
:102E70003A2F4A2F73302000D0000030D1000030AC
:102E8000D2000030D3000130D4000030D5009031A2
:102E900006209631BF302000E20062083D00900518
:102EA0009C311D24963121004F080319582F592FAA
:102EB0005B2F0130CF024F08031D5F2F602F632F60
:102EC0009031422096313D00901E672F682F6F2F62
:102ED000921E6B2F6C2F6F2F9C31BA2496313D00C0
:102EE000901C732F742F8A2F921C772F782F8A2F84
:102EF000FF302000D0007F30D1000030D200003001
:102F0000D3000130D4000030D50090310620963136
:102F10003D009301043020006E020318902F912F82
:102F2000932F1211FF2F3D00921D972F982FFD2FE9
:102F30002000E4013D00901D9E2F9F2FFD2F0F08C4
:102F40002000E2006208EF006F0CE200E20C620C6D
:102F50000F39E30063082100D100F7302000E200C0
:102F600062083D00900520006F19B72FB82FC92FB8
:102F700021005108C53E8600870101080139200063
:102F8000E2000130E20601086206FE3962068100B5
:102F9000D92F21005108C73E860087010108013959
:102FA0002000E2000130E20601086206FE396206F6
:102FB000810021005108031DDE2FDF2FE32F9E31FA
:102FC0000B269631F22F72302000D0000030D10055
:102FD0006F30D2000030D3000030D400D5009031E3
:102FE0000620963101302000E2006208E407043038
:102FF0006402031CFC2FFD2F9A2F200012110800E1
:103000000534013409340534A13401341534003455
:1030100025340134353400344534013475340134F9
:1030200095340E34053409341934013429340E34FE
:10303000813402349534023481340134053401344E
:103040002534073446343B34013475340434953424
:1030500001346534143409343934813442346534EC
:10306000003495340134813401342634FF34003483
:103070004634FF34003409343034093431340934EF
:103080003234093435347534083495340434813499
:103090000234C034343403344D34003469340034E1
:1030A00063340034723400346F34003463340034D9
:1030B000683400346934003470340034203400340F
:1030C00054340034653400346334003468340034DC
:1030D0006E3400346F3400346C3400346F34003498
:1030E00067340034793400342034003449340034F7
:1030F0006E340034633400342E3400340934023426
:1031000022340034013401340034C0343234093400
:103110000434003400340134033400340034003407
:1031200009342134113401340034013422344A3456
:10313000003407340534813403344034003401341E
:103140001A340334533400345334003433340034E9
:1031500044340034203400344734003461340034C3
:103160006D3400346534003470340034613400341C
:103170006434003412340134003402340034003436
:1031800000340834D83404348634E634013400344E
:103190000134023400340134D23498344A3498343F
:1031A000A034983404340334093404347E3498341D
:1037E4002100C301C4011A30FD007D08F700013037
:1037F4009C3195249B31903100209B310800F100CD
:10380400F201132C0130F0007008F20765307202E7
:10381400031C0D2C0E2C102CFF301C2C0430890B97
:10382400112C20000C0E01397106031D1A2C1B2CBF
:10383400042C0130080001302100BB070030BC3DDE
:103844000030BD3D0030BE3D5208031D2A2C2B2CF8
:10385400382C0130F0007008CA074A08031D332CC5
:10386400342C382CFF30F0007008CA000800F20035
:10387400422CFC3021009900903027009B00552CED
:103884007208F000F1017108003A03194A2C552C12
:103894007008003A03193B2C013A0319552C033ADA
:1038A4000319552C552C08003D001215EF3020004B
:1038B400D60056083D0090058E142100D201D20A8C
:1038C400CA0175302000D0000030D1000030D20091
:1038D4000030D3000030D400D500903106209C3154
:1038E40008002100D20174302000D0000030D10043
:1038F4000030D2000030D3000030D400D500903125
:1039040006209C313D008E1012118E2CFB302000BD
:10391400D60056083D0090051019912C922C882C45
:103924002100CA010800FC00771D992C9A2C9F2CB9
:10393400F0017C088F31B8279C31F71CA22CA32CF2
:10394400A92CF001F00A7C088F31B8279C317C083F
:10395400983EF800F9010E30F93D7808FA0079082C
:10396400FB007A0886007B0887007708810008003E
:103974003D00181CBE2CBF2CE02C20006D088600D6
:10398400870180300106031DC82CC92CDE2C650874
:1039940086006608870084300106031DD22CD32CD0
:1039A400DE2C0C30F0006D08860087017008810061
:1039B4006D088600870181173D001810DF30F00084
:1039C400700890050800F8007108F6007008F5000A
:1039D4007808F4007408F900062D75088600760846
:1039E40087000108F4007408F7000130F50700307F
:1039F400F63D7708F4007908860087017408810091
:103A04000130F4007408F9070130F2020030F33B8E
:103A1400720A031D112D730A031D112D122DEF2C93
:103A24000800203020006E020318192D1A2D1B2DBA
:103A34004B2D3D008E1C1F2D202D212D4B2D2100A3
:103A4400430844040319272D282D302D43088600EC
:103A540044088700811B2F2D302D4B2DA0308C3135
:103A640023249D31F001F00AA0302000D200520836
:103A7400F1000730D3005308F200013092312C22B8
:103A84009D3171082100C4007008C3009E31612675
:103A94009D310800023020006C06031D522D532D69
:103AA400572D8F310E279D31852DEC0121005008B3
:103AB400031D5D2D5E2D842D20006908013EF60056
:103AC40000306A3DF70076088600770887000830E2
:103AD40081004030F6000030F700690886006A086B
:103AE400870042317608C03F7708C13F69088600E5
:103AF4006A0887000C308100690886006A0887001C
:103B04008117852DD001080000309C3139249D3166
:103B1400943175249D31103021008C00F0308D00DB
:103B240003308E009513303024008C0070308D00EB
:103B340023008C018D018E0107302100950495111D
:103B44001512951215178B17053020009500963124
:103B5400CC269D31203020006E020318B22DB32DE7
:103B6400B42DA92D3D008E1CB82DB92DBA2DA92D2B
:103B74009D3113259D31A92D8C310C2C2100D501AB
:103B84002000EB012100CC01CB01D0012000EC018D
:103B94007F30DF0065088600660887005F088105BE
:103BA40004306506E50000306606E6007F30DF007D
:103BB40065088600660887005F088105043065068D
:103BC400E50000306606E6007F30DF006908860005
:103BD4006A0887005F0881052100B801B901BA01AC
:103BE400B101B201B301913133219D310330200081
:103BF400D0000030D1000030D2000030D3000030BB
:103C0400D400D500903106209D31933133239D316A
:103C140008002D302000E00060082100CF002000C3
:103C24006F08FD39031D172E182E542E6F363F3999
:103C3400E0000130E035FF3E031D1C2E6035203EC0
:103C4400E1006108ED006D08E900FF39031D003053
:103C5400EA0004306906E90000306A06EA006D08EB
:103C640086008701010C890C0F390D3A031D3B2E88
:103C74003C2E502E6D08023E86008701403FF00026
:103C8400413FF1000830F2000030F30040309C3135
:103C9400E5249E319D31C0259E31602E9D314C25F9
:103CA4009E31602EFD306F05E00004306006031D78
:103CB4005C2E5D2E602E9031B9209E3108002100CB
:103CC400A919652E662EBB2E291A692E6A2EBB2EC3
:103CD4000B11053020009500D001D101B22E0B1D2F
:103CE400742E752EB22E9531BE259E3101302000E2
:103CF400D0070030D13D00305102FA300319500290
:103D0400031C852E862EAE2E03102100491F03149A
:103D140003188D2E902E21004917922E210049134D
:103D24002000D001D101A52E0230FD003830FC0066
:103D3400AD30890B9B2EFC0B9B2EFD0B9B2E0000A4
:103D44009531BE259E312100A919A92EAA2EAE2E89
:103D5400291EAD2EAE2E962E0B1105302000950097
:103D64002100A919B62EB72EBB2E291EBA2EBB2EA2
:103D7400712E08002100CC01CB01023020006C061A
:103D8400031DC52EC62EEB2E6908013EF30000303C
:103D94006A3DF400730886007408870008308100C7
:103DA4004830F3000030F400690886006A08870090
:103DB40042317308C03F7408C13F690886006A082D
:103DC400870048308100690886006A0887008117E7
:103DD4001C2F21003A0820004702031DF52E210064
:103DE4003908200046020318F82EF92E002F470840
:103DF4002100BA00200046082100B9009F3189271C
:103E04009E314830F3000030F4002000650886003D
:103E14006608870042317308C03F7408C13F6508D3
:103E240086006608870048308100650886006608B9
:103E34008700811708002000C801C901662F2100EE
:103E4400B8175303031D272F282F7A2F2000C814D7
:103E54007A2F2100B8177A2F2100B81720004408C0
:103E64000F39003A0319372F382F7A2FC41B3B2FF1
:103E74003C2F472F44080F390907BF3E86008701AE
:103E8400403FF200413FF300512F44080F39090726
:103E9400653E86008701403FF200413FF30072080F
:103EA400860073088700811F582F592F7A2F7208B4
:103EB400860073088700011D602F612F7A2F01305F
:103EC400F0007008C8007A2F40081F39F000F10193
:103ED4007108003A03196F2F7A2F7008003A0319FA
:103EE400212F013A03192B2F033A03192E2F7A2F6E
:103EF4002100B81F7E2F7F2F882F4830B600003056
:103F0400B70038140230F0007008B9000800083017
:103F1400F0007008F200003021003A020830031962
:103F240039020318962F972FAC2F3908F000700828
:103F3400F2005508031D9F2FA02FA32FD501D50AEA
:103F4400AC2F5503031DA72FA82FAC2F0230F00070
:103F54007008D5007208F000F1017008B902710808
:103F6400BA3B20006508013EF0000030663DF100D8
:103F74007008860071088700720881004830F000DC
:103F840070082100D4003818C82FC92FFA2FDF2F4A
:103F940036088400370885000008F00054088600BD
:103FA4008701700881000130B6070030B73D013049
:103FB400F0007008D4070130F2027208031DE32FE9
:103FC400E42FCA2FFF2F3608840037088500000825
:103FD400F000540886008701700881000130B6079C
:103FE4000030B73D0130F0007008D4070130F20210
:0C3FF4007208031DFE2FFF2FE52F0800B0
:020000040001F9
:08000000FF3FFF3FFF3FFF3F00
:04000E00A40FCF1F4D
:00000001FF
