:0618080000008C310C2CE5
:101810007E148C317E10090020008C310F2C653035
:101820008400003085000B30903102208C31A930CB
:101830008400003085003530903102208C317E10DC
:1018400020009D31082D2000D1009531BE258C311E
:1018500021002A080F39023A031D2F2C302C322C7C
:10186000CD16332CCD120310AB1D03142000510AEA
:10187000860087010110031C3E2C01140310210077
:101880002B1D031420005108860087010110031C42
:101890004A2C0114031021002B1C031420005108B2
:1018A000860087018110031C562C8114031021002F
:1018B000AB1C031420005108860087010111031C92
:1018C000622C0115031021002C1F03142000510865
:1018D000860087018111031C6E2C811503102100E5
:1018E000AC1E031420005108860087010112031C5E
:1018F0007A2C0116031021002C1E0314200051081D
:10190000860087018112031C862C81162000510A53
:10191000860087018110510A860087010111510A52
:10192000860087018112510A8600870101120C0E80
:10193000890C01399B317A238C31FC002000510A3B
:1019400086008701FC0DFC0DFC0D01087C06F739B3
:101950007C06810021002B1AAE2CAF2CD32CAB1BA4
:10196000B22CB32CBD2C20005108023E860087010A
:101970000108F03901388100222D2B1BC02CC12C0D
:10198000CB2C20005108023E860087010108F03967
:1019900007388100222D20005108023E8600870171
:1019A000F0308105222DAB1AD62CD72CFD2CAB1B89
:1019B000DA2CDB2CE52C20005108023E8600870142
:1019C0000108F03903388100222D2B1BE82CE92C6B
:1019D000F32C20005108023E860087010108F039EF
:1019E00005388100222D20005108023E8600870123
:1019F0000108F03904388100222DAB1B002D012D88
:101A00000B2D20005108023E860087010108F039A5
:101A100002388100222D2B1B0E2D0F2D192D200099
:101A20005108023E860087010108F039063881001E
:101A3000222D20005108023E860087010108F0395E
:101A4000083881000E0E890C01399B317A238C31C4
:101A5000003A03192C2D2D2D342D20005108073E5E
:101A6000860087018101542D20000E0E890C890CFF
:101A700001399B317A238C31003A0319402D412DD5
:101A80004B2DFF30FC0020005108073E86008701E7
:101A90007C088100542D8030FC0020005108073E56
:101AA000860087017C0881000E0C890C01399B316E
:101AB0007A238C31003A03195E2D5F2D662D2000AC
:101AC0005108083E860087018101852D20000E0DFA
:101AD0000E0D01399B317A238C31003A0319712D97
:101AE000722D7C2DFF30FC0020005108083E86003E
:101AF00087017C088100852D8030FC002000510882
:101B0000083E860087017C0881002100CD1E892DBA
:101B10008A2DBD2D0310AC1D031420005108860032
:101B200087010113031C952D011703102100AC1F21
:101B3000031420005108860087018113031CA12D86
:101B400081178030FC0020005108033E8600870189
:101B50007C0881008030FC005108043E860087012B
:101B60007C0881005108053E8600870181015108EB
:101B7000063E860087018101EE2D20005108860077
:101B800087010113510886008701811321002D0868
:101B9000FC0020005108033E860087017C0881007C
:101BA00021002E08FC0020005108043E8600870119
:101BB0007C08810021003008FC0020005108053E0F
:101BC000860087017C08810021002F08FC0020008E
:101BD0005108063E860087017C08810021004D1FC8
:101BE000F22DF32D312E20005108860087010030A0
:101BF00001180130D000510886008701010C01391D
:101C0000FC0051088600870101087C06FE397C062D
:101C10008100510886008701500801398110031D99
:101C20008114510886008701003081190130D000ED
:101C3000510886008701010E0139FC005108860019
:101C40008701FC0DFC0DFC0D01087C06F7397C06B4
:101C50008100510886008701500801390112031DD7
:101C60000116080020004203031D372E382E4E2E89
:101C700040081F39003A031D3E2E3F2E4E2E2100F4
:101C8000BC17033020004106031D472E482E4C2E62
:101C90002100D701D70A4E2E2100D701200042088B
:101CA000031D532E542E7F2F40081F39023A031D67
:101CB0005A2E5B2E7F2F44080F39003A0319612EEC
:101CC000622E7F2F44080F39D600023056020318C7
:101CD0006A2E6B2E7F2F20306E06031D702E712E04
:101CE0007F2F2100BC172000C41B772E782E8C2E4E
:101CF00044080F390907C33E86008701403FDB00D7
:101D0000413FDC0044080F39C93E860087010108C5
:101D1000D6005608DA009F2E44080F390907653EA1
:101D200086008701403FDB00413FDC0044080F395B
:101D3000CB3E860087010108D6005608DA005A1803
:101D4000A22EA32EAE2EFB30D600FF30D7005B08AC
:101D50005605DB005C085705DC00B42E04305B043C
:101D6000DB0000305C04DC00C41BB72EB82EC32E91
:101D700044080F390907C33E860087015B08C03F4E
:101D80005C08C13FCD2E44080F390907653E860027
:101D900087015B08C03F5C08C13F03304106031D5B
:101DA000D22ED32EF72E5B0886005C088700811F99
:101DB000DA2EDB2EEC2EC41BDE2EDF2EE62E4408A0
:101DC0000F39C93E860087018114EC2E44080F3973
:101DD000CB3E8600870181145B0886005C08870083
:101DE00001155B0886005C08870081177F2F04308F
:101DF0005B06DB0000305C06DC005B0886005C08EC
:101E00008700811F042F052F222F7F30D6005B080B
:101E100086005C088700560881055B0886005C0820
:101E2000870001170530D0000030D1005C08D300D6
:101E30005B08D2000230D4000030D5009D3142252D
:101E40008E31272F5B0886005C088700011704305D
:101E500020005B06DB0000305C06DC00DA18312F66
:101E6000322F3A2F5B0886005C088700811F392FCC
:101E70003A2F632FC41B3D2F3E2F452F44080F39A7
:101E8000C93E8600870181104B2F44080F39CB3E95
:101E90008600870181103B30D6005B0886005C0815
:101EA0008700560881050530D0000030D1005C085D
:101EB000D3005B08D2000230D4000030D5009D3141
:101EC00042258E316B2F3B30D6005B0886005C08C4
:101ED000870056088105200044080F39983ED60037
:101EE000D7010E30D73D5608D8005708D900FE302C
:101EF000D600580886005908870056088105080052
:101F00002100BC170E302000D8009930D700D9012D
:101F1000570886005808870081010130D707003034
:101F2000D83D0130D6005608D90759080319992F12
:101F30009A2F882F0030F000F1002030F20000309E
:101F4000F3002030933127238F313D000E172000FE
:101F5000DA015A08CB3E8600870181015A08C93E42
:101F60008600870181010130D6005608DA07023069
:101F70005A02031CBC2FBD2FA92F0030F000F10026
:101F80000130F2000030F300DC30933127238F3131
:101F90003D000E1328302000E5000030E600203020
:101FA000D6005608ED006D08E900FF39031D00302A
:101FB000EA004208D60056082100DD005D08031D36
:101FC000E22FE32FE92F10302000D6005608EE0054
:101FD000FE2F01302000D0000030D100DD30D200D3
:101FE0000030D3000130D4000030D5009D314225AF
:0E1FF0008F3120302000D6005608EE00080089
:10200400640080010131890B032800342100C701D9
:10201400C8011A30FD007D08F70001309C311724F7
:1020240090319B3174239031080021005208031D24
:102034001C281D288D280130F0007008D20051089A
:10204400031D252826288D280130F0007008D100B2
:10205400023020006C06031D30283128432865080F
:10206400860066088700413181016508860066089C
:10207400870048308100650886006608870081175C
:102084008D286C03031D472848288D282100D4017E
:102094000830F00020006D0A860087017008810076
:1020A4004030F0000030F1006D08023E86008701E8
:1020B4007008C03F7108C13F0430F0006D0886000D
:1020C4008701700881006D0886008701811721004F
:1020D400D401D40A20006908013EF00000306A3DB2
:1020E400F1007008860071088700083081004030D4
:1020F400F0000030F100690886006A088700423168
:102104007008C03F7108C13F690886006A088700EB
:10211400803081008D28080020006508860066084C
:1021240087000030011B0130F50004306506E5002E
:1021340000306606E60008306E06031DA228A328B8
:10214400B72842087F393D00960016080319AB28CA
:10215400AC28B2281030F30073082000EE00B72832
:102164000430F30073082000EE006C03031DBB2849
:10217400BC28FF284830F3000030F40065088600CE
:102184006608870042317308C03F7408C13F9F311D
:1021940089279031023021005906031DD228D32803
:1021A400E028200065088600660887000430810066
:1021B4006508860066088700811707297508031DCE
:1021C400E428E528F22820006508860066088700D0
:1021D4004830810065088600660887008117072952
:1021E40020006508860066088700083081006508BD
:1021F400860066088700811707292100B51F032977
:1022040004290529B5132000EC0108002000400E24
:10221400890C0339003A03191029112956298129F7
:102224002100BC1708302000DD005D08EE00812984
:1022340092310422913181298F3180279131812972
:10224400DD302100BA000030BB003C14BD01BD0AE2
:10225400BC1781299F311D27913181298E31322666
:10226400913181294408DC3E2100BA000030BB00D2
:1022740027292100BC1720004208DD004408DC3E69
:10228400860087015D08810081290230D00000307A
:10229400D1000030D2000030D3000030D400D5008B
:1022A4009D314225913181294108DD00DE015E081E
:1022B400003A03195E2981295D08003A03192C2983
:1022C400013A03193029023A03193029063A03194D
:1022D4001229033A03191A29013A031947290F3A13
:1022E40003192229013A03191E29033A031934292F
:1022F400013A03193B29073A031981298129080066
:10230400F700700803198729882991297735653ED4
:1023140086008701403FF800413FF900992977354D
:10232400C33E86008701403FF800413FF90078082A
:102334007904031D9E299F29A229F001F101032A92
:102344007108F3000030F4007808860079088700EB
:1023540042317308C03F7408C13F7808013EF3005E
:102364000030793DF4007308860074088700720811
:1023740081004030F30078088600790887007308EC
:102384008105780886007908870081157808860019
:1023940079088700811770080319D129D229E929FE
:1023A4007735653E86008701403FF300413FF400E6
:1023B40004307306F50000307406F6007735653E88
:1023C400860087017508C03F7608C13FFF2977352D
:1023D400C33E86008701403FF300413FF4000430D0
:1023E4007306F50000307406F6007735C33E8600A8
:1023F40087017508C03F7608C13F7908F100780865
:10240400F0000800803020004006031D0A2A0B2A31
:10241400882AC030F00070082100BC00742ABE3045
:102424002100BA009830BB001230BD000030BE005D
:10243400882A4208031D1F2A202A4F2A4208F00036
:10244400F101F035F10DDA30700784009830713DF8
:102454008500003F2100BA00013FBB003B08F100AA
:102464003A08F00002307007840071080318710AFA
:1024740085000008F2007208BD003B08F1003A082C
:10248400F00003307007840071080318710A850096
:102494000008F2007208BE00882A2100BC01882AC4
:1024A400033042020318572A582A4F2A4208F000E0
:1024B400F101F035F10DD030700784009830713D92
:1024C4008500003F2100BA00013FBB003A088400A8
:1024D4003B0885000008F000F1017008BD00710898
:1024E400BE00882A20004308F000F1017108003A78
:1024F40003197D2A4F2A7008013A0319112A033A55
:1025040003191B2A013A0319522A4F2A08003D00D5
:102514000E122100BC1B8F2A902AD72AB51F932A9A
:10252400942AA62A0230F50075082000EC00210048
:102534004F08031D9E2A9F2AA22A9E31BC2692314F
:102544002100D101D201262B20006908013EF500AB
:1025540000306A3DF600750886007608870008306A
:1025640081004030F5000030F600690886006A08F2
:10257400870042317508C03F7608C13F690886006C
:102584006A0887000C308100690886006A088700A1
:102594008117650886006608870004308100650895
:1025A4008600660887008117262B2000C01FDB2ABF
:1025B400DC2AF42AEC01EC0A21005008031DE32A6A
:1025C400E42AE72A9E31BC2692312100D101D201AE
:1025D40020006B08031DEF2AF02A262B90311720C8
:1025E4009231262B0230F5007508EC006908013E93
:1025F400F50000306A3DF60075088600760887000D
:10260400083081004030F5000030F600690886008B
:102614006A08870042317508C03F7608C13F6908DF
:1026240086006A08870004308100690886006A0809
:10263400870081172100D101D20120006B08031DFE
:10264400242B252B262BF02A0800F8007808F40008
:102654007408F90072087304031D312B322B332BD9
:10266400CA2B7008F4007908860087017408810079
:102674007008F40072087907F5007508FF3E8600BB
:102684008701740881000030730203300319720259
:1026940003184D2B4E2B4F2BCA2B7008F400790ACC
:1026A40086008701740881007008F4007908023EEE
:1026B40086008701740881007008F40072087907A5
:1026C400F5007508FE3E86008701740881007008D5
:1026D400F40072087907F5007508FD3E860087014D
:1026E4007408810000307302073003197202031862
:1026F4007C2B7D2B7E2BCA2B7008F4007908033EBB
:1027040086008701740881007008F4007208790754
:10271400F5007508FC3E86008701740881000030CE
:1027240073020930031972020318992B9A2B9B2BFD
:10273400CA2B7909F4007A09F500F40A0319F50A99
:1027440003307405F60000307505F7007608F400D0
:102754007408F9077608F2027708F33BFC30F205B7
:10276400FF30F305C42B7008F40079088600870154
:10277400740881000130F2020030F33B0130F400B0
:102784007408F90772087304031DC92BCA2BB52BEF
:102794000800210012113D009301900198010E30B0
:1027A400F2009930F100F301710886007208870085
:1027B40081010130F1070030F23D0130F000700872
:1027C400F30773080319E72BE82BD62B16303D00CB
:1027D40091009F3097007B309200F4017408F00060
:1027E4000130F035FF3E031DF32B7035203E86008B
:1027F40087010030C03F0030C13FC23FC33F0130BA
:10280400F0007008F40708307402031C0A2C0B2C27
:10281400F02B3D000E1796010E120E13F730F00048
:10282400700890052100BC01B501B601B7013D0057
:1028340090191D2C1E2C102C0130F0007008210062
:10284400D2000130F0007008D100D001CF01D601D0
:10285400F4017435653E860087010030C03FC13FF6
:102864007435C33E860087010030C03FC13F740801
:10287400CB3E8600870181017408C93E860087012A
:1028840081010130F0007008F40702307402031C67
:102894004C2C4D2C2B2C28302000E5000030E60079
:1028A40016303D00980000302000A3004030A20004
:1028B4000830A1000430F0007008A000A017210027
:1028C400DD010030C2000030C1000030C000003023
:1028D400BF00CE012000EE010800200040081F398F
:1028E400013A0319762C772C782C132D44080319FC
:1028F4007C2C7D2C7E2C132D06304106031D832C4D
:10290400842CB92CA62C21005D03031D8A2C8B2C4E
:10291400B92C9430BA009830BB000930BD000030A7
:10292400BE00C030F0007008BC00B92C003021009B
:10293400BA009830BB004E30BD000030BE00C0303D
:10294400F0007008BC00B92C4308F000F1017108D4
:10295400003A0319AE2CB92C7008213A0319852CBE
:10296400033A0319982C013A0319B92CB92C200005
:10297400400E890C0339013A0319C12CC22CF72CDF
:10298400132DDB302100BA000030BB000130BD0044
:102994000030BE00C130F0007008BC00132D803040
:1029A400F00070082100BC0020004308F00070080B
:1029B4002100DB00132DDA302100BA000030BB0007
:1029C4000130BD000030BE008130F0007008BC0052
:1029D400132D8030F00070082100BC002000420854
:1029E400F00070082100DA00132D4108F000F10115
:1029F4007108003A0319FF2C132D7008013A0319CA
:102A0400132D033A0319C32C013A0319DD2C0A3A96
:102A14000319132D033A0319D12C013A0319EB2C92
:102A2400132D080020006D0886008701413FF50042
:102A34007508F200F301730821003702031D242DE9
:102A4400720836020318272D282D2C2D3608F20083
:102A54007208F5007508F200F3017208B6027308F3
:102A6400B73BF401482D7408483E860087010108ED
:102A7400F200330886008701720881000130F200F9
:102A84007208B3070130F2007208F4077508740283
:102A9400031C4D2D4E2D352D360837040319532DA7
:102AA400542D8D2D20006908013EF20000306A3D4E
:102AB400F3007208860073088700083081004830EC
:102AC400F2000030F300690886006A08870042318A
:102AD4007208C03F7308C13F6D0886008701011B5F
:102AE400742D752D812D690886006A088700483089
:102AF4008100690886006A0887008117BD2D69086E
:102B040086006A08870008308100690886006A0820
:102B140087008117BD2D20006908013EF2000030B6
:102B24006A3DF3007208860073088700083081004C
:102B34004030F2000030F300690886006A0887001C
:102B440042317208C03F7308C13F690886006A08B1
:102B5400870004308100690886006A0887008117AD
:102B64002100B51320006B08031DB92DBA2DBD2D0E
:102B7400903117209531080022008E150E16210081
:102B8400CD150830890BC42D20000D0E890C890C3D
:102B94000139F3000D0D0D0D0139F4000130F43548
:102BA400890BD12D0D0E890C0139F5000230F53554
:102BB400890BD92D0D0E0139F6000230F635FF3E92
:102BC400031DE02D7635750474047304F700033097
:102BD400F735FF3E031DEA2D7735F8007808FB0032
:102BE40022008E110830890BF52D20000D0E890C62
:102BF400890C0139F3000D0D0D0D0139F40001307C
:102C0400F435890B022E0D0E890C0139F5000230C2
:102C1400F535890B0A2E0D0E0139F6000230F63512
:102C2400FF3E031D112E76357504740473040F39A9
:102C34007B04F7007708FB007B08F300730821008E
:102C4400A9000130F9000030FA0022000E12210020
:102C5400CD114D0CF300F30C730C01399B3183231C
:102C64009531013A0319372E382E3E2E7908A93EA4
:102C7400860087018101C22E0830890B3F2E200077
:102C84000D0E890C890C0139F3000D0D0D0D013960
:102C9400F4000130F435890B4C2E0D0E890C0139EA
:102CA400F5000230F535890B542E0D0E0139F6006E
:102CB4000230F635FF3E031D5B2E76357504740431
:102CC4007304F7000330F735FF3E031D652E773597
:102CD400F8007808FB0022000E162100CD154D0CDB
:102CE400F300F30C730C01399B3183239531013AC2
:102CF40003197D2E7E2E7F2E382E0830890B802ED0
:102D040020000D0E890C890C0139F3000D0D0D0DF9
:102D14000139F4000130F435890B8D2E0D0E890C28
:102D24000139F5000230F535890B952E0D0E013968
:102D3400F6000230F635FF3E031D9C2E76357504F1
:102D4400740473040F397B04F7007708FB007B08D5
:102D5400F3007908A93E86008701730881000130D9
:102D6400F9070030FA3D7A08803AF30080307302A4
:102D7400031DBE2E08307902031CC12EC22E272E3D
:102D84001030890BC32E22008E150E161030890BBD
:102D9400C92E080020006E08031DD12ED22EE42E69
:102DA4003D008E019201163091009F3097007B30D8
:102DB4009200DD2E8E158E1DE02EE12EDC2E2000DD
:102DC400EE01EE0A6E03031DE82EE92EF72E3D00F8
:102DD4008E1AED2EEE2EF72E900192011214121679
:102DE40002302000E2006208EE003D00101DFB2EC0
:102DF400FC2E092F121DFF2E002F092FFB3020005F
:102E0400E20062083D0090059B31F52396313D00B8
:102E14008E1C0D2F0E2F112F20001211FF2F101CAE
:102E2400142F152F262F121C182F192F262F9331EC
:102E3400CB23963104302000E2006208EE00FE301D
:102E4400E20062083D009005101E292F2A2F312F21
:102E5400121E2D2F2E2F312F9B31D82396313D005A
:102E6400101F352F362F632F121F392F3A2F4A2F59
:102E740073302000D0000030D1000030D200003088
:102E8400D3000130D4000030D5009D314225963165
:102E9400BF302000E20062083D0090059B319F2373
:102EA4009631210053080319582F592F5B2F0130F5
:102EB400D3025308031D5F2F602F632F9031172017
:102EC40096313D00901E672F682F6F2F921E6B2F37
:102ED4006C2F6F2F9C313C2496313D00901C732F36
:102EE400742F8A2F921C772F782F8A2FFF3020007F
:102EF400D0007F30D1000030D2000030D300013048
:102F0400D4000030D5009D31422596313D00930117
:102F1400043020006E020318902F912F932F12116A
:102F2400FF2F3D00921D972F982FFD2F2000E401C5
:102F34003D00901D9E2F9F2FFD2F0F082000E200C3
:102F44006208EF006F0CE200E20C620C0F39E30040
:102F540063082100D500F7302000E20062083D003C
:102F6400900520006F19B72FB82FC92F21005508DD
:102F7400C93E86008701010801392000E2000130C2
:102F8400E20601086206FE3962068100D92F21009B
:102F94005508CB3E86008701010801392000E20074
:102FA4000130E20601086206FE3962068100210052
:102FB4005508031DDE2FDF2FE32F9E310B2696319C
:102FC400F22F72302000D0000030D1006F30D200D8
:102FD4000030D3000030D400D5009D314225963115
:102FE40001302000E2006208E40704306402031C9C
:102FF400FC2FFD2F9A2F20001211080005340134F4
:1030040009340534A1340134153400342534013431
:1030140035340034453401347534013495340E3478
:10302400053409341934013429340E34813402341A
:1030340095340234813401340534013425340734A1
:1030440046343B34013475340434953401346534E6
:1030540014340934393481344234653400349534B9
:103064000134813401342634FF3400344634FF34CF
:1030740000340934303409343134093432340934F5
:1030840035340934333409343434753408349534DC
:10309400063481340234C034343403344D340034BF
:1030A4006934003463340034723400346F340034CF
:1030B40063340034683400346934003470340034C8
:1030C4002034003454340034653400346334003420
:1030D400683400346E3400346F3400346C3400349B
:1030E4006F340034673400347934003420340034CD
:1030F400493400346E340034633400342E340034E4
:103104000934023422340034013401340034C0342C
:1031140032340934043400340034013403340034C8
:1031240000340034093421341134013400340134BE
:1031340022344E34003407340534813403344034AB
:10314400003401341A340334533400345334003417
:1031540033340034443400342034003447340034ED
:10316400613400346D340034653400347034003418
:1031740061340034643400341234013400340234D1
:103184000034003400340834D83404348634E6344B
:10319400013400340134023400340134D634983418
:1031A4004E349834A4349834043403340934043445
:0431B4008234983495
:1036E80021004D104D11CD124D130800F000700847
:1036F80003197F2B812B0130822B00300800F10049
:10370800F201952B0130F0007008F2076530720263
:10371800031C8F2B902B922BFF309E2B0430890B90
:10372800932B20000C0E01397106031D9C2B9D2B39
:10373800862B0130080001302100BF070030C03D52
:103748000030C13D0030C23D5608031DAC2BAD2BE7
:10375800BA2B0130F0007008CE074E08031DB52BB8
:10376800B62BBA2BFF30F0007008CE000800F2002C
:10377800C42BFC3021009900903027009B00D72BE8
:103788007208F000F1017108003A0319CC2BD72B0D
:103798007008003A0319BD2B013A0319D72B033AD5
:1037A8000319D72BD72B08003D001215EF30200046
:1037B800D60056083D0090058E142100D601D60A81
:1037C800CE0175302000D0000030D1000030D2008A
:1037D8000030D3000030D400D5009D3142259B3104
:1037E80008002100D60174302000D0000030D1003C
:1037F8000030D2000030D3000030D400D5009D3115
:1038080042259B313D008E101211102CFB302000F8
:10381800D60056083D0090051019132C142C0A2CBC
:103828002100CE010800FC00771D1B2C1C2C212C2C
:10383800F0017C089D317E259C31F71C242C252C19
:103848002B2CF001F00A7C089D317E259C317C08E8
:10385800983EF800F9010E30F93D7808FA00790829
:10386800FB007A0886007B0887007708810008003B
:103878003D00181C402C412C622C20006D0886004D
:10388800870180300106031D4A2C4B2C602C6508EB
:1038980086006608870084300106031D542C552CC9
:1038A800602C0C30F0006D088600870170088100DC
:1038B8006D088600870181173D001810DF30F00081
:1038C800700890050800F8007108F6007008F50007
:1038D8007808F4007408F900882C750886007608C2
:1038E80087000108F4007408F7000130F50700307C
:1038F800F63D7708F400790886008701740881008E
:103908000130F4007408F9070130F2020030F33B8B
:10391800720A031D932C730A031D932C942C712C8B
:103928000800203020006E0203189B2C9C2C9D2C34
:10393800CD2C3D008E1CA12CA22CA32CCD2C21001B
:10394800470848040319A92CAA2CB22C470886005A
:1039580048088700811BB12CB22CCD2CA0308C31AB
:1039680023249C31F001F00AA0302000D200520834
:10397800F1000930D3005308F2000130913182215F
:103988009C3171082100C8007008C7009E3161266B
:103998009C310800023020006C06031DD42CD52C65
:1039A800D92C953114259C31072DEC0121005408A0
:1039B800031DDF2CE02C062D20006908013EF600CF
:1039C80000306A3DF70076088600770887000830DF
:1039D80081004030F6000030F700690886006A0868
:1039E800870042317608C03F7708C13F69088600E2
:1039F8006A0887000C308100690886006A08870019
:103A08008117072DD401080000309B31BB239D315D
:103A18009331CB239D31303021008C00F0308D0064
:103A2800E7308E009513303024008C00F0308D0084
:103A380023008C018D018E0107302100950495111A
:103A48001512951215178B17053020009500963121
:103A5800CC269D31203020006E020318342D352DE0
:103A6800362D2B2D3D008E1C3A2D3B2D3C2D2B2D1C
:103A78009C3195249D312B2D8C310C2C552D0130EA
:103A88009B31BB239D317D2D02309B31BB239D3162
:103A98007D2D903108209D317D2D94316F249D31ED
:103AA8007D2D20005108003A03195E2D7F3A031935
:103AB800782D7D2D5008013A03194D2D033A03192D
:103AC8007D2D013A0319512D063A03197D2D773AB8
:103AD80003197D2D013A03197D2D073A0319482D45
:103AE800013A0319432D7D2D5008FF3A03197D2D06
:103AF8007D2D0800F5002030F1007108F6007008EF
:103B0800F1000130F135890B862D7508F20001307E
:103B1800F235FF3E031D8C2D72357107F30001301D
:103B2800F335FF3E031D942D7335F4007408F60732
:103B380076088600870181137008031DA42DA52D22
:103B4800AE2D7535C33E860087017608C03F00302C
:103B5800C13FB62D7535653E860087017608C03FA2
:103B68000030C13F76088600870101137608043EBD
:103B780086008701011708002100D9012000EB0108
:103B88002100D001CF01D4012000EC017F30DF00FB
:103B980065088600660887005F08810504306506A9
:103BA800E50000306606E6007F30DF006508860025
:103BB800660887005F08810504306506E500003067
:103BC8006606E6007F30DF00690886006A0887001D
:103BD8005F0881052100BC01BD01BE01B501B60128
:103BE800B701913108219D3103302000D000003009
:103BF800D1000030D2000030D3000030D400D5000E
:103C08009D3142259D31923189229D3108002D3008
:103C18002000E00060082100D30020006F08FD3973
:103C2800031D172E182E542E6F363F39E000013031
:103C3800E035FF3E031D1C2E6035203EE100610883
:103C4800ED006D08E900FF39031D0030EA0004307B
:103C58006906E90000306A06EA006D0886008701F7
:103C6800010C890C0F390D3A031D3B2E3C2E502EAA
:103C78006D08023E86008701403FF000413FF10099
:103C88000830F2000030F30040309C3167249E3148
:103C98009D31C0259E31602E9C31CE249E31602EF0
:103CA800FD306F05E00004306006031D5C2E5D2EBC
:103CB800602E90318E209E3108002100AB19652EB0
:103CC800662EBB2E2B1A692E6A2EBB2E0B110530C1
:103CD80020009500D001D101B22E0B1D742E752E37
:103CE800B22E9531BE259E3101302000D00700301C
:103CF800D13D00305102FA3003195002031C852EC1
:103D0800862EAE2E031021004D1F031403188D2E8E
:103D1800902E21004D17922E21004D132000D00126
:103D2800D101A52E0230FD003830FC00AD30890BE2
:103D38009B2EFC0B9B2EFD0B9B2E00009531BE2568
:103D48009E312100AB19A92EAA2EAE2E2B1EAD2E08
:103D5800AE2E962E0B110530200095002100AB19D0
:103D6800B62EB72EBB2E2B1EBA2EBB2E712E0800D8
:103D78002100D001CF01023020006C06031DC52EA2
:103D8800C62EEB2E6908013EF30000306A3DF400B0
:103D98007308860074088700083081004830F300F3
:103DA8000030F400690886006A0887004231730809
:103DB800C03F7408C13F690886006A088700483018
:103DC8008100690886006A08870081171C2F210076
:103DD8003E0820004702031DF52E21003D08200063
:103DE80046020318F82EF92E002F47082100BE00BE
:103DF800200046082100BD009F3189279E314830A8
:103E0800F3000030F400200065088600660887008B
:103E180042317308C03F7408C13F650886006608D0
:103E2800870048308100650886006608870081178A
:103E380008002000C801C901662F2100BC175703DC
:103E4800031D272F282F7A2F2000C8147A2F21002E
:103E5800BC177A2F2100BC17200044080F39003AFC
:103E68000319372F382F7A2FC41B3B2F3C2F472F8E
:103E780044080F390907C33E86008701403FF20016
:103E8800413FF300512F44080F390907653E86006A
:103E98008701403FF200413FF30072088600730833
:103EA8008700811F582F592F7A2F720886007308B0
:103EB8008700011D602F612F7A2F0130F0007008F4
:103EC800C8007A2F40081F39F000F1017108003A44
:103ED80003196F2F7A2F7008003A0319212F013A1E
:103EE80003192B2F033A03192E2F7A2F2100BC1FF9
:103EF8007E2F7F2F882F4830BA000030BB003C143B
:103F08000230F0007008BD0008000830F0007008AA
:103F1800F200003021003E02083003193D02031868
:103F2800962F972FAC2F3D08F0007008F200590823
:103F3800031D9F2FA02FA32FD901D90AAC2F5903F6
:103F4800031DA72FA82FAC2F0230F0007008D9004E
:103F58007208F000F1017008BD027108BE3B200034
:103F68006508013EF0000030663DF10070088600EB
:103F780071088700720881004830F000700821003D
:103F8800D8003C18C82FC92FFA2FDF2F3A08840011
:103F98003B0885000008F000580886008701700873
:103FA80081000130BA070030BB3D0130F0007008D5
:103FB800D8070130F2027208031DE32FE42FCA2F3D
:103FC800FF2F3A0884003B0885000008F0005808D5
:103FD80086008701700881000130BA070030BB3DB8
:103FE8000130F0007008D8070130F2027208031D92
:083FF800FE2FFF2FE52F08004A
:020000040001F9
:08000000FF3FFF3FFF3FFF3F00
:04000E00A40FCF1F4D
:00000001FF
