:0618080000008C310C2CE5
:101810007E148C317E10090020008C310F2C653035
:101820008400003085000B30903100208C31A830CE
:101830008400003085003330903100208C317E10E0
:1018400020009A31AD2A2000D2005208073E8600BF
:1018500087018101520A860087013F30810594315A
:1018600070248C31210029080F39023A031D392CCC
:101870003A2C3D2C2000EB163F2C2000EB12EB1EE7
:10188000422C432CB22C03102100AA1D031420006B
:10189000520A860087018110031C4F2C811403100B
:1018A00021002A1D0314200052088600870101111F
:1018B000031C5B2C0115031021002A1C03142000BB
:1018C0005208860087018110031C672C81142000B8
:1018D0005208860087010110031021002B1F0314FA
:1018E00020005208860087018111031C782C811585
:1018F0002000520886008701811252088600870165
:1019000001120C0E890C013999314A218C31FC00ED
:1019100003102100AA1C03140030093D7C04FD00C3
:101920002000520A8600870101087D06FE397D06E7
:10193000810003102100AB1E03142000520A860010
:1019400087018112031CA52C8116031021002B1E78
:1019500003142000520A860087010112031CB12CD7
:1019600001161F2D03102100AA1D03142000520A86
:10197000860087018110031CBE2C811403102100F6
:101980002A1D031420005208860087010111031C40
:10199000CA2C0115031021002A1C03142000520830
:1019A000860087018110031CD62C811403102100AE
:1019B000AB1E031420005208860087010110031C8F
:1019C000E22C0114031021002B1F031420005208E5
:1019D000860087018111031CEE2C81150310210064
:1019E000AA1C031420005208860087018112031CE0
:1019F000FA2C8116031021002B1E0314200052081C
:101A0000860087010112031C062D011620000C0E12
:101A1000890C013999314A218C31FC002000520A8D
:101A20008600870101087C06FE397C068100520A87
:101A3000860087018112520A860087010112200068
:101A4000520A860087010111520A8600870181111E
:101A50008030FC005208033E860087017C0881002C
:101A60008030FC005208043E860087017C0881001B
:101A70008030FC005208053E860087017C0881000A
:101A80008030FC005208063E860087017C088100F9
:101A9000EB1E4B2D4C2D652D03102100AB1F0314A5
:101AA00020005208860087018113031C582D8117DE
:101AB00003102100AB1D031420005208860087018B
:101AC0000113031C642D01179D2DF03021002E02FF
:101AD000031C6B2D6C2D722D20005208860087018F
:101AE0008117772D20005208860087018113F0307E
:101AF00021002F02031C7D2D7E2D842D20005208F5
:101B0000860087010117892D200052088600870171
:101B1000011321002C08FC0020005208033E86001F
:101B200087017C08810021002D08FC00200052085C
:101B3000043E860087017C08810020006B1CA12DDB
:101B4000A22DF12D5208023E860087010108F039CE
:101B50000838810021002A1BAE2DAF2DB62D2000A4
:101B60005208053E860087018101CD2DAA1BB92DA3
:101B7000BA2DC42DFF30FC0020005208053E86001F
:101B800087017C088100CD2D8030FC0020005208A8
:101B9000053E860087017C08810021002A1AD12D8C
:101BA000D22DD92D20005208063E860087018101E2
:101BB000692EAA1ADC2DDD2DE72DFF30FC00200058
:101BC0005208063E860087017C088100692E80301D
:101BD000FC0020005208063E860087017C08810038
:101BE000692E21002A1AF52DF62D1A2EAA1BF92D81
:101BF000FA2D042E20005208023E860087010108BB
:101C0000F03901388100692E2A1B072E082E122E6A
:101C100020005208023E860087010108F03907388B
:101C20008100692E20005208023E86008701F030B4
:101C30008105692EAA1A1D2E1E2E442EAA1B212EA6
:101C4000222E2C2E20005208023E86008701010819
:101C5000F03903388100692E2A1B2F2E302E3A2EA0
:101C600020005208023E860087010108F03905383D
:101C70008100692E20005208023E8600870101087B
:101C8000F03904388100692EAA1B472E482E522EA7
:101C900020005208023E860087010108F039023810
:101CA0008100692E2A1B552E562E602E20005208C8
:101CB000023E860087010108F03906388100692E4E
:101CC00020005208023E860087010108F0390838DA
:101CD00081000E0E890C013999314A218C31003A6C
:101CE0000319732E742E7B2E20005208053E8600A9
:101CF000870181019B2E20000E0E890C890C013971
:101D000099314A218C31003A0319872E882E922E60
:101D1000FF30FC0020005208053E860087017C0849
:101D200081009B2E8030FC0020005208053E86007A
:101D300087017C0881000E0C890C013999314A21F8
:101D40008C31003A0319A52EA62EAD2E2000520884
:101D5000063E860087018101CC2E20000E0D0E0D5F
:101D6000013999314A218C31003A0319B82EB92E24
:101D7000C32EFF30FC0020005208063E860087017B
:101D80007C088100CC2E8030FC0020005208063EEA
:101D9000860087017C0881006B1FCF2ED02E0F2F6D
:101DA000520886008701003001190130D000520826
:101DB00086008701010C0139FC005208860087016A
:101DC000FC0DFC0D01087C06FB397C0681005208E5
:101DD00086008701500801398110031D81145208C3
:101DE00086008701003081190130D000520886003A
:101DF000870101080139FC00520886008701FC0DAB
:101E0000FC0DFC0D01087C06F7397C0681005208A8
:101E100086008701500801390110031D0114EB1FD2
:101E2000122F132F532F5208860087010030011BF9
:101E30000130D100520886008701010E0139FC00F3
:101E4000520886008701FC0EFC0DFC0D01087C0683
:101E5000BF397C068100520886008701510801398C
:101E60000112031D01165208860087010030811BF4
:101E70000130D100520886008701010E890C01391A
:101E8000FC00520886008701FC0CFC0C01087C0653
:101E90007F397C068100520886008701510801398C
:101EA0008112031D8116080020006D08860087013D
:101EB000413FF5007508F200F30173082100340278
:101EC000031D642F720833020318672F682F6C2FCD
:101ED0003308F2007208F5007508F200F301720889
:101EE000B3027308B43BF401882F7408483E86009F
:101EF00087010108F200300886008701720881001E
:101F00000130F2007208B0070130F2007208F407E5
:101F100075087402031C8D2F8E2F752F330834041F
:101F20000319932F942FCD2F20006908013EF20052
:101F300000306A3DF300720886007308870008309D
:101F400081004830F2000030F300690886006A081A
:101F5000870042317208C03F7308C13F6D08860098
:101F60008701011BB42FB52FC12F690886006A08AD
:101F7000870048308100690886006A088700811759
:101F8000FD2F690886006A0887000830810069080B
:101F900086006A0887008117FD2F20006908013E2E
:101FA000F20000306A3DF300720886007308870073
:101FB000083081004030F2000030F30069088600EC
:101FC0006A08870042317208C03F7308C13F690840
:101FD00086006A08870004308100690886006A0864
:101FE000870081172100B21320006C08031DF92F10
:0C1FF000FA2FFD2F9E311F268F310800B4
:10200000640080010131890B012800342100AA19E4
:102010000A280B285E28AA1A0E280F285E280B1102
:10202000053020009500D001D10155280B1D19283D
:102030001A28552894317024903101302000D0079F
:102040000030D13D00305102FA3003195002031C18
:102050002A282B2851280310EB1F031403183128BA
:1020600034282000EB1736282000EB13D001D101D3
:1020700048280230FD003830FC00AD30890B3E2886
:10208000FC0B3E28FD0B3E2800009431702490315B
:102090002100AA194C284D285128AA1E5028512841
:1020A00039280B110530200095002100AA19592864
:1020B0005A285E28AA1E5D285E28162808002100DE
:1020C000B9170E302000D8009930D700D901570831
:1020D00086005808870081010130D7070030D83DBD
:1020E0000130D6005608D9075908031978287928ED
:1020F00067280030F000F1002030F2000030F300DB
:1021000020309231832290313D000E172000DA01F9
:102110005A08C83E8600870181015A08C63E8600DB
:10212000870181010130D6005608DA0702305A02D1
:10213000031C9B289C2888280030F000F100013007
:10214000F2000030F300D9309231832290313D000B
:102150000E1328302000E5000030E6002030D600C5
:102160005608ED006D08E900FF39031D0030EA0054
:102170004208D60056082100DA005A08031DC1287B
:10218000C228C82810302000D6005608EE00DD28EE
:1021900001302000D0000030D100DA30D200003011
:1021A000D3000130D4000030D5009A31E7229031BD
:1021B00020302000D6005608EE000800F700700816
:1021C0000319E328E428ED287735653E860087016A
:1021D000403FF800413FF900F5287735C03E8600C2
:1021E0008701403FF800413FF90078087904031D5A
:1021F000FA28FB28FE28F001F1015F297108F3009D
:102200000030F400780886007908870042317308AE
:10221000C03F7408C13F7808013EF3000030793DAB
:10222000F40073088600740887007208810040304B
:10223000F30078088600790887007308810578081C
:10224000860079088700811578088600790887005C
:102250008117700803192D292E2945297735653EE8
:1022600086008701403FF300413FF40004307306CD
:10227000F50000307406F6007735653E860087016C
:102280007508C03F7608C13F5B297735C03E8600A0
:102290008701403FF300413FF40004307306F5002E
:1022A00000307406F6007735C03E86008701750859
:1022B000C03F7608C13F7908F1007808F0000800B7
:1022C000803020004006031D66296729E429C030BC
:1022D000F00070082100B900D029B6302100B70005
:1022E0009830B8001230BA000030BB00E429420830
:1022F000031D7B297C29AB294208F000F101F03550
:10230000F10DD230700784009830713D8500003F98
:102310002100B700013FB8003808F1003708F0008D
:1023200002307007840071080318710A85000008E4
:10233000F2007208BA003808F1003708F0000330E4
:102340007007840071080318710A85000008F20004
:102350007208BB00E4292100B901E42903304202DC
:102360000318B329B429AB294208F000F101F03574
:10237000F10DC830700784009830713D8500003F32
:102380002100B700013FB8003708840038088500F5
:102390000008F000F1017008BA007108BB00E429E0
:1023A00020004308F000F1017108003A0319D9290F
:1023B000AB297008013A03196D29033A03197729EB
:1023C000013A0319AE29AB2908003D000E12210085
:1023D000B91BEB29EC29312AB21FEF29F029002A79
:1023E0000230F5007508D5004B08031DF829F929BE
:1023F000FC299D31532591312100CD01CE01822A46
:1024000020006908013EF50000306A3DF6007508BD
:10241000860076088700083081004030F5000030E3
:10242000F600690886006A08870042317508C03FD7
:102430007608C13F690886006A0887000C30810071
:10244000690886006A0887008117650886006608A3
:1024500087000430810065088600660887008117C0
:10246000822A2000C01F352A362A4E2A2100D50193
:10247000D50A4C08031D3D2A3E2A412A9D31532589
:1024800091312100CD01CE0120006C08031D492AA5
:102490004A2A822A9E311F269131822A0230F50073
:1024A00075082100D50020006908013EF5000030C4
:1024B0006A3DF600750886007608870008308100BE
:1024C0004030F5000030F600690886006A08870091
:1024D00042317508C03F7608C13F690886006A0826
:1024E000870004308100690886006A088700811728
:1024F0002100CD01CE0120006C08031D802A812A15
:10250000822A4A2A0800F8007808F4007408F900C2
:1025100072087304031D8D2A8E2A8F2A262B7008B9
:10252000F400790886008701740881007008F400BF
:1025300072087907F5007508FF3E86008701740868
:102540008100003073020330031972020318A92AB4
:10255000AA2AAB2A262B7008F400790A8600870184
:10256000740881007008F4007908023E8600870133
:10257000740881007008F40072087907F500750886
:10258000FE3E86008701740881007008F40072081E
:102590007907F5007508FD3E860087017408810003
:1025A000003073020730031972020318D82AD92A9F
:1025B000DA2A262B7008F4007908033E860087018A
:1025C000740881007008F40072087907F500750836
:1025D000FC3E8600870174088100003073020930D8
:1025E000031972020318F52AF62AF72A262B79090D
:1025F000F4007A09F500F40A0319F50A03307405AA
:10260000F60000307505F7007608F4007408F90745
:102610007608F2027708F33BFC30F205FF30F30551
:10262000202B7008F4007908860087017408810067
:102630000130F2020030F33B0130F4007408F90776
:1026400072087304031D252B262B112B0800210073
:1026500012113D009301900198010E30F200993063
:10266000F100F301710886007208870081010130D2
:10267000F1070030F23D0130F0007008F3077308F5
:102680000319432B442B322B16303D0091009F3011
:1026900097007B309200F4017408F0000130F035AF
:1026A000FF3E031D4F2B7035203E86008701003012
:1026B000C03F0030C13FC23FC33F0130F00070084F
:1026C000F40708307402031C662B672B4C2B3D006B
:1026D0000E1796010E120E13F730F00070089005D9
:1026E0002100B901B201B301B4013D009019792B69
:1026F0007A2B6C2B0130F00070082100CE000130E5
:10270000F0007008CD00CC01CB01D201F40174358A
:10271000653E860087010030C03FC13F7435C03E32
:10272000860087010030C03FC13F7408C83E860064
:10273000870181017408C63E86008701810101304E
:10274000F0007008F40702307402031CA82BA92BB8
:10275000872B28302000E5000030E60016303D00D1
:10276000980000302000A3004030A2000830A100F3
:102770000430F0007008A000A0172100DA0100303A
:10278000BF000030BE000030BD000030BC00CA01F8
:102790002000EE010800200040081F39013A03190B
:1027A000D22BD32BD42B6F2C44080319D82BD92B25
:1027B000DA2B6F2C06304106031DDF2BE02B152C86
:1027C000022C21005A03031DE62BE72B152C8C301D
:1027D000B7009830B8000930BA000030BB00C030F4
:1027E000F0007008B900152C00302100B7009830B7
:1027F000B8005630BA000030BB00C030F00070089E
:10280000B900152C4308F000F1017108003A0319D2
:102810000A2C152C7008213A0319E12B033A0319ED
:10282000F42B013A0319152C152C2000400E890CAD
:102830000339013A03191D2C1E2C532C6F2CD83050
:102840002100B7000030B8000130BA000030BB00F2
:10285000C130F0007008B9006F2C8030F0007008B3
:102860002100B90020004308F00070082100D800C2
:102870006F2CD7302100B7000030B8000130BA000B
:102880000030BB008130F0007008B9006F2C803040
:10289000F00070082100B90020004208F000700824
:1028A0002100D7006F2C4108F000F1017108003AB7
:1028B00003195B2C6F2C7008013A03196F2C033A33
:1028C00003191F2C013A0319392C0A3A03196F2CEA
:1028D000033A03192D2C013A0319472C6F2C0800D9
:1028E00022008E150E162000EB150830890B762C71
:1028F00020000D0E890C890C0139F3000D0D0D0D12
:102900000139F4000130F435890B832C0D0E890C4C
:102910000139F5000230F535890B8B2C0D0E01398C
:10292000F6000230F635FF3E031D922C7635750415
:1029300074047304F7000330F735FF3E031D9C2C2D
:102940007735F8007808FB0022008E110830890BDB
:10295000A72C20000D0E890C890C0139F3000D0DF8
:102960000D0D0139F4000130F435890BB42C0D0E36
:10297000890C0139F5000230F535890BBC2C0D0EA0
:102980000139F6000230F635FF3E031DC32C7635C3
:102990007504740473040F397B04F7007708FB0097
:1029A0007B08F30073082100A8000130F900003013
:1029B000FA0022000E122000EB116B0CF300F30C56
:1029C000730C0139993162219431013A0319E92CD0
:1029D000EA2CF02C7908A83E860087018101742D2D
:1029E0000830890BF12C20000D0E890C890C01395F
:1029F000F3000D0D0D0D0139F4000130F435890B94
:102A0000FE2C0D0E890C0139F5000230F535890BCD
:102A1000062D0D0E0139F6000230F635FF3E031D7E
:102A20000D2D7635750474047304F7000330F73503
:102A3000FF3E031D172D7735F8007808FB002200B4
:102A40000E162000EB156B0CF300F30C730C013920
:102A5000993162219431013A03192F2D302D312DF6
:102A6000EA2C0830890B322D20000D0E890C890CC0
:102A70000139F3000D0D0D0D0139F4000130F4356D
:102A8000890B3F2D0D0E890C0139F5000230F5350B
:102A9000890B472D0D0E0139F6000230F635FF3E49
:102AA000031D4E2D76357504740473040F397B04B1
:102AB000F7007708FB007B08F3007908A83E860042
:102AC0008701730881000130F9070030FA3D7A0868
:102AD000803AF30080307302031D702D08307902B4
:102AE000031C732D742DD92C1030890B752D2200E9
:102AF0008E150E161030890B7B2D080020006E08F5
:102B0000031D832D842D962D3D008E0192011630DC
:102B100091009F3097007B3092008F2D8E158E1D77
:102B2000922D932D8E2D2000EE01EE0A6E03031DD3
:102B30009A2D9B2DA92D3D008E1A9F2DA02DA92DDC
:102B4000900192011214121602302000E200620875
:102B5000EE003D00101DAD2DAE2DBB2D121DB12D73
:102B6000B22DBB2DFB302000E20062083D00900535
:102B70009931D42195313D008E1CBF2DC02DC32D20
:102B800020001211B12E101CC62DC72DD82D121CDD
:102B9000CA2DCB2DD82D9331272395310430200019
:102BA000E2006208EE00FE30E20062083D0090059F
:102BB000101EDB2DDC2DE32D121EDF2DE02DE32D6D
:102BC0009931B72195313D00101FE72DE82D152EC5
:102BD000121FEB2DEC2DFC2D73302000D0000030A7
:102BE000D1000030D2000030D3000130D4000030DA
:102BF000D5009A31E7229531BF302000E20062080B
:102C00003D00900599317E21953121004F0803192F
:102C10000A2E0B2E0D2E0130CF024F08031D112E50
:102C2000122E152E9E311F2695313D00901E192E15
:102C30001A2E212E921E1D2E1E2E212E9A311B225F
:102C400095313D00901C252E262E3C2E921C292EBF
:102C50002A2E3C2EFF302000D0007F30D1000030E3
:102C6000D2000030D3000130D4000030D5009A31BA
:102C7000E72295313D009301043020006E020318D5
:102C8000422E432E452E1211B12E3D00921D492E8B
:102C90004A2EAF2E2000E4013D00901D502E512EF3
:102CA000AF2E0F082000E2006208EF006F0CE20078
:102CB000E20C620C0F39E30063082100D100F73009
:102CC0002000E20062083D00900520006F19692E87
:102CD0006A2E7B2E21005108C63E8600870101081E
:102CE00001392000E2000130E20601086206FE39E7
:102CF000620681008B2E21005108C83E86008701A4
:102D0000010801392000E2000130E20601086206F4
:102D1000FE396206810021005108031D902E912E7C
:102D2000952E9B31F2239531A42E72302000D000D5
:102D30000030D1006F30D2000030D3000030D4001A
:102D4000D5009A31E722953101302000E200620877
:102D5000E40704306402031CAE2EAF2E4C2E20007C
:102D60001211080020004203031DB72EB82ECE2EEC
:102D700040081F39003A031DBE2EBF2ECE2E210063
:102D8000B917033020004106031DC72EC82ECC2ED4
:102D90002100D301D30ACE2E2100D3012000420806
:102DA000031DD32ED42EFF2F40081F39023A031DD6
:102DB000DA2EDB2EFF2F44080F39003A0319E12EDB
:102DC000E22EFF2F44080F39D600023056020318B6
:102DD000EA2EEB2EFF2F20306E06031DF02EF12E73
:102DE000FF2F2100B9172000C41BF72EF82E0C2F3F
:102DF00044080F390907C03E86008701403FDB00C9
:102E0000413FDC0044080F39C63E860087010108B7
:102E1000D6005608DA001F2F44080F390907653E0F
:102E200086008701403FDB00413FDC0044080F394A
:102E3000C83E860087010108D6005608DA005A18F5
:102E4000222F232F2E2FFB30D600FF30D7005B0818
:102E50005605DB005C085705DC00342F04305B04AA
:102E6000DB0000305C04DC00C41B372F382F432FFD
:102E700044080F390907C03E860087015B08C03F40
:102E80005C08C13F4D2F44080F390907653E860095
:102E900087015B08C03F5C08C13F03304106031D4A
:102EA000522F532F772F5B0886005C088700811F05
:102EB0005A2F5B2F6C2FC41B5E2F5F2F662F440889
:102EC0000F39C63E8600870181146C2F44080F39E4
:102ED000C83E8600870181145B0886005C08870075
:102EE00001155B0886005C0887008117FF2F0430FE
:102EF0005B06DB0000305C06DC005B0886005C08DB
:102F00008700811F842F852FA22F7F30D6005B087A
:102F100086005C088700560881055B0886005C080F
:102F2000870001170530D0000030D1005C08D300C5
:102F30005B08D2000230D4000030D5009A31E7227D
:102F40009631A72F5B0886005C08870001170430C4
:102F500020005B06DB0000305C06DC00DA18B12FD5
:102F6000B22FBA2F5B0886005C088700811FB92F3B
:102F7000BA2FE32FC41BBD2FBE2FC52F44080F3916
:102F8000C63E860087018110CB2F44080F39C83E0A
:102F90008600870181103B30D6005B0886005C0804
:102FA0008700560881050530D0000030D1005C084C
:102FB000D3005B08D2000230D4000030D5009A3133
:102FC000E7229631EB2F3B30D6005B0886005C0889
:102FD000870056088105200044080F39983ED60026
:102FE000D7010E30D73D5608D8005708D900FE301B
:102FF000D600580886005908870056088105080041
:103000000534013409340534A13401341534003455
:1030100025340134353400344534013475340134F9
:1030200095341034053409341934013429341034FA
:1030300081340234053401342534073446343B34BA
:10304000013475340434953401346534143409344E
:103050003934813442346534003495340134813458
:1030600001342634FF3400344634FF34003409344C
:103070003034093431340934323409343534753458
:103080000834953404348134023406340034FF3477
:103090000934203495340134813402340A34213423
:1030A00026349534083491340234C0342434033443
:1030B000503400344F3400344B3400344B3400343B
:1030C000453400344E34003420340034433400346A
:1030D0004F3400344E34003454340034523400340D
:1030E0004F3400344C3400344C3400344534003414
:1030F00052340034093402342234003401340134AF
:103100000034C0343234093404340034003401341F
:1031100003340034003400340934213411340134D0
:1031200000340134223456340034073405348134F9
:103130000334403400340A341A340334483400343D
:103140004F340034523400344934003420340034D5
:10315000433400344F3400342E3400342C340034E3
:103160004C340034543400344434003412340134C8
:103170000034023400340034003408340D340F3489
:103180009234003400340134013402340334013405
:10319000CE3498349C349834563498340434033400
:0831A000093404347A34983438
:1032860020006B106B11EB126B13EB130800F000B0
:10329600700803194F2951290130522900300800BE
:1032A6002100C401C5011A30FD007D08F700013078
:1032B6009931F62199319931432199310800F1006C
:1032C600F20174290130F0007008F20765307202CD
:1032D600031C6E296F297129FF307D290430890B63
:1032E600722920000C0E01397106031D7B297C29E9
:1032F60065290130080001302100BC070030BD3DC2
:103306000030BE3D0030BF3D5208031D8B298C297D
:1033160099290130F0007008CA074A08031D94294C
:1033260095299929FF30F0007008CA000800F200BC
:10333600A329FC3021009900903027009B00B62974
:103346007208F000F1017108003A0319AB29B62999
:103356007008003A03199C29013A0319B629033A61
:103366000319B629B62908003D001215EF302000D2
:10337600D60056083D0090058E142100D201D20ACF
:10338600CA0175302000D0000030D1000030D200D4
:103396000030D3000030D400D5009A31E7229931AD
:1033A60008002100D20174302000D0000030D10086
:1033B6000030D2000030D3000030D400D5009A315E
:1033C600E72299313D008E101211EF29FB302000C3
:1033D600D60056083D0090051019F229F329E9296F
:1033E6002100CA010800FC00771DFA29FB29002AE2
:1033F600F0017C089B3165239931F71C032A042AC6
:103406000A2AF001F00A7C089B31652399317C0871
:10341600983EF800F9010E30F93D7808FA0079086F
:10342600FB007A0886007B08870077088100080081
:103436003D00181C1F2A202A412A20006D088600FC
:10344600870180300106031D292A2A2A3F2A65089A
:1034560086006608870084300106031D332A342A55
:103466003F2A0C30F0006D08860087017008810045
:103476006D088600870181173D001810DF30F000C7
:10348600700890050800F8007108F6007008F5004D
:103496007808F4007408F900672A7508860076082B
:1034A60087000108F4007408F7000130F5070030C2
:1034B600F63D7708F40079088600870174088100D4
:1034C6000130F4007408F9070130F2020030F33BD2
:1034D600720A031D722A730A031D722A732A502A5E
:1034E6000800023021005506031D7A2A7B2A7F2A0E
:1034F6008F3154279A31AC2AD5015008031D842AEE
:10350600852AAB2A20006908013EF60000306A3D94
:10351600F70076088600770887000830810040307B
:10352600F6000030F700690886006A088700423115
:103536007608C03F7708C13F690886006A08870099
:103546000C308100690886006A0887008117AC2A5A
:10355600D0010800003099319A219A3193312723FE
:103566009A31303021008C00F0308D00E7308E002B
:103576009513303024008C00F0308D0023008C0130
:103586008D018E01073021009504951115129512B3
:1035960015178B1705302000950095317E259A3139
:1035A600203020006E020318D92ADA2ADB2AD02A14
:1035B6003D008E1CDF2AE02AE12AD02A9B312323F4
:1035C6009A31D02A8C310C2CFA2A013099319A2161
:1035D6009A31222B023099319A219A31222B993134
:1035E60053219A31222B9331CB239A31222B20005F
:1035F6005108003A0319032B7F3A03191D2B222B7E
:103606005008013A0319F22A033A0319222B013A08
:103616000319F62A063A0319222B773A0319222BA5
:10362600013A0319222B073A0319ED2A013A031925
:10363600E82A222B5008FF3A0319222B222B0800D6
:10364600203020006E020318292B2A2B2B2B642BEB
:103656003D008E1C2F2B302B312B642B2100440870
:1036660045040319372B382B402B440886004508A0
:103676008700811B3F2B402B642BA0308C312324E9
:103686009B31F001F00AA0302000D3005308F1006E
:103696000830D4005408F20001309031DE209B310E
:1036A60071082100C5007008C4009C3148249B3174
:1036B6009C31A1249B319C31FA249B319031062008
:1036C6009B310800F5002030F1007108F600700803
:1036D600F1000130F135890B6D2B7508F2000130D0
:1036E600F235FF3E031D732B72357107F30001306F
:1036F600F335FF3E031D7B2B7335F4007408F60784
:1037060076088600870181137008031D8B2B8C2B8E
:10371600952B7535C03E860087017608C03F003080
:10372600C13F9D2B7535653E860087017608C03FF3
:103736000030C13F76088600870101137608043EF3
:1037460086008701011708002100D6012000EC0140
:103756002100CC01CB01D001D5017F302000DF0054
:1037660065088600660887005F08810504306506DF
:10377600E50000306606E6007F30DF00650886005B
:10378600660887005F08810504306506E50000309D
:103796006606E6007F30DF00690886006A08870053
:1037A6005F0881052100B901BA01BB01B201B3016D
:1037B600B4019F3186279B3103302000D0000030B2
:1037C600D1000030D2000030D3000030D400D50044
:1037D6009A31E7229B319131E5219B3108002D304A
:1037E6002000E00060082100CF0020006F08FD39AE
:1037F600031DFE2BFF2B3B2C6F363F39E0000130BB
:10380600E035FF3E031D032C6035203EE1006108D4
:10381600ED006D08E900FF39031D0030EA000430B1
:103826006906E90000306A06EA006D08860087012D
:10383600010C890C0F390D3A031D222C232C372C31
:103846006D08023E86008701403FF000413FF100CF
:103856000830F2000030F30040309A3146229B31A6
:103866009B31A7239B31472C9A3174229B31472CDD
:10387600FD306F05E00004306006031D432C442C28
:10388600472C9F310C279B3108002100AA194C2C8C
:103896004D2CA02C2A1B502C512CA02C0B11053082
:1038A60020009500D001D101972C0B1D5B2C5C2CC0
:1038B600972C943170249C3101302000D0070030C1
:1038C600D13D00305102FA3003195002031C6C2C12
:1038D6006D2C932C03106B1C03140318732C762C7D
:1038E60020006B14782C20006B10D001D1018A2C9B
:1038F6000230FD003830FC00AD30890B802CFC0B0B
:10390600802CFD0B802C0000943170249C3121000A
:10391600AA198E2C8F2C932C2A1F922C932C7B2C3D
:103926000B110530200095002100AA199B2C9C2C18
:10393600A02C2A1F9F2CA02C582C08002100AA1965
:10394600A52CA62CF92CAA1BA92CAA2CF92C0B11F8
:10395600053020009500D001D101F02C0B1DB42CB0
:10396600B52CF02C943170249C3101302000D00706
:103976000030D13D00305102FA3003195002031CC9
:10398600C52CC62CEC2C03106B1D03140318CC2C71
:10399600CF2C20006B15D12C20006B11D001D1014A
:1039A600E32C0230FD003830FC00AD30890BD92CF9
:1039B600FC0BD92CFD0BD92C0000943170249C31C2
:1039C6002100AA19E72CE82CEC2CAA1FEB2CEC2CD6
:1039D600D42C0B110530200095002100AA19F42CD7
:1039E600F52CF92CAA1FF82CF92CB12C0800210073
:1039F600AA19FE2CFF2C522D2A1A022D032D522D08
:103A06000B11053020009500D001D101492D0B1D69
:103A16000D2D0E2D492D943170249C31013020003E
:103A2600D0070030D13D00305102FA300319500260
:103A3600031C1E2D1F2D452D03106B1F0314031889
:103A4600252D282D20006B172A2D20006B13D00161
:103A5600D1013C2D0230FD003830FC00AD30890B21
:103A6600322DFC0B322DFD0B322D000094317024CB
:103A76009C312100AA19402D412D452D2A1E442D89
:103A8600452D2D2D0B110530200095002100AA197A
:103A96004D2D4E2D522D2A1E512D522D0A2D080028
:103AA6002100CC01CB0102305506031D5B2D5C2D98
:103AB600822D20006908013EF30000306A3DF400C3
:103AC6007308860074088700083081004830F300C8
:103AD6000030F400690886006A08870042317308DE
:103AE600C03F7408C13F690886006A0887004830ED
:103AF6008100690886006A0887008117B22D3B0895
:103B060020004702031D8B2D21003A0820004602A3
:103B160003188E2D8F2D962D47082100BB002000FF
:103B260046082100BA009E3195269D314830F300A3
:103B36000030F400200065088600660887004231E0
:103B46007308C03F7408C13F650886006608870091
:103B560048308100650886006608870081170800DE
:103B66002000C801C901FC2D2100B9175303031D0C
:103B7600BD2DBE2D102E2000C814102E2100B91701
:103B8600102E2100B917200044080F39003A0319F6
:103B9600CD2DCE2D102EC41BD12DD22DDD2D4408BA
:103BA6000F390907C03E86008701403FF200413FBA
:103BB600F300E72D44080F390907653E86008701A3
:103BC600403FF200413FF300720886007308870009
:103BD600811FEE2DEF2D102E7208860073088700C8
:103BE600011DF62DF72D102E0130F0007008C800CB
:103BF600102E40081F39F000F1017108003A031930
:103C0600052E102E7008003A0319B72D013A031934
:103C1600C12D033A0319C42D102E2100B91F142EED
:103C2600152E1E2E4830B7000030B8003914023069
:103C3600F0007008BA00080021004E08031D242E6B
:103C4600252E942E0130F0007008CE004D08031D7D
:103C56002D2E2E2E942E0130F0007008CD0002304D
:103C66005506031D372E382E4B2E2000650886007C
:103C7600660887004131810165088600660887006D
:103C86004830810065088600660887008117942EF3
:103C96005503031D4F2E502E942ED0010830F000F0
:103CA60020006D0A86008701700881004030F00010
:103CB6000030F1006D08023E860087017008C03FA3
:103CC6007108C13F0430F0006D0886008701700856
:103CD60081006D088600870181172100D001D00A76
:103CE60020006908013EF00000306A3DF1007008CE
:103CF600860071088700083081004030F0000030EF
:103D0600F100690886006A08870042317008C03FE2
:103D16007108C13F690886006A0887008030810003
:103D2600942E08000830F0007008F20000302100E0
:103D36003B02083003193A020318A22EA32EB82E0E
:103D46003A08F0007008F2005608031DAB2EAC2EA0
:103D5600AF2ED601D60AB82E5603031DB32EB42EA7
:103D6600B82E0230F0007008D6007208F000F1019B
:103D76007008BA027108BB3B20006508013EF000DE
:103D86000030663DF10070088600710887007208F1
:103D960081004830F00070082100D4003918D42E74
:103DA600D52E062FEB2E370884003808850000082C
:103DB600F000540886008701700881000130B707BB
:103DC6000030B83D0130F0007008D4070130F2022F
:103DD6007208031DEF2EF02ED62E0B2F3708840007
:103DE600380885000008F00054088600870170082E
:103DF60081000130B7070030B83D0130F00070088F
:103E0600D4070130F2027208031D0A2F0B2FF12E80
:103E16000800200065088600660887000030011B40
:103E26000130F50004306506E50000306606E60060
:103E360008306E06031D202F212F352F42087F39AB
:103E46003D00960016080319292F2A2F302F10300F
:103E5600F30073082000EE00352F0430F3007308DA
:103E66002000EE0021005503031D3A2F3B2F7F2F24
:103E76004830F3000030F40020006508860066082C
:103E8600870042317308C03F7408C13F9E319526B2
:103E96009F31023021005606031D522F532F602FEB
:103EA60020006508860066088700043081006508E2
:103EB6008600660887008117852F7508031D642F05
:103EC600652F722F20006508860066088700483037
:103ED600810065088600660887008117852F200007
:103EE6006508860066088700083081006508860038
:103EF600660887008117852FB21F822F832F842F94
:103F0600B213D50108002000400E890C0339003A8F
:103F160003198E2F8F2FD42FFF2F2100B9170830AA
:103F26002000DD005D08EE00FF2F913160219F31FA
:103F3600FF2F90315F209F31FF2FDA302100B7002D
:103F46000030B8003914BA01BA0AB917FF2F9D31EB
:103F5600B3259F31FF2F9631B2269F31FF2F44089C
:103F6600D93E2100B7000030B800A52F2100B917AF
:103F760020004208DD004408D93E860087015D081E
:103F86008100FF2F0230D0000030D1000030D20077
:103F96000030D3000030D400D5009A31E7229F319B
:103FA600FF2F4108DD00DE015E08003A0319DC2F11
:103FB600FF2F5D08003A0319AA2F013A0319AE2F05
:103FC600023A0319AE2F063A0319902F033A031942
:103FD600982F013A0319C52F0F3A0319A02F013A5A
:103FE60003199C2F033A0319B22F013A0319B92F6B
:0A3FF600073A0319FF2FFF2F080000
:020000040001F9
:08000000FF3FFF3FFF3FFF3F00
:04000E00A40FCF1F4D
:00000001FF
