:041808008C310C2CE7
:101810007E148C317E10090020008C310F2C483052
:1018200084000030850015309B3150238C316030AE
:1018300084000130850010309B3150238C31E03022
:1018400084000130850010309B3150238C31603092
:1018500084000230850007309B3150237E10200029
:101860009C31DA2C2000E9009631C6268C3122000A
:1018700061080F39023A031D402C2000D316422C78
:101880002000D3126908023E86008701031022005F
:10189000E21D031401120318011620006908033E1B
:1018A0008600870103102200621D03140112031831
:1018B000011620006908033E8600870103102200FC
:1018C000621C031481120318811620006908033E6C
:1018D0008600870103102200631E03140110031801
:1018E000011420006908033E8600870103102200CE
:1018F000631F031401130318011720006908033E36
:101900008600870103102200E31E031481130318CD
:10191000811720006908033E86008701031022001A
:10192000E21C031481100318811420006908033E8F
:101930008600870101116908023E86008701811235
:101940006908063E860087010030C03FC13F690834
:10195000083E860087010030C03FC13F69080B3E4A
:1019600086008701810169080A3E8600870181019E
:1019700069080C3E86008701810169080D3E8600DA
:10198000870181012200E21D631BCF2CE31E631A35
:10199000CF2C20006908033E860087010115200036
:1019A0000C0E890C01398F31F5278C31FD00690847
:1019B000023E86008701FD0EFD0D01087D06DF3920
:1019C0007D0681002200E21D6219EF2C621CE218E4
:1019D000EF2C20006908023E860087018116200056
:1019E000531C392D6908023E8600870101106908E1
:1019F000023E8600870181106908023E8600870149
:101A000001116908023E8600870181112200621BD4
:101A1000102D200069080B3E8600870180301E2DA6
:101A2000E21B1F2D200069080B3E860087017F30D6
:101A3000810069080A3E86008701FF30810022008C
:101A4000E21A292D200069080D3E860087018030AA
:101A5000372D621A682D200069080D3E8600870127
:101A60007F30810069080C3E86008701FF308100CD
:101A7000682D6908023E8600870103102200621E5D
:101A8000031401100318011420006908023E8600A7
:101A9000870103102200E21E031481100318811431
:101AA00020006908023E8600870103102200621FA1
:101AB000031401110318011520006908023E860075
:101AC000870103102200E21F0314811103188115FE
:101AD00020000E0E890C01398F31F5278C31003A28
:101AE0000319782D69080B3E8600870180308D2D03
:101AF0000E0E890C890C01398F31F5278C31003A93
:101B000003198E2D69080B3E860087017F30810006
:101B100069080A3E86008701FF3081000E0D0E0D18
:101B200001398F31F5278C31003A03199D2D690851
:101B30000D3E860087018030B12D0E0C890C0139D5
:101B40008F31F5278C31003A0319B22D69080D3E0B
:101B5000860087017F30810069080C3E860087017E
:101B6000FF308100D31ED72D6908023E8600870111
:101B700003102200E31D03140113031801172000B2
:101B80006908023E8600870103102200E31F031448
:101B900081130318811720006908043E860087011D
:101BA00081016908053E8600870181011F2E6908B1
:101BB000023E8600870101136908023E8600870104
:101BC00081136908073E8600870122006408803E71
:101BD000810020006908073E860087017F300106EA
:101BE000031DF82D6908063E86008701FF3081003D
:101BF0006908093E86008701220065089D3142255B
:101C00008C3181006908093E860087017F3001061A
:101C1000031D102E6908083E86008701FF308100F1
:101C20006908043E860087012200670881002000C1
:101C30006908053E860087012200660881002000B1
:101C4000D31C6A2E6908033E860087010030011A02
:101C50000130E4006908033E86008701010E890C0B
:101C60000139FD006908033E86008701FD0E010869
:101C70007D06EF397D0681006908033E86008701F5
:101C8000640801398112031D81166908033E86002C
:101C900087010030011B0130E4006908033E860023
:101CA0008701010D010D0139FD006908033E860021
:101CB0008701FD0EFD0DFD0D01087D06BF397D0676
:101CC00081006908033E8600870164080139811399
:101CD000031D8117D31FBE2E6908033E86008701AE
:101CE000003001180130E500690886008701443F93
:101CF000E6006908033E8600870101106908043E7A
:101D0000860087018101F0306602031C8C2E690871
:101D1000033E8600870101146503031D952E6908A3
:101D2000043E86008701FF3081006908033E86007B
:101D30008701003081180130E500690886008701BD
:101D4000453FE6006908033E860087018110690867
:101D5000053E860087018101F0306602031CB52E26
:101D60006908033E8600870181146503031DBE2EAA
:101D70006908053E86008701FF308100E701E80120
:101D8000200067086907FD007D080E3E8600870178
:101D900081010130E7070030E83D6808803AFD0026
:101DA00080307D02031DD62E06306702031808001E
:101DB000C02E20004203031DED2E40081F39003ABB
:101DC000031DED2ECA1703304106031DEB2E220022
:101DD000EE01EE0AED2E2200EE0120004208031D66
:101DE000080040081F39023A031D080044080F3953
:101DF000003A0319080044080F39E3000230630277
:101E00000318080020305906031D0800CA17C41B18
:101E1000182F44080F390907E43E86000130870077
:101E2000403FE800413FE90044080F39EA3E252FD2
:101E300044080F3909074D3E86008701403FE800FE
:101E4000413FE90044080F39EC3E8600013087002D
:101E50000108E7006718362FFB30E300FF30E4008D
:101E600068086305E800690864053B2F04306804CE
:101E7000E80000306904E900C41B4A2F44080F3908
:101E80000907E43E8600013087006808C03F690802
:101E9000C13F542F44080F3909074D3E8600870182
:101EA0006808C03F6908C13F03304106031D762F13
:101EB0006808860069088700811F6B2FC41B642F88
:101EC00044080F39EA3E672F44080F39EC3E86007C
:101ED00001308700811468088600690887000115B1
:101EE00068088600690887008117080004306806C2
:101EF000E80000306906E900680886006908870084
:101F0000811F9F2F7F30E3006808860069088700E3
:101F10006308810568088600690887000117053095
:101F2000DD000030DE006908E0006808DF000230F4
:101F3000E1000030E2009D310B258E31A42F6808AE
:101F40008600690887000117043020006806E80051
:101F500000306906E900E718B32F680886006908B1
:101F60008700811FD82FC41BB92F44080F39EA3EC0
:101F7000BC2F44080F39EC3E8600013087008110E9
:101F80003B30E30068088600690887006308810524
:101F90000530DD000030DE006908E0006808DF0081
:101FA0000230E1000030E2009D310B258E31E02F40
:101FB0003B30E300680886006908870063088105F4
:101FC000200044080F39983EE300E4010E30E43D60
:101FD0006308E5006408E600FE30E300650886005B
:101FE00066088700630881050800F0007008031D7B
:0A1FF000FB2F01300800003008004C
:10200200FC00771D0928F0017C089D31B52590312F
:10201200F71C1028F001F00A7C089D31B5257C08D8
:10202200983EF800F9010E30F93D7808FA00790877
:10203200FB007A0886007B08870077088100080089
:10204200E901E801023020005606031D5328510819
:10205200013EF3000030523DF4007308860074081C
:10206200870040308100B030F3000030F400FF30D0
:102072007305F5007F307405F6005108860052089A
:10208200870042317508C03F7608C13F510886007B
:1020920052088700483081005108860052088700A4
:1020A200811708004C084702031D59284B084602B5
:1020B20003185F284708CC004608CB0090318120E6
:1020C200B030F3000030F400FF307305F5007F30CC
:1020D2007405F60020004D0886004E088700423144
:1020E2007508C03F7608C13F4D0886004E0887003C
:1020F200483081004D0886004E088700811708008D
:102102004030F20000304C02403003194B020318F9
:1021120097284B08F2005708031D9228D701D70AC7
:1021220097285703031D97280230D7007208F00042
:10213200F1017008CB027108CC3B4D08013EF00062
:1021420000304E3DF1007008860071088700720869
:102152008100B0302200EF0020004A1CC728E1288D
:1021620022006F0886008701200048088400490881
:102172008500000881000130C8070030C93D0130E8
:10218200F00070082200EF070130F2027208031912
:102192000800B12822006F08860087012000480845
:1021A200840049088500000881000130C80700301A
:1021B200C93D0130F00070082200EF070130F20241
:1021C200720803190800CB282000400E890C03393D
:1021D200003A031D08002029CA170830D900080058
:1021E2009231922208009131B52108005C30C8007A
:1021F2000030C9004A14CB01CB0ACA1708009F312C
:10220200A52708008E31D926080044085B3EC80085
:10221200C901FB28CA1744085B3E860087014208B1
:10222200810008000230DD000030DE000030DF00F7
:10223200E0000030E100E2009D310B25080041087A
:10224200EA00EB016B08003A031928294B296A08B6
:10225200003A03190029013A03190329023A031922
:102262000329063A0319ED28033A0319F128013A22
:10227200031913290F3A0319F728013A0319F4280D
:10228200033A03190629013A03190B29073A0319DC
:102292004B294B2908004D0886004E088700003064
:1022A200011B0130F70004304D06CD0000304E0610
:1022B200CE0008305906031D6A2942087F393D00C5
:1022C2009600160803196729103068290430200087
:1022D200D9005603031DAF29B030F3000030F400DB
:1022E200FF307305F5007F307405F6004D08860057
:1022F2004E08870042317508C03F7608C13F9031D1
:1023020081209131023020005706031D94294D0887
:1023120086004E088700043081004D0886004E0872
:102322008700811708007708031DA3294D0886003E
:102332004E088700483081004D0886004E0887000D
:10234200811708004D0886004E088700083081007A
:102352004D0886004E088700811708002400E21B02
:10236200E2132000D60108002000CA170E30E40054
:102372009930E300E5016308860064088700810163
:102382000130E3070030E43D0130FD007D08E50740
:1023920065080319BC290030F000F1002030F2007A
:1023A2000030F30020309331072391313D000E17A6
:1023B2002000E6016608EC3E8600013087008101BC
:1023C2006608EA3E86000130870081010130FD0087
:1023D2007D08E60702306602031CDB290030F000AC
:1023E200F1000130F2000030F3005B30933107233B
:1023F20091313D000E1328302000CD000030CE0078
:102402002030D8005808D100D2014208DC005C0814
:10241200031D0E2A1030D90008000130DD00003003
:10242200DE005C30DF000030E0000130E10000300F
:10243200E2009D310B2520302000D9000800220047
:102442006B08031D08000130EB006A08031D080039
:102452000130EA00023020005606031D422A4D08D0
:1024620086004E088700413181014D0886004E08E2
:102472008700483081004D0886004E08870081178A
:1024820008005603031D08002300EF012000580A2C
:1024920086008701403081004030F0000030F100BA
:1024A200FF307005F2007F307105F3005808023EDC
:1024B200860087017208C03F7308C13F5808860032
:1024C20087010430810058088600870181172300A4
:1024D200EF01EF0A20005108013EF0000030523DAA
:1024E200F10070088600710887004030810040309A
:1024F200F0000030F100FF307005F2007F3071050E
:10250200F300510886005208870042317208C03F2A
:102512007308C13F5108860052088700803081004D
:102522000800803020004006031D0800C030CA00A9
:10253200F32A9F30C8009830C9001230CB00003017
:10254200CC0008004208031DD12A4208F000F10124
:10255200F035F10DE730700784001830713D803896
:102562008500003FC800013FC9004908F100480842
:10257200F00002307007840071080318710A8500A8
:102582000008CB004908F1004808F000033070074A
:10259200840071080318710A85000008CC00080045
:1025A200CA010800033042020318D12A4208F0008F
:1025B200F101F035F10DDB30700784001830713D08
:1025C20080388500003FC800013FC90048088400E8
:1025D200490885000008F000F1017008CB0071087D
:1025E200CC0008004308F000F1017108003A031919
:1025F200FB2AD12A7008013A03199A2A033A0319CD
:10260200A32A013A0319D32AD12A0800F80078082C
:10261200F90072087304031908007908860087011B
:102622007008810072087907F4007408FF3E860082
:1026320087017008810000307302033003197202AF
:10264200031C0800790A8600870170088100790856
:10265200023E860087017008810072087907F40043
:102662007408FE3E860087017008810072087907AF
:10267200F4007408FD3E8600870170088100003076
:102682007302073003197202031C08007908033E23
:10269200860087017008810072087907F4007408C7
:1026A200FC3E860087017008810000307302093009
:1026B20003197202031C08007909F4007A09F50073
:1026C200F40A0319F50A03307405F60000307505A3
:1026D200F7007608F4007408F9077608F202770822
:1026E200F33BFC30F205FF30F30572087304031963
:1026F2000800790886008701700881000130F20223
:102702000030F33B0130F4007408F907762BF70030
:1027120070080319942B77354D3E86008701403FA0
:10272200F800413F9C2B7735E43E8600013087005C
:10273200403FF800413FF90078087904031DA42BBB
:10274200F001F10108007108F3000030F400FF30DD
:102752007305F5007F307405F60078088600790865
:10276200870042317508C03F7608C13F7808013EB4
:10277200F3000030793DF400730886007408870086
:10278200720881004030F3007808860079088700DB
:102792007308810578088600790887008115780812
:1027A200860079088700811770080319EF2B7735A7
:1027B2004D3E86008701403FF300413FF400043064
:1027C2007306F50000307406F60077354D3E86003C
:1027D20087017508C03F7608C13F072C7735E43E74
:1027E200860001308700403FF300413FF40004308F
:1027F2007306F50000307406F6007735E43E860075
:10280200013087007508C03F7608C13F7908F100A2
:102812007808F00008003D000E122000CA1B582C58
:102822002400E21F212C02302000D600220068087A
:10283200031D1D2C903121202200EA01EB0108002A
:1028420020005108013EF7000030523DF8007708A1
:10285200860078088700403081004030F700003061
:10286200F800FF307705F9007F307805FA0051084B
:1028720086005208870042317908C03F7A08C13F7A
:1028820051088600520887000C30810051088600EA
:102892005208870081174D0886004E0887000430D1
:1028A20081004D0886004E08870081170800C01F6E
:1028B2006D2CD601D60A22006908031D632C9031C3
:1028C200212094312200EA01EB0120005408031D6B
:1028D20008009231202208000230D6005108013E41
:1028E200F7000030523DF80077088600780887002C
:1028F200403081004030F7000030F800FF307705AB
:10290200F9007F307805FA005108860052088700E6
:1029120042317908C03F7A08C13F51088600520807
:102922008700043081005108860052088700811711
:10293200632C210012113D009301900198010E3089
:10294200F5009930F400F6017408860075088700D6
:1029520081010130F4070030F53D0130F0007008CC
:10296200F60776080319A52C16303D0091009F301A
:1029720097007B309200F7017708F0000130F035C4
:10298200FF3E031DC02C7035203E860087010030BB
:10299200C03F0030C13FC23FC33F0130F00070086A
:1029A200F70708307702031CBD2C3D000E17960175
:1029B2000E120E13F730F000700890052000CA01C5
:1029C2002400E201E301E4013D009019DB2C013017
:1029D2002200EB000130EA00E901E801ED01F70114
:1029E20077354D3E860087010030C03FC13F7735C5
:1029F200E43E8600013087000030C03FC13F7708C7
:102A0200EC3E86000130870081017708EA3E8600AD
:102A12000130870081010130F0007008F7070230B1
:102A22007702031CF12C28302000CD000030CE00AC
:102A320016303D0098004030F0000030F100FF30C9
:102A42007005F2007F307105F30072082000A200C9
:102A52007308A3004030A1000430A000A017DC01DD
:102A620000302300E3000030E2000030E1000030DB
:102A7200E000EE012000D901080058088600870115
:102A8200413FF9007908F400F50175082400640259
:102A9200031D4D2D740863020318512D6308F900BC
:102AA2007908F400F5017408E3027508E43BF801C3
:102AB200790878020318722D7808B03E86008701E3
:102AC2000108F4006008860061088700740881002C
:102AD2000130E0070030E13D0130F4007408F807EE
:102AE200592D630864040319B32D20005108013ED7
:102AF200F4000030523DF500740886007508870026
:102B020040308100B030F4000030F500FF30740531
:102B1200F6007F307505F7005108860052088700DD
:102B220042317608C03F7708C13F580886008701C6
:102B3200011BA72D510886005208870048308100EA
:102B42005108860052088700811708005108860044
:102B52005208870008308100510886005208870019
:102B62008117080020005108013EF4000030523D58
:102B7200F5007408860075088700403081004030F7
:102B8200F4000030F500FF307405F6007F30750563
:102B9200F700510886005208870042317608C03F8C
:102BA2007708C13F5108860052088700043081002F
:102BB200510886005208870081172400E213200082
:102BC2005408031D080092312022080020005908F1
:102BD200031DFB2D3D008E019201163091009F30A6
:102BE20097007B3092008E19F82D8E15F42D20005F
:102BF200D901D90A5903031D082E3D008E1A082E49
:102C0200900192011214121602302000D9003D00E8
:102C12001019121D152EFB302000EE006E083D002B
:102C220090059B31D72395313D008E1C1B2E200031
:102C3200121108001018121C282E94319A24953172
:102C42000430D900FE30EE006E083D009005101AE7
:102C5200121E2E2E9B31862395313D00101F572EBA
:102C6200121F422E73302000DD000030DE000030E3
:102C7200DF00E0000130E1000030E2009D310B2571
:102C82009531BF302000EE006E083D0090059B316B
:102C92006E23953122006C080319512E0130EC028B
:102CA2006C08031D572E9231202295313D00901A57
:102CB200921E5E2E9B31F42395319018921C722E37
:102CC200FF302000DD007F30DE000030DF00E0005A
:102CD2000130E1000030E2009D310B2595313D00CD
:102CE20093010430200059020318792E12110800B2
:102CF2003D00921DC32E2000EF01C02E0F082000C0
:102D0200DA005A0CEE00EE0C6E0C0F39D500F730DB
:102D1200EE006E083D00900520005A19932E5508CA
:102D2200EA3E952E5508EC3E8600013087000108E8
:102D32000139EE000130EE0601086E06FE396E061C
:102D420081005508031DA92E9D31F4259531B72E1A
:102D52007230DD000030DE005A30DF000030E0006B
:102D62000030E100E2009D310B2595310130200059
:102D7200EE006E08EF0704306F020318C32E3D0009
:102D820090197F2E200012110800200053132200F8
:102D92008E150E162000D3150830890BCE2E20007A
:102DA2000D0E890C890C0139F3000D0D0D0D013941
:102DB200F4000130F435890BDB2E0D0E890C01393C
:102DC200F5000230F535890BE32E0D0E0139F600C0
:102DD2000230F635FF3E031DEA2E76357504740483
:102DE2007304F7000330F735FF3E031DF42E7735E9
:102DF200E10022008E110830890BFD2E20000D0EFD
:102E0200890C890C0139F3000D0D0D0D0139F40007
:102E12000130F435890B0A2F0D0E890C0139F500AA
:102E22000230F535890B122F0D0E0139F6000230F2
:102E3200F635FF3E031D192F7635750474047304AD
:102E42000F396104E10061082200E0000130200036
:102E5200E2000030E30022000E122000D311530CD6
:102E6200F300F30C730C01399B3156239631013A6E
:102E720003195C2F6208603E8600013087008101E1
:102E820053176308DE006208DD005E08803AF30033
:102E920080307302083003195D020318F62F2000F8
:102EA2005D08603E86000130870081010130DD0748
:102EB2000030DE3D462F0830890B5D2F20000D0EBD
:102EC200890C890C0139F3000D0D0D0D0139F40047
:102ED2000130F435890B6A2F0D0E890C0139F5008A
:102EE2000230F535890B722F0D0E0139F6000230D2
:102EF200F635FF3E031D792F76357504740473048D
:102F0200F7000330F735FF3E031D832F7735E100CD
:102F120022000E162000D315530CF300F30C730C91
:102F220001399B3156239631013A0319B92F6208B0
:102F3200603E860001308700810153176308E0007C
:102F42006208DF006008803AF300803073020830C4
:102F520003195F020318F62F20005F08603E860007
:102F62000130870081010130DF070030E03DA32FEF
:102F72000830890BBA2F20000D0E890C890C0139FB
:102F8200F3000D0D0D0D0139F4000130F435890BFC
:102F9200C72F0D0E890C0139F5000230F535890B6A
:102FA200CF2F0D0E0139F6000230F635FF3E031D1C
:102FB200D62F76357504740473040F396104E10069
:102FC2006208603E8600013087006108810001309E
:102FD200E2070030E33D6308803AF3008030730279
:102FE200083003196202031C2C2F1030890BF72FB3
:102FF20022008E150E161030890BFD2F08000934A1
:1030020002348B340034043401340034A034FA34F2
:1030120009340434003400340234FF345D340134A2
:103022000034113421341034013401342534813414
:1030320014340334033403340434133402340834B0
:103042000334033407340534813403342034003428
:103052000434073405340234033420340034083491
:1030620009340434013400340234FF345D3403344F
:1030720000341B34213400340134013401348334EC
:10308200403401340434203416348534003400349E
:103092000034003400340034163405340034003473
:1030A20000340034003400340734053483340334EC
:1030B2002034003402340734053404340334203419
:1030C2000034043409340434023400340134FF344B
:1030D2005D340234003409342134003401340134C3
:1030E20022348634073400340734053486340334FA
:1030F20020340034103409340434033400340034EE
:10310200FF34FD34133404340634413400340134C2
:103112000134033400341434FF34F734FF34FF3401
:10312200C034FF34C034FF34C034FF34C034FF3401
:1031320000340034003400340034003412340134DA
:1031420000340234FF34FF34FF3440345E3404343C
:103152008E34023414340134013402340334013421
:103162000E340334583400342034003454340034E0
:103172004534003453340034543400340E340334B0
:10318200583400342034003454340034453400348C
:1031920053340034543400340E340334583400347D
:1031A2002034003454340034453400345334003471
:1031B20054340034E3349834CD349834BF349834E2
:1031C200B134983404340334093404340034983468
:1036A000640080010131890B512B0034F100F201DB
:1036B00020000C0E0139710603196C2B0130F0004B
:1036C0007008F20765307202031C682BFF30080097
:1036D0000430890B692B582B01300800013023007E
:1036E000E0070030E13D0030E23D0030E33D2200E4
:1036F0006D08031D08000130F00070082300EE077C
:103700006E08031D0800FF30EE0008001215EF30B0
:10371000FD007D0890058E142200ED01ED0A2300C6
:10372000EE0175302000DD000030DE000030DF00EB
:10373000E0000030E100E2009D310B250800F401BB
:10374000F501701CA72B7208F4077308F53D0130D2
:10375000F235F30D890BA82B0130F136F00C890BF3
:10376000AD2B70087104031DA12B7508F1007408BE
:10377000F0000800F200C32BFC30210099009030CB
:1037800027009B0008007208F000F1017108003A60
:103790000319CB2BD62B7008003A0319BC2B013A26
:1037A0000319D62B033A0319D62BD62B0800220077
:1037B000ED0174302000DD000030DE000030DF005D
:1037C000E0000030E100E2009D310B259B313D001F
:1037D0008E101211101DF12BFB30FD007D0890059D
:1037E000EA2B2300EE010800181C112C20005808B9
:1037F0008600870180300106031D0F2C4D088600CE
:103800004E08870084300106031D0F2C58088600DF
:1038100087010C30810058088600870181173D0020
:103820001810DF30F000700890050800F100531008
:103830005311D312D310D313F201F301720871079D
:10384000F00070088600870181010130F207003026
:10385000F33D7308803AF00080307002031D322C73
:1038600015307202031C1E2C710A86008701143069
:1038700081000800F8007108F6007008F50078086B
:10388000F9000130F2020030F33B720A0319730AA7
:103890000319080075088600760887000108F700FC
:1038A0000130F5070030F63D79088600870177087A
:1038B00081000130F4007408F907412CA0309C31DC
:1038C00016249C312300E801E9011E30F700013085
:1038D000903101209C311E30F700023090310120E0
:1038E0009C311E30F7000330903101209C311E3096
:1038F000F7000430903101209C311E30F700063073
:10390000903101200800FE304005F000C030700604
:10391000031D08004103031D080044084504031D5E
:1039200008001430F1000030F2000030470214307B
:10393000031946020318A02C4708F2004608F100BC
:103940008B30C8009830C9007208CC007108CB00D9
:10395000C030CA000800203020005902031C0800B3
:103960003D008E1808002300680869040319BE2C66
:103970006808860069088700811B0800A0308C3128
:1039800032249C31F001F00AA030F1001430F20032
:103990000130933188239C3171082300E9007008BD
:1039A000E8009E31C5269C319E3139269C319E31DE
:1039B0007F26080000309B31BA239C3194319A2431
:1039C0009C31303021008C00F0308D00E7308E00CB
:1039D0009513303024008C00F0308D0023008C01D2
:1039E0008D018E0107302100950495111512951255
:1039F00015178B170530200095009531E7259C3170
:103A000020305902031CFD2C3D008E18FD2C9C31EA
:103A1000AB249C31FD2C1A2D01309B31BA230800B8
:103A200002309B31BA2308009C315E2408009C318F
:103A3000832408005E08003A0319222D7F3A0319F7
:103A40003C2D412D5D08013A0319142D033A031949
:103A5000412D013A0319172D063A0319412D773AE2
:103A60000319412D013A0319412D073A0319102D6D
:103A7000013A03190C2D412D5D08FF3A0319412D20
:103A8000412D08002000E1008030FB0061087B022E
:103A9000E200E301031CE303E31F602D7F30F60027
:103AA0000030F7006308FC006208FB000730FB35BC
:103AB000FC0D890B572D7B08F8007C08F900732D4D
:103AC0008030F6000030F7006308F1006208F00073
:103AD0007F30F2000030F3009B319F239D3171084D
:103AE000F9007008F8009F3154277708E300760842
:103AF000E2006208080002305606031D822D95314F
:103B00003E250800D60123006F08031DB32D2000B9
:103B10005108013EFA000030523DFB007A08860051
:103B20007B088700403081004030FA000030FB0005
:103B3000FF307A05FC007F307B05FD0051088600D0
:103B40005208870042317C08C03F7D08C13F5108C0
:103B50008600520887000C30810051088600520808
:103B6000870081170800EF010800F5002030F600FB
:103B70007008F1000130F135890BBB2D7508F2009A
:103B80000130F235FF3E031DC12D72357107F30080
:103B90000130F335FF3E031DC92D7335F400740861
:103BA000F60776088600870181137008031DE22D51
:103BB0007535E43E8600013087007608C03F00304E
:103BC000C13FEA2D75354D3E860087017608C03F1E
:103BD0000030C13F76088600870101137608043E55
:103BE00086008701011708002D302200EC0020001C
:103BF0005A08FD39031D2F2E5A363F39ED0001308A
:103C0000ED35FF3E031D002E6D35203ED8005808CF
:103C1000D100D20104305106D10000305206D2004A
:103C2000580886008701010C890C0F390D3A031DD5
:103C30002C2E5808023E86008701403FF000413F8D
:103C4000F1000830F2000030F30040309C313A249B
:103C50009D319F310C2708009D317B250800FD30E8
:103C60005A05ED0004306D06031D080091314C210A
:103C70000800E2190800621A08000B110530200044
:103C80009500FA01FB012200E2190800621A0800FF
:103C90000B1D432E9631C6269E310130FA070030A7
:103CA000FB3D00307B02FA3003197A02031C7A2EA6
:103CB00003102000D31C0314031C612E2000D31416
:103CC000632E2000D310FA01FB01772E621A7A2EA0
:103CD0000230F9003830F800AD30890B6D2EF80B4A
:103CE0006D2EF90B6D2E00009631C6269E312200F6
:103CF000E21D662E0B11053020009500432EE219BF
:103D00000800E21A08000B11053020009500FA01A6
:103D1000FB012200E2190800E21A08000B1D892E9F
:103D20009631C6269E310130FA070030FB3D003047
:103D30007B02FA3003197A02031CC02E0310200004
:103D4000D31F0314031CA72E2000D317A92E200075
:103D5000D313FA01FB01BD2EE21AC02E0230F90086
:103D60003830F800AD30890BB32EF80BB32EF90BB9
:103D7000B32E00009631C6269E312200E21DAC2EE5
:103D80000B11053020009500892E2200E219080051
:103D9000621B08000B11053020009500FA01FB01A1
:103DA0002200E2190800621B08000B1DD02E96317C
:103DB000C6269E310130FA070030FB3D00307B0201
:103DC000FA3003197A02031C072F03102000531C3A
:103DD0000314031CEE2E20005314F02E2000531069
:103DE000FA01FB01042F621B072F0230F900383063
:103DF000F800AD30890BFA2EF80BFA2EF90BFA2EDB
:103E000000009631C6269E312200E21DF32E0B11D2
:103E1000053020009500D02ED701D4012200E90101
:103E2000E8012300EF012000D6017F30EC004D08AF
:103E300086004E0887006C08810504304D06CD00D1
:103E400000304E06CE007F30EC004D0886004E0854
:103E500087006C08810504304D06CD0000304E0609
:103E6000CE007F30EC0051088600520887006C08B5
:103E70008105CA01CB01CC012400E201E301E40188
:103E80009031E5209F3103302000DD000030DE005E
:103E90000030DF00E0000030E100E2009D310B2542
:103EA0009F3194310C240800DE01F71F5E2FF609C4
:103EB000F709F60A0319F70ADE01DE0AF91F692F6E
:103EC000F809F909F80A0319F90A0130FA007A0821
:103ED000DE06DF01E001760877040319982FDD0183
:103EE000DD0AF71B7D2F0130F635F70D890B742F96
:103EF0000130FA007A08DD07712F0130DF35E00D5F
:103F0000890B7E2F77087902031D882F76087802A7
:103F1000031C8F2F7608F8027708F93B5F140130F5
:103F2000F736F60C890B902F0130DD02031D7D2F33
:103F30005E080319A02FDF09E009DF0A0319E00A70
:103F40006008F7005F08F60008002100B001B10129
:103F5000E02FCA1722006E03031DF52F2100B014B5
:103F6000F52FCA17F52FCA1744080F39003A03195D
:103F7000F52FC41BC62F44080F390907E43E8600FD
:103F800001308700403FF200413FCF2F44080F39F6
:103F900009074D3E86008701403FF200413FF30094
:103FA0007208860073088700811FF52F720886004B
:103FB00073088700011DF52F01302100B000F52F97
:103FC000200040081F39F000F1017108003A031980
:103FD000EA2FF52F7008003A0319A92F013A0319A7
:103FE000B12F033A0319B32FF52F2000CA1F080081
:103FF000B030C8000030C9004A140230CB000800BD
:020000040001F9
:08000000FF3FFF3FFF3FFF3F00
:04000E00A40FCF1F4D
:00000001FF
