:041808008C310C2CE7
:101810007E148C317E10090020008C310F2C483052
:1018200084000030850015308F31E8278C3160301E
:1018300084000130850010308F31E8278C31E03092
:1018400084000130850010308F31E8278C31603002
:1018500084000230850007308F31E8278C317E10FC
:101860002000903100282000E9009531AE258C3110
:10187000220061080F39023A031D3F2C402C432CF3
:101880002000D316452C2000D3126908023E8600A2
:10189000870103102200E21D03140112031C512CC6
:1018A000011620006908033E86008701031022000C
:1018B000621D03140112031C5E2C0116200069082E
:1018C000033E8600870103102200621C031481126C
:1018D000031C6B2C811620006908033E86008701DB
:1018E00003102200631E03140110031C782C011442
:1018F00020006908033E8600870103102200631F51
:1019000003140113031C852C011720006908033EF2
:101910008600870103102200E31E03148113031CB9
:10192000922C811720006908033E8600870103106E
:101930002200E21C03148110031C9F2C8114200040
:101940006908033E8600870101116908023E86008E
:10195000870181126908063E860087010030C03F7A
:10196000C13F6908083E860087010030C03FC13F83
:1019700069080B3E86008701810169080A3E8600DE
:101980008701810169080C3E860087018101690891
:101990000D3E8600870181012200E219D02CD12C56
:1019A000E42C631BD42CD52CE42CE31AD82CD92C92
:1019B000E42C631ADC2CDD2CE42C20006908033EA7
:1019C000860087010115E42C2200E219E82CE92C9D
:1019D000FC2C6219EC2CED2CFC2C6218F02CF12C58
:1019E000FC2CE218F42CF52CFC2C20006908023E9B
:1019F000860087018116FC2C2000531C002D012D30
:101A0000522D6908023E8600870101106908023ED6
:101A10008600870181106908023E86008701011156
:101A20006908023E8600870181112200621B192D80
:101A30001A2D222D200069080B3E86008701803078
:101A40008100332DE21B252D262D332D2000690822
:101A50000B3E860087017F30810069080A3E8600C0
:101A60008701FF3081002200E21A372D382D402DEA
:101A7000200069080D3E8600870180308100852D99
:101A8000621A432D442D852D200069080D3E8600E5
:101A900087017F30810069080C3E86008701FF3096
:101AA0008100852D6908023E86008701031022000F
:101AB000621E03140110031C5E2D0114200069082E
:101AC000023E8600870103102200E21E03148110EB
:101AD000031C6B2D811420006908023E86008701DB
:101AE00003102200621F03140111031C782D01153D
:101AF00020006908023E8600870103102200E21FD1
:101B000003148111031C852D81152000D31E892DFE
:101B10008A2DAF2D6908023E86008701031022003E
:101B2000E31D03140113031C962D011720006908FF
:101B3000023E8600870103102200E31F0314811375
:101B4000031CA32D811720006908043E860087012D
:101B500081016908053E860087018101FC2D690825
:101B6000023E8600870101136908023E8600870154
:101B700081136908073E8600870122006408803EC1
:101B8000810020006908073E860087017F3001063A
:101B9000031DCB2DCC2DD22D6908063E8600870172
:101BA000FF3081006908093E860087012200650830
:101BB0009C317C248C31810020006908093E86001C
:101BC00087017F300106031DE62DE72DED2D690805
:101BD000083E86008701FF3081006908043E8600C8
:101BE000870122006708810020006908053E860001
:101BF00087012200660881002000531F002E012E5D
:101C0000492E6908033E860087010030011A013021
:101C1000E4006908033E86008701010E890C013942
:101C2000FD006908033E86008701FD0E01087D0660
:101C3000EF397D0681006908033E8600870164084C
:101C400001398112031D81166908033E8600870150
:101C50000030011B0130E4006908033E8600870163
:101C6000010D010D0139FD006908033E8600870161
:101C7000FD0EFD0DFD0D01087D06BF397D068100BD
:101C80006908033E86008701640801398113031D3A
:101C90008117D31F4C2E4D2EA72E6908033E8600B8
:101CA0008701003001180130E500690886008701CE
:101CB000443FE6006908033E860087010110690879
:101CC000043E860087018101F0306602031C692E04
:101CD0006A2E6F2E6908033E860087010114650392
:101CE000031D732E742E7A2E6908043E8600870128
:101CF000FF3081006908033E8600870100308118AB
:101D00000130E500690886008701453FE600690863
:101D1000033E8600870181106908053E8600870121
:101D20008101F0306602031C962E972E9C2E6908C6
:101D3000033E8600870181146503031DA02EA12E9A
:101D4000A72E6908053E86008701FF308100E70164
:101D5000E801200067086907FD007D080E3E860047
:101D6000870181010130E7070030E83D6808803ACB
:101D7000FD0080307D02031DBF2E06306702031C6C
:101D8000C22EC32EA92E080020005908031DC92EFB
:101D9000CA2EDC2E3D008E019201163091009F303C
:101DA00097007B309200D52E8E158E1DD82ED92E01
:101DB000D42E2000D901D90A5903031DE02EE12EAB
:101DC000ED2E3D008E1AE52EE62EED2E90019201AD
:101DD0001214121602302000D9003D00101DF12E01
:101DE000F22EFF2E121DF52EF62EFF2EFB302000B8
:101DF000EE006E083D0090059A3172228E313D0052
:101E00008E1C032F042F072F20001211E72F101C08
:101E10000A2F0B2F1A2F121C0E2F0F2F1A2F94314F
:101E20004D248E3104302000D900FE30EE006E08C3
:101E30003D009005101E1D2F1E2F252F121E212F35
:101E4000222F252F9931E3218E313D00101F292F9C
:101E50002A2F562F121F2D2F2E2F3D2F733020008B
:101E6000DD000030DE000030DF00E0000130E10086
:101E70000030E2009B31BF238E31BF302000EE00E6
:101E80006E083D0090059A311A228E3122006C08AE
:101E900003194B2F4C2F4E2F0130EC026C08031D01
:101EA000522F532F562F913196218E313D00901E87
:101EB0005A2F5B2F622F921E5E2F5F2F622F9B3156
:101EC0002B238E313D00901C662F672F7C2F921C98
:101ED0006A2F6B2F7C2FFF302000DD007F30DE006B
:101EE0000030DF00E0000130E1000030E2009B3113
:101EF000BF238E313D0093010430200059020318A6
:101F0000822F832F852F1211E72F3D00921D892FDD
:101F10008A2FE52F2000EF013D00901D902F912F7B
:101F2000E52F0F082000DA005A0CEE00EE0C6E0CC4
:101F30000F39D500F730EE006E083D009005200007
:101F40005A19A32FA42FB42F5508EA3E860001305A
:101F5000870001080139EE000130EE0601086E0627
:101F6000FE396E068100C32F5508EC3E8600013015
:101F7000870001080139EE000130EE0601086E0607
:101F8000FE396E0681005508031DC72FC82FCC2FC0
:101F90009D310B258E31DA2F7230DD000030DE00EE
:101FA0005A30DF000030E0000030E100E2009B31F9
:101FB000BF238E3101302000EE006E08EF070430A1
:101FC0006F02031CE42FE52F8C2F20001211080054
:0C1FD000640080010131890BE92F00340E
:1020000000309A313622903194314D249031103085
:1020100021008C00F0308D0003308E00951330309D
:1020200024008C0070308D0023008C018D018E0106
:1020300007302100950495111512951215178B176D
:102040000530200095008E31C426903120302000CC
:10205000590203182C282D282E2823283D008E1CD9
:1020600032283328342823289B3185239031232894
:102070008C310C2C4030F200003020004C024030FB
:1020800003194B0203184528462857284B08F2002D
:102090005708031D4C284D285028D701D70A572828
:1020A0005703031D5428552857280230D7007208BB
:1020B000F000F1017008CB027108CC3B4D08013EE5
:1020C000F00000304E3DF100700886007108870076
:1020D00072088100B0302200EF0020004A187128F9
:1020E0007228A528892822006F0886008701200011
:1020F0004808840049088500000881000130C807AD
:102100000030C93D0130F00070082200EF070130B7
:10211000F2027208031D8D288E287328AA28220037
:102120006F08860087012000480884004908850060
:10213000000881000130C8070030C93D0130F000BF
:1021400070082200EF070130F2027208031DA9286F
:10215000AA288F2808002000CA170E30E400993002
:10216000E300E5016308860064088700810101300F
:10217000E3070030E43D0130FD007D08E507650818
:102180000319C328C428B2280030F000F100203021
:10219000F2000030F30020309331172390313D00DE
:1021A0000E172000E6016608EC3E8600013087002D
:1021B00081016608EA3E8600013087008101013016
:1021C000FD007D08E60702306602031CE828E928C6
:1021D000D3280030F000F1000130F2000030F300AD
:1021E0005B309331172390313D000E1328302000CF
:1021F000CD000030CE002030D8005808D100D201E8
:102200004208DC005C08031D062907290A29103052
:10221000D9001C290130DD000030DE005C30DF0019
:102220000030E0000130E1000030E2009B31BF23CC
:10223000903120302000D900080020004D08860091
:102240004E0887000030011B0130F70004304D06B6
:10225000CD0000304E06CE0008305906031D31294E
:102260003229422942087F393D0096001608031999
:102270003A293B293F2910302000D9004229043057
:102280002000D9005603031D462947298D29B03067
:10229000F3000030F400FF307305F5007F30740563
:1022A000F6004D0886004E08870042317508C03F91
:1022B0007608C13F90313A20913102302000570614
:1022C000031D6329642970294D0886004E08870084
:1022D000043081004D0886004E088700811795293B
:1022E0007708031D7429752981294D0886004E0839
:1022F0008700483081004D0886004E08870081170E
:1023000095294D0886004E088700083081004D0849
:1023100086004E088700811795292400E21F912925
:1023200092299329E2132000D601080022006B08AD
:10233000031D9B299C29102A0130EB006A08031D0C
:10234000A229A329102A0130EA00023020005606F3
:10235000031DAB29AC29BE294D0886004E08870015
:10236000413181014D0886004E08870048308100C8
:102370004D0886004E0887008117102A5603031D5A
:10238000C229C329102A2300EF012000580A860021
:102390008701403081004030F0000030F100FF3014
:1023A0007005F2007F307105F3005808023E860088
:1023B00087017208C03F7308C13F58088600870133
:1023C0000430810058088600870181172300EF013F
:1023D000EF0A20005108013EF0000030523DF100AC
:1023E0007008860071088700403081004030F0009E
:1023F0000030F100FF307005F2007F307105F3000E
:10240000510886005208870042317208C03F7308A5
:10241000C13F510886005208870080308100102A91
:102420000800803020004006031D172A182A8B2A36
:10243000C030CA00782A9F30C8009830C9001230D6
:10244000CB000030CC008B2A4208031D282A292A01
:10245000542A4208F000F101F035F10DE730700721
:1024600084001830713D80388500003FC800013F6E
:10247000C9004908F1004808F000023070078400E4
:1024800071080318710A85000008CB004908F100A3
:102490004808F00003307007840071080318710ABF
:1024A00085000008CC008B2ACA018B2A0330420227
:1024B00003185B2A5C2A542A4208F000F101F03527
:1024C000F10DDB30700784001830713D80388500D5
:1024D000003FC800013FC900480884004908850042
:1024E0000008F000F1017008CB007108CC008B2AC5
:1024F0004308F000F1017108003A0319802A542AB8
:102500007008013A03191B2A033A0319242A013AD5
:102510000319562A542A0800F70070080319912A53
:10252000922A9B2A77354D3E86008701403FF8006E
:10253000413FF900A42A7735E43E86000130870048
:10254000403FF800413FF90078087904031DA92AAB
:10255000AA2AAD2AF001F101162B7108F300003010
:10256000F400FF307305F5007F307405F60078083D
:1025700086007908870042317508C03F7608C13F60
:102580007808013EF3000030793DF40073088600BE
:1025900074088700720881004030F30078088600D4
:1025A0007908870073088105780886007908870014
:1025B000811578088600790887008117700803194B
:1025C000E22AE32AFA2A77354D3E86008701403F0A
:1025D000F300413FF40004307306F5000030740648
:1025E000F60077354D3E860087017508C03F7608B6
:1025F000C13F122B7735E43E860001308700403F13
:10260000F300413FF40004307306F5000030740617
:10261000F6007735E43E8600013087007508C03F3C
:102620007608C13F7908F1007808F0000800F8004A
:102630007808F90072087304031D1F2B202B212B2F
:10264000A62B790886008701700881007208790737
:10265000F4007408FF3E8600870170088100003096
:1026600073020330031972020318372B382B392BEE
:10267000A62B790A86008701700881007908023E3E
:10268000860087017008810072087907F4007408D9
:10269000FE3E860087017008810072087907F40009
:1026A0007408FD3E860087017008810000307302C7
:1026B00007300319720203185E2B5F2B602BA62BC9
:1026C0007908033E86008701700881007208790747
:1026D000F4007408FC3E8600870170088100003019
:1026E00073020930031972020318772B782B792BA8
:1026F000A62B7909F4007A09F500F40A0319F50A02
:1027000003307405F60000307505F7007608F40014
:102710007408F9077608F2027708F33BFC30F205FB
:10272000FF30F305A02B790886008701700881002F
:102730000130F2020030F33B0130F4007408F90775
:1027400072087304031DA52BA62B932B08003D00D4
:102750000E122000CA1BAD2BAE2BFA2B2400E21F59
:10276000B22BB32BC32B02302000D6002200680806
:10277000031DBB2BBC2BBF2B9E31C42693312200E3
:10278000EA01EB014C2C20005108013EF70000301B
:10279000523DF800770886007808870040308100B5
:1027A0004030F7000030F800FF307705F9007F3047
:1027B0007805FA00510886005208870042317908EE
:1027C000C03F7A08C13F51088600520887000C308C
:1027D0008100510886005208870081174D08860045
:1027E0004E088700043081004D0886004E0887009F
:1027F00081174C2CC01FFD2BFE2B162CD601D60AA0
:1028000022006908031D052C062C092C9E31C426C4
:1028100093312200EA01EB0120005408031D112C22
:10282000122C4C2C9131962193314C2C0230D60035
:102830005108013EF7000030523DF800770886004D
:1028400078088700403081004030F7000030F80001
:10285000FF307705F9007F307805FA0051088600CF
:102860005208870042317908C03F7A08C13F5108B9
:102870008600520887000430810051088600520803
:10288000870081172200EA01EB0120005408031D94
:102890004A2C4B2C4C2C122C0800210012113D000C
:1028A0009301900198010E30F5009930F400F60183
:1028B000740886007508870081010130F407003034
:1028C000F53D0130F0007008F60776080319692C11
:1028D0006A2C582C16303D0091009F3097007B30B9
:1028E0009200F7017708F0000130F035FF3E031D3C
:1028F000752C7035203E860087010030C03F0030C7
:10290000C13FC23FC33F0130F0007008F7070830F5
:102910007702031C8C2C8D2C722C3D000E17960117
:102920000E120E13F730F000700890052000CA0157
:102930002400E201E301E4013D009019A02CA12C48
:10294000922C01302200EB000130EA00E901E8019D
:10295000ED01F70177354D3E860087010030C03F1D
:10296000C13F7735E43E8600013087000030C03F2C
:10297000C13F7708EC3E860001308700810177086F
:10298000EA3E86000130870081010130F0007008C6
:10299000F70702307702031CCE2CCF2CAA2C28304C
:1029A0002000CD000030CE0016303D0098004030B1
:1029B000F0000030F100FF307005F2007F3071054B
:1029C000F30072082000A2007308A3004030A100A9
:1029D0000430A000A017DC0100302300E300003029
:1029E000E2000030E1000030E000EE012000D901FB
:1029F00008002000580886008701413FF900790847
:102A0000F400F501750824006402031D092D740803
:102A1000630203180C2D0D2D0F2D6308F9007908A2
:102A2000F400F5017408E3027508E43BF8012C2D6D
:102A30007808B03E860087010108F400600886002F
:102A400061088700740881000130E0070030E13D33
:102A50000130F4007408F80779087802031C312D5E
:102A6000322D182D630864040319372D382D772D66
:102A700020005108013EF4000030523DF50074087A
:102A800086007508870040308100B030F4000030C7
:102A9000F500FF307405F6007F307505F70051082A
:102AA00086005208870042317608C03F7708C13F50
:102AB000580886008701011B5E2D5F2D6B2D510884
:102AC000860052088700483081005108860052086D
:102AD00087008117AD2D5108860052088700083005
:102AE000810051088600520887008117AD2D200013
:102AF0005108013EF4000030523DF5007408860094
:102B000075088700403081004030F4000030F50047
:102B1000FF307405F6007F307505F7005108860018
:102B20005208870042317608C03F7708C13F5108FC
:102B30008600520887000430810051088600520840
:102B4000870081172400E21320005408031DA92DDB
:102B5000AA2DAD2D913196219431080022008E15B9
:102B60000E162000D3150830890BB42D20000D0E51
:102B7000890C890C0139F3000D0D0D0D0139F4009C
:102B80000130F435890BC12D0D0E890C0139F5008A
:102B90000230F535890BC92D0D0E0139F6000230D2
:102BA000F635FF3E031DD02D76357504740473048D
:102BB000F7000330F735FF3E031DDA2D7735FA00B5
:102BC00022008E110830890BE32D20000D0E890C98
:102BD000890C0139F3000D0D0D0D0139F4000130A0
:102BE000F435890BF02D0D0E890C0139F5000230FA
:102BF000F535890BF82D0D0E0139F6000230F6354A
:102C0000FF3E031DFF2D76357504740473040F39E0
:102C10007A04FA007A082200E0000130F80000305F
:102C2000F90022000E122000D311530CF300F30C14
:102C3000730C01399931FE219531013A0319212E86
:102C4000222E292E7808603E8600013087008101FF
:102C5000A82E0830890B2A2E20000D0E890C890C15
:102C60000139F3000D0D0D0D0139F4000130F4357B
:102C7000890B372E0D0E890C0139F5000230F53520
:102C8000890B3F2E0D0E0139F6000230F635FF3E5E
:102C9000031D462E7635750474047304F700033063
:102CA000F735FF3E031D502E7735FA0022000E1631
:102CB0002000D315530CF300F30C730C0139993138
:102CC000FE219531013A0319662E672E682E222EB9
:102CD0000830890B692E20000D0E890C890C0139F2
:102CE000F3000D0D0D0D0139F4000130F435890BA1
:102CF000762E0D0E890C0139F5000230F535890B61
:102D00007E2E0D0E0139F6000230F635FF3E031D12
:102D1000852E76357504740473040F397A04FA002D
:102D20007808603E8600013087007A088100013013
:102D3000F8070030F93D7908803AF30080307302DB
:102D4000031DA42E08307802031CA72EA82E112ED6
:102D50001030890BA92E22008E150E161030890B0B
:102D6000AF2E080020004203031DB72EB82ECC2E34
:102D700040081F39003A031DBE2EBF2ECC2ECA17A5
:102D800003304106031DC52EC62ECA2E2200EE01B9
:102D9000EE0ACC2E2200EE0120004208031DD12EA7
:102DA000D22EFF2F40081F39023A031DD82ED92EEC
:102DB000FF2F44080F39003A0319DF2EE02EFF2FB2
:102DC00044080F39E300023063020318E82EE92EAD
:102DD000FF2F20305906031DEE2EEF2EFF2FCA17AE
:102DE000C41BF32EF42E082F44080F390907E43EC4
:102DF000860001308700403FE800413FE900440879
:102E00000F39EA3E8600013087000108E7001A2FDB
:102E100044080F3909074D3E86008701403FE8000E
:102E2000413FE90044080F39EC3E8600013087003D
:102E30000108E70067181D2F1E2F292FFB30E30024
:102E4000FF30E40068086305E80069086405E900EC
:102E50002F2F04306804E80000306904E900C41B27
:102E6000322F332F3F2F44080F390907E43E8600E5
:102E7000013087006808C03F6908C13F492F4408F6
:102E80000F3909074D3E860087016808C03F690871
:102E9000C13F03304106031D4E2F4F2F752F680889
:102EA000860069088700811F562F572F6A2FC41B81
:102EB0005A2F5B2F632F44080F39EA3E86000130FA
:102EC000870081146A2F44080F39EC3E86000130D8
:102ED0008700811468088600690887000115680862
:102EE0008600690887008117FF2F04306806E80014
:102EF00000306906E9006808860069088700811FBC
:102F0000822F832FA02F7F30E30068088600690896
:102F10008700630881056808860069088700011733
:102F20000530DD000030DE006908E0006808DF00E1
:102F30000230E1000030E2009B31BF239631A52F23
:102F400068088600690887000117043020006806B9
:102F5000E80000306906E900E718AF2FB02FB82F5E
:102F60006808860069088700811FB72FB82FE32FF4
:102F7000C41BBB2FBC2FC42F44080F39EA3E860068
:102F8000013087008110CB2F44080F39EC3E8600BA
:102F90000130870081103B30E30068088600690833
:102FA0008700630881050530DD000030DE00690818
:102FB000E0006808DF000230E1000030E2009B31F1
:102FC000BF239631EB2F3B30E30068088600690889
:102FD000870063088105200044080F39983EE3000C
:102FE000E4010E30E43D6308E5006408E600FE30CD
:102FF000E30065088600660887006308810508000D
:10300000093402348B340034043401340034A034E5
:10301000FA3409340434003400340234FF345D34AB
:103020000134003411342134103401340134253496
:103030008134143403340334033404341334023439
:103040000834033403340734053481340334203422
:10305000003404340734053402340334203400349B
:10306000083409340434013400340234FF345D344C
:10307000033400341B34213400340134013401346E
:10308000833440340134043420341634853400341D
:103090000034003400340034003416340534003475
:1030A00000340034003400340034073405348334F1
:1030B0000334203400340234073405340434033438
:1030C000203400340434093404340234003401342C
:1030D000FF345D34023400340934213400340134C7
:1030E00001342234863407340034073405348634FE
:1030F00003342034003410340934043403340034ED
:103100000034FF34FD3413340434063441340034C5
:1031100001340134033400341434FF34F734FF3401
:10312000FF34C034FF34C034FF34C034FF34C03403
:10313000FF340034003400340034003400341234DE
:10314000013400340234FF34FF34FF3440345E3441
:1031500004348E3402341434013401340234033420
:1031600001340E34033458340034203400345434E1
:1031700000344534003453340034543400340E34B5
:10318000033458340034203400345434003445348B
:10319000003453340034543400340E34033458347F
:1031A0000034203400345434003445340034533473
:1031B000003454340034E3349834CD349834BF347C
:1031C0009834B1349834043403340934043400346A
:0231D000983431
:1033C6003D001215EF30FD007D0890058E14220099
:1033D600ED01ED0A2300EE0175302000DD0000301E
:1033E600DE000030DF00E0000030E100E2009B314B
:1033F600BF2399310800F100F201102A0130F000D4
:103406007008F20765307202031C0A2A0B2A0D2A7D
:10341600FF30192A0430890B0E2A20000C0E0139C0
:103426007106031D172A182A012A013008000130E7
:103436002300E0070030E13D0030E23D0030E33D8F
:1034460022006D08031D282A292A352A0130F0009A
:1034560070082300EE076E08031D322A332A352A28
:10346600FF30EE000800F2003F2AFC3021009900F0
:10347600903027009B00522A7208F000F101710873
:10348600003A0319472A522A7008003A0319382AC3
:10349600013A0319522A033A0319522A522A0800FA
:1034A600F401F501701C582A592A5D2A7208F4079E
:1034B6007308F53D0130F235F30D890B5E2A0130B4
:1034C600F136F00C890B632A70087104031D6C2A0F
:1034D6006D2A552A7508F1007408F00008002200CC
:1034E600ED0174302000DD000030DE000030DF002A
:1034F600E0000030E100E2009B31BF239A313D003D
:103506008E1012118A2AFB30FD007D0890051019D5
:103516008D2A8E2A862A2300EE010800FC00771DDC
:10352600952A962A9B2AF0017C089C313B249A31E5
:10353600F71C9E2A9F2AA52AF001F00A7C089C31D6
:103546003B249A317C08983EF800F9010E30F93D8B
:103556007808FA007908FB007A0886007B0887005D
:10356600770881000800A0309A31DC229A312300C6
:10357600E801E9011E30F70001309A3191229A31B3
:103586001E30F70002309A3191229A311E30F70030
:1035960003309A3191229A311E30F70004309A3165
:1035A60091229A311E30F70006309A3191229A31D3
:1035B6000800F100200053105311D3125313D313F4
:1035C600F201F30172087107F000700886008701A6
:1035D60081010130F2070030F33D7308803AF000B4
:1035E60080307002031DF92A15307202031CFC2A72
:1035F600FD2AE52A710A8600870114308100080039
:10360600F8007108F6007008F5007808F9001E2B1E
:1036160075088600760887000108F7000130F5076F
:103626000030F63D79088600870177088100013071
:10363600F4007408F9070130F2020030F33B720A15
:10364600031D292B730A031D292B2A2B0B2B08007C
:103656003D00181C2F2B302B4F2B200058088600BE
:10366600870180300106031D392B3A2B4D2B4D085F
:1036760086004E08870084300106031D432B442B29
:103686004D2B5808860087010C30810058088600AB
:10369600870181173D001810DF30F0007008900593
:1036A6000800FE3020004005F000C0307006031D03
:1036B6005D2B5E2B842B4103031D622B632B842B16
:1036C60044084504031D682B692B842B1430F10034
:1036D6000030F20000304702143003194602031886
:1036E600752B762B7A2B4708F2004608F1008B30B3
:1036F600C8009830C9007208CC007108CB00C030F1
:10370600CA00080020302000590203188B2B8C2B8E
:103716008D2BBE2B3D008E1C912B922B932BBE2BFB
:103726002300680869040319992B9A2BA22B6808B1
:10373600860069088700811BA12BA22BBE2BA03017
:103746008C3133249B31F001F00AA030F1001430A3
:10375600F200013092318C229B3171082300E9007E
:103766007008E8009D3159259B319D31B2259B316A
:103776009E310B269B310800D22B01309A3136221E
:103786009B31FA2B02309A3136229B31FA2B9A3131
:10379600B6229B31FA2B9B3154239B31FA2B200006
:1037A6005E08003A0319DB2B7F3A0319F52BFA2B37
:1037B6005D08013A0319CA2B033A0319FA2B013A99
:1037C6000319CE2B063A0319FA2B773A0319FA2B6B
:1037D600013A0319FA2B073A0319C52B013A0319C3
:1037E600C02BFA2B5D08FF3A0319FA2BFA2B0800B7
:1037F600023020005606031D012C022C062C9431A3
:10380600F9249B313A2CD60123006F08031D0C2C9A
:103816000D2C392C20005108013EFA000030523D93
:10382600FB007A0886007B08870040308100403024
:10383600FA000030FB00FF307A05FC007F307B0584
:10384600FD00510886005208870042317C08C03FBF
:103856007D08C13F51088600520887000C30810060
:10386600510886005208870081173A2CEF0108009C
:10387600F5002030F6007008F1000130F135890BB3
:10388600412C7508F2000130F235FF3E031D472C2E
:1038960072357107F3000130F335FF3E031D4F2CDF
:1038A6007335F4007408F6077608860087018113DD
:1038B6007008031D5F2C602C6A2C7535E43E86006B
:1038C600013087007608C03F0030C13F722C753545
:1038D6004D3E860087017608C03F0030C13F76081E
:1038E6008600870101137608043E860087010117CA
:1038F60008002000E1008030FB0061087B02E20046
:10390600E301031CE303E31F892C8A2CA42C7F30DC
:10391600F6000030F7006308FC006208FB00073081
:10392600FB35FC0D890B932C7B08F8007C08F9000D
:103936009E3164269C3177082000E3007608E20079
:10394600BF2C8030F6000030F7006308F1006208F3
:10395600F0007F30F2000030F3009A3153229C31A0
:103966007108F9007008F8009E3164269C317708CA
:103976002000E3007608E200620808002000D70174
:10398600D4012200E901E8012300EF012000D6015D
:103996007F30EC004D0886004E0887006C088105D4
:1039A60004304D06CD0000304E06CE007F30EC00D0
:1039B6004D0886004E0887006C08810504304D06C8
:1039C600CD0000304E06CE007F30EC005108860058
:1039D600520887006C088105CA01CB01CC0124007E
:1039E600E201E301E4019F3192279C31033020007C
:1039F600DD000030DE000030DF00E0000030E100D6
:103A0600E2009B31BF239C319331A7239C310800F0
:103A16002D302200EC0020005A08FD39031D142D1C
:103A2600152D4C2D5A363F39ED000130ED35FF3E50
:103A3600031D192D6D35203ED8005808D100D2013E
:103A460004305106D10000305206D20058088600D4
:103A56008701010C890C0F390D3A031D332D342DC6
:103A6600482D5808023E86008701403FF000413F3E
:103A7600F1000830F2000030F30040309B310323A0
:103A86009D319C31C1249D31582D9B31FB239D31A5
:103A9600582DFD305A05ED0004306D06031D542DDA
:103AA600552D582D91311D219D3108002200E21916
:103AB6005D2D5E2DB12D621B612D622DB12D0B1179
:103AC600053020009500DD01DE01A82D0B1D6C2DB3
:103AD6006D2DA82D9531AE259D3101302000DD07D5
:103AE6000030DE3D00305E02FA3003195D02031C31
:103AF6007D2D7E2DA42D0310531C03140318842D35
:103B0600872D20005314892D20005310DD01DE017E
:103B16009B2D0230FC003830FB00AD30890B912D17
:103B2600FB0B912DFC0B912D00009531AE259D319F
:103B36002200E2199F2DA02DA42D621FA32DA42DD6
:103B46008C2D0B110530200095002200E219AC2DBA
:103B5600AD2DB12D621FB02DB12D692D08002200AB
:103B6600E219B62DB72D0A2E621ABA2DBB2D0A2ED2
:103B76000B11053020009500DD01DE01012E0B1D25
:103B8600C52DC62D012E9531AE259D310130200063
:103B9600DD070030DE3D00305E02FA3003195D02BB
:103BA600031CD62DD72DFD2D0310531F0314031808
:103BB600DD2DE02D20005317E22D20005313DD01EB
:103BC600DE01F42D0230FC003830FB00AD30890BED
:103BD600EA2DFB0BEA2DFC0BEA2D00009531AE25F4
:103BE6009D312200E219F82DF92DFD2D621EFC2DC6
:103BF600FD2DE52D0B110530200095002200E21960
:103C0600052E062E0A2E621E092E0A2EC22D080029
:103C16002200E2190F2E102E632EE21A132E142EF6
:103C2600632E0B11053020009500DD01DE015A2EB2
:103C36000B1D1E2E1F2E5A2E9531AE259E3101309C
:103C46002000DD070030DE3D00305E02FA30031949
:103C56005D02031C2F2E302E562E0310D31F031485
:103C66000318362E392E2000D3173B2E2000D313EF
:103C7600DD01DE014D2E0230FC003830FB00AD3098
:103C8600890B432EFB0B432EFC0B432E0000953174
:103C9600AE259E312200E219512E522E562EE21EDC
:103CA600552E562E3E2E0B11053020009500220073
:103CB600E2195E2E5F2E632EE21E622E632E1B2EEF
:103CC60008002000DE01F71F692E6A2E712EF60904
:103CD600F709F60A0319F70ADE01DE0AF91F742E40
:103CE600752E7E2EF809F909F80A0319F90A01302A
:103CF600FA007A08DE06DF01E00176087704031988
:103D0600852E862EB52EDD01DD0A922E0130F63582
:103D1600F70D890B8A2E0130FA007A08DD07F71FA6
:103D2600952E962E892E0130DF35E00D890B972EC4
:103D360077087902031DA12E76087802031CA42EAB
:103D4600A52EAA2E7608F8027708F93B5F140130F3
:103D5600F736F60C890BAB2E0130DD02031DB42EAF
:103D6600B52E962E5E080319B92EBA2EBF2EDF0980
:103D7600E009DF0A0319E00A6008F7005F08F600A9
:103D860008002200E901E801023020005606031D62
:103D9600CD2ECE2EF92E5108013EF3000030523DB5
:103DA600F400730886007408870040308100B03044
:103DB600F3000030F400FF307305F5007F30740522
:103DC600F600510886005208870042317508C03F48
:103DD6007608C13F510886005208870048308100A6
:103DE60051088600520887008117292F4C08470280
:103DF600031DFF2E4B0846020318022F032F072F21
:103E06004708CC004608CB0090313A209E31B030AE
:103E1600F3000030F400FF307305F5007F307405C1
:103E2600F60020004D0886004E08870042317508CE
:103E3600C03F7608C13F4D0886004E0887004830CF
:103E460081004D0886004E08870081170800210072
:103E5600B001B101702FCA1722006E03031D342F63
:103E6600352F852F2100B014852FCA17852FCA1725
:103E760044080F39003A0319412F422F852FC41BDE
:103E8600452F462F522F44080F390907E43E860076
:103E960001308700403FF200413FF3005C2F4408A9
:103EA6000F3909074D3E86008701403FF200413F2A
:103EB600F3007208860073088700811F632F642F42
:103EC600852F7208860073088700011D6B2F6C2FE3
:103ED600852F01302100B000852F200040081F39B2
:103EE600F000F1017108003A03197A2F852F700846
:103EF600003A03192E2F013A0319382F033A0319F2
:103F06003A2F852F2000CA1F892F8A2F912FB03074
:103F1600C8000030C9004A140230CB000800200057
:103F2600400E890C0339003A03199A2F9B2FD42F80
:103F3600FF2FCA170830D900FF2F923111229F3167
:103F4600FF2F9031AB209F31FF2F5C30C80000302F
:103F5600C9004A14CB01CB0ACA17FF2F9F312A2763
:103F66009F31FF2F9631B2269F31FF2F44085B3ECB
:103F7600C800C901AC2FCA1744085B3E86008701FA
:103F860042088100FF2F0230DD000030DE000030E5
:103F9600DF00E0000030E100E2009B31BF239F31EB
:103FA600FF2F4108EA00EB016B08003A0319DC2FEA
:103FB600FF2F6A08003A0319B12F013A0319B52FEA
:103FC600023A0319B52F063A03199C2F033A03192F
:103FD600A02F013A0319C62F0F3A0319A82F013A49
:103FE6000319A42F033A0319B92F013A0319BE2F57
:0A3FF600073A0319FF2FFF2F080000
:020000040001F9
:08000000FF3FFF3FFF3FFF3F00
:04000E00A40FCF1F4D
:00000001FF
